:100000000C945D000C9485000C9485000C94850084
:100010000C9485000C9485000C9485000C9485004C
:100020000C9485000C9485000C9485000C9485003C
:100030000C9485000C9485000C9485000C9485002C
:100040000C9416040C9485000C94E1060C94130790
:100050000C9485000C9485000C9485000C9485000C
:100060000C9485000C94850000000008000201003B
:100070000003040700000000000000000102040863
:100080001020408001020408102001020408102002
:10009000040404040404040402020202020203032E
:1000A0000303030300000000250028002B000000CC
:1000B0000000240027002A00430711241FBECFEFB1
:1000C000D8E0DEBFCDBF12E0A0E0B1E0E2E2F1E1B6
:1000D00002C005900D92A837B107D9F723E0A8E731
:1000E000B2E001C01D92A636B207E1F710E0CAEBFC
:1000F000D0E004C02297FE010E948B08C83BD107C4
:10010000C9F70E9487070C948F080C9400008EBDDD
:1001100000000DB407FEFDCF8EB50895CF93DF9399
:10012000D82FC62F8AE00E9466056C2F8D2FDF9195
:10013000CF910C946605CF93DF930E94600460E03A
:1001400084E090E00E948E0082EF0E948700CDE75D
:10015000D2E080E00E948700899382E0C338D8070C
:10016000C1F761E084E090E00E948E0081E080931E
:100170008302DF91CF9108950F931F93CF93DF9365
:10018000082F162FEA0160E0CA010E948E00802F1E
:100190000E948700812F0E94870061E0CE01DF91DD
:1001A000CF911F910F910C948E0044E050E061E0DC
:1001B00081E30E94BC0044E050E068E08DE20C94D2
:1001C000BC000F931F93CF93DF93082F162FEA01E4
:1001D00060E0CA010E948E0082E00E948700802FAA
:1001E0000E948700812F0E94870061E0CE01DF918D
:1001F000CF911F910F910C948E0048E050E062E087
:100200008AE20E94E10048E050E060E989E20E9451
:10021000E10048E050E062E088E20E94E100809165
:100220008402882331F060E071E089EC92E00C9464
:10023000DA07089548E050E063E08BE20E94E100B5
:1002400080918402882331F062E271E089EC92E0CF
:100250000C94DA07089548E050E063E080E60E94DD
:10026000E10048E050E063E080E70E94E100809117
:100270008402882331F06BE471E089EC92E00C9405
:10028000DA0708951F93CF93DF93182FEB0160E0F7
:10029000CE010E948E0083E00E948700812F0E9481
:1002A000870080E00E948700182F61E0CE010E9445
:1002B0008E0061E070E080E090E00E948F0448E0F2
:1002C00050E060E08CE20E94E100812FDF91CF914D
:1002D0001F910895CF92DF92EF92FF920F931F9399
:1002E000CF93DF93062FC3E0D0E048E050E0602FCB
:1002F0008FE00E94E10068E070E08EE00E94420121
:10030000182F0E9460046B017C0160E070E0CB015B
:10031000101791F0693873418105910594F468E0F4
:1003200070E08EE00E944201182F0E9460046C1958
:100330007D098E099F09ECCF6938734181059105CC
:1003400064F080918402882331F069E771E089ECE0
:1003500092E00E94DA07219741F680918402882377
:1003600031F063EA71E089EC92E00E94D407809159
:100370008402882339F04AE050E0612F89EC92E052
:100380000E94480880918402882371F06CE671E035
:1003900089EC92E0DF91CF911F910F91FF90EF9048
:1003A000DF90CF900C94DA07DF91CF911F910F91DE
:1003B000FF90EF90DF90CF900895CF93DF93D62FEB
:1003C000C42F48E050E0682F82E30E94E10048E03B
:1003D00050E06D2F81E30E94E10048E050E06C2F77
:1003E00085E3DF91CF910C94E1001F93CF93DF93CE
:1003F000182FEB0160E0CE010E948E00812F0E9439
:10040000870061E0CE01DF91CF911F910C948E00A7
:10041000CF9368E070E080EC0E94F50168E070E046
:100420008EE00E944201C82F87FFF8CF809184029E
:10043000882331F06BEB71E089EC92E00E94D407E5
:1004400080918402882341F04AE050E06C2F89ECCF
:1004500092E0CF910C944F08CF91089564E670E03C
:1004600080E090E00E948F040E94080264E670E041
:1004700080E090E00E948F040E94FD0064E670E03E
:1004800080E090E00E948F040E941A0164E670E010
:1004900080E090E00E948F040E942B0164E670E0EF
:1004A00080E090E00E948F0460E080E00E946A019A
:1004B00064E670E080E090E00C948F0440ED57E03B
:1004C00060E070E089E892E00E947D0320E032EC79
:1004D00041E050E069EC72E089E892E00E9490030C
:1004E00089E892E00E947A0369EE71E08091BA0295
:1004F0009091BB020E94D4076AE070E080E090E037
:100500000E948F0441E060E089E892E00E94FB03D2
:1005100081E0809378028093840261E084E00E940D
:100520002D0561E088E00E942D0561E08AE00E94CF
:100530002D0561E084E00E94660561E088E00E948C
:10054000660561E08AE00E94660580918702882343
:1005500099F09FB7F89480918702813059F48DB358
:10056000809385022DB380918602809582238DBB76
:100570009FBF02C0909385028DE58CBD1DBC0E947B
:100580001C030E94D5000E942E0247E060E081E03B
:100590000E94DD0164E670E080E090E00E948F043C
:1005A0000E9460046093790270937A0280937B02C8
:1005B00090937C0208958130910539F08230910545
:1005C00031F0892B29F421E803C022E801C024E896
:1005D00068E070E0822F0C94F501982F862F48E098
:1005E00050E0692F0E94E10080E090E00E94DB0271
:1005F00061E070E080E090E00C948F040F931F9313
:10060000CF93DF930E949B00CBEFD1E00DE712E088
:100610006991F80181918F010E94ED02F2E0C230F0
:10062000DF07B1F76AEF70E080E090E0DF91CF91F3
:100630001F910F910C948F04CF93CFB7F8948091B2
:100640008802811127C0EAE9F0E08491E6E8F0E051
:100650009491E82FF0E0EE0FFF1FE255FF4FA591B8
:10066000B4918C91892321F461E08AE00E946605AF
:1006700061E08AE00E942D058CB580618CBD8CB54F
:1006800080648CBD61E08DE00E942D0561E08BE00F
:100690000E942D05809188028F5F80938802CFBFD2
:1006A000CF9108950F931F93CF93DF93EC016623AF
:1006B00059F00E94600469837A838B839C83DF9165
:1006C000CF911F910F9108950E94600409811A81B2
:1006D0002B813C81601B710B820B930B6233710584
:1006E0008105910530F763E070E080E090E00E94C2
:1006F0008F04EACF60E00C945203FC0113AA14AA01
:1007000015AA16AA1182128213821482411551056C
:100710006105710521F0CB01BA010C948F04089595
:10072000FB01BA01A901DC01D296FC93EE93D197AB
:1007300026E0CF010C947F061F93CF93DF93EC014B
:10074000162F63E072E089A99AA90E94D4074AE0B3
:1007500050E0612F89A99AA90E9448086AE072E0D6
:1007600089A99AA90E94D40762E370E080E090E032
:10077000DF91CF911F910C948F041F93CF93DF9340
:10078000EC01162F8D81882389F189A99AA9DC01B2
:10079000ED91FC910480F581E02D0995892BA9F359
:1007A00007C02637310519F12835310509F41D82B6
:1007B00089A99AA9DC01ED91FC910480F581E02DD5
:1007C00009951816190694F489A99AA9DC01ED91E6
:1007D000FC910680F781E02D09959C013327233693
:1007E0003105F9F6612FCE010E949C0383E6DF916B
:1007F000CF911F9108950F931F93CF93DF931F9273
:10080000CDB7DEB78C01662349F081E0F80185831E
:1008100060E0C80149830E94BD034981F801458316
:100820000F90DF91CF911F910F9108951F920F921A
:100830000FB60F9211242F933F938F939F93AF93F3
:10084000BF938091C1029091C202A091C302B09166
:10085000C4023091C00223E0230F2D3720F401960B
:10086000A11DB11D05C026E8230F0296A11DB11DD3
:100870002093C0028093C1029093C202A093C3024E
:10088000B093C4028091C5029091C602A091C702A4
:10089000B091C8020196A11DB11D8093C50290932D
:1008A000C602A093C702B093C802BF91AF919F91B7
:1008B0008F913F912F910F900FBE0F901F90189521
:1008C0002FB7F8946091C1027091C2028091C30267
:1008D0009091C4022FBF08953FB7F8948091C5024C
:1008E0009091C602A091C702B091C80226B5A89BFC
:1008F00005C02F3F19F00196A11DB11D3FBF66270E
:10090000782F892F9A2F620F711D811D911D42E052
:10091000660F771F881F991F4A95D1F708958F9208
:100920009F92AF92BF92CF92DF92EF92FF926B01B4
:100930007C010E946C044B015C01C114D104E104F0
:10094000F104F1F00E9466080E946C0468197909AC
:100950008A099B09683E73408105910570F321E087
:10096000C21AD108E108F10888EE880E83E0981ECB
:10097000A11CB11CC114D104E104F10429F7DDCF9D
:10098000FF90EF90DF90CF90BF90AF909F908F90AF
:100990000895789484B5826084BD84B5816084BDF7
:1009A00085B5826085BD85B5816085BDEEE6F0E0E8
:1009B000808181608083E1E8F0E010828081826044
:1009C0008083808181608083E0E8F0E080818160C5
:1009D0008083E1EBF0E0808184608083E0EBF0E0F5
:1009E000808181608083EAE7F0E080818460808399
:1009F0008081826080838081816080838081806843
:100A000080831092C1000895833081F028F48130F2
:100A100099F08230A1F008958730A9F08830B9F0BC
:100A20008430D1F4809180008F7D03C0809180005C
:100A30008F7780938000089584B58F7702C084B546
:100A40008F7D84BD08958091B0008F7703C0809121
:100A5000B0008F7D8093B0000895CF93DF9390E036
:100A6000FC01E458FF4F2491FC01E057FF4F8491B3
:100A7000882349F190E0880F991FFC01E255FF4F50
:100A8000A591B4918C559F4FFC01C591D4919FB70E
:100A9000611108C0F8948C91209582238C938881F1
:100AA00082230AC0623051F4F8948C91322F309531
:100AB00083238C938881822B888304C0F8948C9143
:100AC000822B8C939FBFDF91CF9108950F931F933B
:100AD000CF93DF931F92CDB7DEB7282F30E0F90117
:100AE000E859FF4F8491F901E458FF4F1491F9013F
:100AF000E057FF4F04910023C9F0882321F0698358
:100B00000E9404056981E02FF0E0EE0FFF1FEC5515
:100B1000FF4FA591B4919FB7F8948C91611103C0D8
:100B20001095812301C0812B8C939FBF0F90DF9183
:100B3000CF911F910F910895FC01818D228D90E03E
:100B4000805C9F4F821B91098F7399270895FC0148
:100B5000918D828D981731F0828DE80FF11D858D72
:100B600090E008958FEF9FEF0895FC01918D828DA5
:100B7000981761F0828DDF01A80FB11D5D968C91F1
:100B8000928D9F5F9F73928F90E008958FEF9FEFFC
:100B9000089589E397E0892B49F080E090E0892B64
:100BA00029F00E94390781110C9400000895FC017E
:100BB000848DDF01A80FB11DA35ABF4F2C91848DE6
:100BC00090E001968F739927848FA689B7892C931B
:100BD000A089B1898C9180648C93938D848D9813B6
:100BE00006C00288F389E02D80818F7D808308957F
:100BF000CF93DF93EC01888D8823C9F0EA89FB89C4
:100C0000808185FD05C0A889B9898C9186FD0FC0BA
:100C10000FB607FCF5CF808185FFF2CFA889B9898F
:100C20008C9185FFEDCFCE010E94D705E7CFDF91F4
:100C3000CF910895CF92DF92FF920F931F93CF939E
:100C4000DF931F92CDB7DEB76C0181E0D6015896D5
:100C50008C9358975B969C915B975C968C915C9774
:100C6000981307C05096ED91FC915197808185FDB6
:100C70002EC0F601038D10E00F5F1F4F0F73112779
:100C8000F02EF601848DF81211C00FB607FCF9CFD3
:100C9000D6015096ED91FC915197808185FFF1CF5F
:100CA000C60169830E94D7056981EBCF838DE80F68
:100CB000F11DE35AFF4F6083D6015B960C935B975F
:100CC0005296ED91FC915397808180620CC0D601C1
:100CD0005696ED91FC91579760835096ED91FC915B
:100CE000519780818064808381E090E00F90DF9154
:100CF000CF911F910F91FF90DF90CF900895BF92F9
:100D0000CF92DF92EF92FF92CF93DF93EC016A01D3
:100D10007B01B22EE889F98982E08083411581EE5A
:100D2000580761057105A1F060E079E08DE390E07E
:100D3000A70196010E946708215031094109510914
:100D40005695479537952795211580E1380798F0F6
:100D5000E889F989108260E874E88EE190E0A701E3
:100D600096010E94670821503109410951095695A1
:100D7000479537952795EC85FD853083EE85FF8572
:100D80002083188EEC89FD89B082EA89FB898081F5
:100D900080618083EA89FB89808188608083EA8919
:100DA000FB89808180688083EA89FB8980818F7DCF
:100DB0008083DF91CF91FF90EF90DF90CF90BF9035
:100DC00008951F920F920FB60F9211242F938F93B5
:100DD0009F93EF93FF93E091D902F091DA02808123
:100DE000E091DF02F091E00282FD12C090818091DB
:100DF000E2028F5F8F732091E302821751F0E0913E
:100E0000E202F0E0E753FD4F958F8093E20201C0CC
:100E10008081FF91EF919F918F912F910F900FBE45
:100E20000F901F9018951F920F920FB60F921124DA
:100E30002F933F934F935F936F937F938F939F93E2
:100E4000AF93BF93EF93FF9389EC92E00E94D70595
:100E5000FF91EF91BF91AF919F918F917F916F9192
:100E60005F914F913F912F910F900FBE0F901F9068
:100E7000189589EC92E00E949C0521E0892B09F4E9
:100E800020E0822F08951092CC021092CB0288EEBF
:100E900093E0A0E0B0E08093CD029093CE02A093C7
:100EA000CF02B093D0028FE592E09093CA02809374
:100EB000C90285EC90E09093D6028093D50284EC31
:100EC00090E09093D8028093D70280EC90E09093CA
:100ED000DA028093D90281EC90E09093DC02809357
:100EE000DB0282EC90E09093DE028093DD0286ECE0
:100EF00090E09093E0028093DF021092E202109261
:100F0000E3021092E4021092E502089508950E940F
:100F1000C9040E9486070E945E02C9ECD5E00E94C7
:100F2000FE022097E1F30E94C905F9CFCF92DF922C
:100F3000EF92FF920F931F93CF93DF937C016A018F
:100F4000EB0100E010E00C151D0571F06991D7016F
:100F5000ED91FC910190F081E02DC7010995892B5D
:100F600019F00F5F1F4FEFCFC801DF91CF911F9195
:100F70000F91FF90EF90DF90CF900895611571056C
:100F800081F0DB010D900020E9F7AD0141505109DE
:100F9000461B570BDC01ED91FC910280F381E02DA3
:100FA000099480E090E008950C94BE0760E172E03F
:100FB0000C94BE070F931F93CF93DF93EC010E9415
:100FC000BE078C01CE010E94D607800F911FDF91D2
:100FD000CF911F910F9108958F929F92AF92BF92E0
:100FE000DF92EF92FF920F931F93CF93DF93CDB7D2
:100FF000DEB7A1970FB6F894DEBF0FBECDBF7C0160
:10100000F42FD52ECB0119A2223008F42AE08E014C
:101010000F5D1F4F822E912CA12CB12C6F2F7D2D97
:10102000A50194010E946708F22FD32ECA01015036
:1010300011096A3014F4E0E301C0E7E3E60FD801D8
:10104000EC93232B242B252B49F7B801C7010E94D1
:10105000BE07A1960FB6F894DEBF0FBECDBFDF91DD
:10106000CF911F910F91FF90EF90DF90BF90AF90C5
:101070009F908F9008952115310541F4DC01ED9189
:10108000FC910190F081E02D642F09940C94EC0701
:101090009A01462F50E060E070E00C943B080F93FB
:1010A0001F93CF93DF93EC019A01462F50E060E04D
:1010B00070E00E943B088C01CE010E94D607800F91
:1010C000911FDF91CF911F910F9108950895A1E293
:1010D0001A2EAA1BBB1BFD010DC0AA1FBB1FEE1FB2
:1010E000FF1FA217B307E407F50720F0A21BB30BFD
:1010F000E40BF50B661F771F881F991F1A9469F779
:1011000060957095809590959B01AC01BD01CF01D4
:101110000895EE0FFF1F0590F491E02D0994F894C7
:02112000FFCFFF
:101122004D63703235313520636F6E666967757253
:1011320065206275732073756363657366756C6C85
:1011420079004D63703235313520636F6E666967A1
:1011520075726520696E746572727570747320732E
:10116200756363657366756C6C79004D63703235B7
:10117200313520636F6E666967757265206D6173C4
:101182006B73202F2066696C7465727320737563AC
:1011920063657366756C6C790041626F7274207757
:1011A200616974696E672E204D61782E20776169BE
:1011B20074696E672074696D652072656163686524
:1011C200642E004D63703235313520737769746354
:1011D2006820746F206D6F646520004D6370323536
:1011E2003135207265736574207375636365736648
:1011F200756C6C7920616E64207377697463682002
:10120200646F206D6F64652000564D4450565F3107
:101212007C315F564D4450560D0A00363738393A04
:101222003B3C3D564D4450435F005F564D44504356
:101232000D0A004572726F723A20417474656D70C6
:101242007420746F20736574206120726561642D4F
:101252006F6E6C79207661726961626C65206F7263
:1012620020646174612074797065206E6F742073DC
:101272007570706F727465640D0A00000000001AC8
:101282000696079C05B505A705F8056E616E00690F
:081292006E66006F7666000035
:00000001FF
