:100000000C945D000C9485000C9485000C94850084
:100010000C9485000C9485000C9485000C9485004C
:100020000C9485000C9485000C9485000C9485003C
:100030000C9485000C9485000C9485000C9485002C
:100040000C94C1050C9485000C948C080C94BE088B
:100050000C9485000C9485000C9485000C9485000C
:100060000C9485000C94850000000008000201003B
:100070000003040700000000000000000102040863
:100080001020408001020408102001020408102002
:10009000040404040404040402020202020203032E
:1000A0000303030300000000250028002B000000CC
:1000B0000000240027002A00EE0811241FBECFEF05
:1000C000D8E0DEBFCDBF13E0A0E0B1E0E2E5FBE1A8
:1000D00002C005900D92A230B107D9F724E0A2E04A
:1000E000B3E001C01D92A030B207E1F710E0CAEB07
:1000F000D0E004C02297FE010E94A30DC83BD107A7
:10010000C9F70E9432090C94A70D0C9400008EBD13
:1001100000000DB407FEFDCF8EB50895CF93DF9399
:10012000D82FC62F8AE00E9411076C2F8D2FDF91E8
:10013000CF910C941107CF92DF92EF92FF920F9321
:100140001F93CF93DF9360E087E090E00E948E00E2
:1001500082EF0E948700CBE0D3E080E00E9487001E
:10016000899383E0C131D807C1F761E087E090E06F
:100170000E948E0081E08093110380911E038823EA
:1001800009F472C060910B0370910C0300910D0390
:1001900010910E0380910F03C82F80911003D82F68
:1001A000882777FD8095982F0E94640C20E030E02E
:1001B00040E05CE30E94180D6B017C016093120328
:1001C000709313038093140390931503B801882749
:1001D00077FD8095982F0E94640C20E030E040E08D
:1001E0005CE30E94180D60931603709317038093CD
:1001F000180390931903BE01882777FD8095982FE7
:100200000E94640C20E030E040E05CE30E94180DA6
:1002100060931A0370931B0380931C0390931D0338
:1002200022E030E0B701A60183E693E00E944D0B87
:1002300040911603509117036091180370911903B0
:1002400022E030E083E693E00E944D0B40911A03D8
:1002500050911B0360911C0370911D0322E030E05C
:1002600083E693E00E944D0B81E0DF91CF911F91D7
:100270000F91FF90EF90DF90CF9008950F931F9311
:10028000CF93DF93082F162FEA0160E0CA010E9486
:100290008E00802F0E948700812F0E94870061E0DE
:1002A000CE01DF91CF911F910F910C948E0047E00A
:1002B00050E061E081E30E943E0147E050E068E0E9
:1002C0008DE20C943E010F931F93CF93DF93082F81
:1002D000162FEA0160E0CA010E948E0082E00E94AF
:1002E0008700802F0E948700812F0E94870061E095
:1002F000CE01DF91CF911F910F910C948E0048E0B9
:1003000050E062E08AE20E94630148E050E060E968
:1003100089E20E94630148E050E062E088E20E94C6
:10032000630180911E03882331F063E071E083E66E
:1003300093E00C948C09089548E050E060E08BE273
:100340000E94630180911E03882331F065E271E011
:1003500083E693E00C948C09089548E050E063E054
:1003600080E60E94630148E050E063E080E70E947D
:10037000630180911E03882331F06EE471E083E60F
:1003800093E00C948C0908951F93CF93DF93182F5B
:10039000EB0160E0CE010E948E0083E00E948700A6
:1003A000812F0E94870080E00E948700182F61E063
:1003B000CE010E948E0061E070E080E090E00E943B
:1003C0003A0648E050E060E08CE20E946301812F31
:1003D000DF91CF911F910895CF92DF92EF92FF921C
:1003E0000F931F93CF93DF93062FC3E0D0E048E035
:1003F00050E0602F8FE00E94630168E070E08EE0C3
:100400000E94C401182F0E940B066B017C0160E062
:1004100070E0CB01101791F06938734181059105A7
:1004200094F468E070E08EE00E94C401182F0E94EE
:100430000B066C197D098E099F09ECCF6938734151
:100440008105910564F080911E03882331F06CE7EB
:1004500071E083E693E00E948C09219741F6809138
:100460001E03882331F066EA71E083E693E00E9480
:100470007F0980911E03882339F04AE050E0612F04
:1004800083E693E00E94440A80911E03882371F062
:100490006FE671E083E693E0DF91CF911F910F91BA
:1004A000FF90EF90DF90CF900C948C09DF91CF916B
:1004B0001F910F91FF90EF90DF90CF900895CF9311
:1004C000DF93D62FC42F48E050E0682F82E30E94CC
:1004D000630148E050E06D2F81E30E94630148E032
:1004E00050E06C2F85E3DF91CF910C946301CF93A3
:1004F000DF93D62FC42F48E050E0682F82E40E949B
:10050000630148E050E06D2F81E40E94630148E000
:1005100050E06C2F85E4DF91CF910C946301CF9371
:10052000DF93D62FC42F48E050E0682F82E50E9469
:10053000630148E050E06D2F81E50E94630148E0CF
:1005400050E06C2F85E5DF91CF910C9463011F93F0
:10055000CF93DF93182FEB0160E0CE010E948E0055
:10056000812F0E94870061E0CE01DF91CF911F9122
:100570000C948E00CF9368E070E080EC0E94A7029C
:1005800068E070E08EE00E94C401C82F87FFF8CFBA
:1005900080911E03882331F06EEB71E083E693E0D7
:1005A0000E947F0980911E03882341F04AE050E0B9
:1005B0006C2F83E693E0CF910C944B0ACF91089572
:1005C00064E670E080E090E00E943A060E94BA0281
:1005D00064E670E080E090E00E943A060E947F01AD
:1005E00064E670E080E090E00E943A060E949C0180
:1005F00064E670E080E090E00E943A060E94AD015F
:1006000064E670E080E090E00E943A0660E080E0FE
:100610000E94EC0164E670E080E090E00E943A06FF
:1006200048E050E068E08FE00E94630164E670E01B
:1006300080E090E00C943A0640ED57E060E070E016
:1006400083E293E00E94280520E032EC41E050E094
:1006500063E673E083E293E00E943B0583E293E06C
:100660000E9425056CEE71E0809154039091550332
:100670000E947F096AE070E080E090E00E943A0604
:1006800041E060E083E293E00E94A60581E0809370
:10069000060310921E0361E087E00E94D80661E025
:1006A00088E00E94D80661E08AE00E94D80661E0F6
:1006B00087E00E94110761E088E00E94110761E075
:1006C0008AE00E94110780912103882399F09FB747
:1006D000F89480912103813059F48DB380931F03E6
:1006E0002DB380912003809582238DBB9FBF02C0D4
:1006F00090931F038DE58CBD1DBC0E94C7040E9412
:1007000057010E94E00247E060E081E00E945F0242
:1007100047E060E081E00E94770247E060E081E02E
:100720000E948F0264E670E080E090E00E943A064A
:100730000E940B06609307037093080380930903DC
:1007400090930A030E940B066093020370930303C5
:10075000809304039093050308958130910539F047
:100760008230910531F0892B29F421E803C022E879
:1007700001C024E868E070E0822F0C94A702CF93B8
:10078000DF93982F862FEA0148E050E0692F0E94FE
:100790006301CE010E94AD0361E070E080E090E073
:1007A000DF91CF910C943A060F931F93CF93DF9371
:1007B0000E949B00809100018823B1F0C5E8D2E03F
:1007C0000BE013E0699140E050E0F80181918F0166
:1007D0000E94BF03F2E0CC38DF07A1F710920001BE
:1007E00081E08093010133C0809101018823B1F041
:1007F000CDE7D2E00BE013E0699141E050E0F80171
:1008000081918F010E94BF03F2E0C438DF07A1F796
:100810001092010181E08093020119C080910201D0
:100820008823A9F0C5E7D2E00BE013E0699142E02C
:1008300050E0F80181918F010E94BF03F2E0CC37B4
:10084000DF07A1F71092020181E0809300016EEFB3
:1008500071E083E693E00E947F0968E070E08EE03B
:100860000E94C4014AE050E0682F83E693E00E94B2
:100870004B0A6DE072E083E693E00E947F0968E036
:1008800070E08FE00E94C4014AE050E0682F83E6E8
:1008900093E00E944B0A6CE172E083E693E00E94D1
:1008A0007F0968E070E08CE10E94C4014AE050E0FA
:1008B000682F83E693E00E944B0A67E272E083E6CA
:1008C00093E00E947F0968E070E08DE10E94C4011E
:1008D0004AE050E0682F83E693E00E944B0A62E30F
:1008E00072E083E693E00E947F0968E070E08DE2A9
:1008F0000E94C4014AE050E0682F83E693E00E9422
:100900004B0A6EE372E083E693E00E947F0968E0A1
:1009100070E080E30E94C4014AE050E0682F83E663
:1009200093E00E944B0A6EE472E083E693E00E943B
:100930007F0968E070E080E40E94C4014AE050E072
:10094000682F83E693E00E944B0A6EE572E083E62F
:1009500093E00E947F0968E070E080E50E94C40196
:100960004AE050E0682F83E693E00E944B0A6EE66F
:1009700072E083E693E00E948C0964E670E080E018
:1009800090E0DF91CF911F910F910C943A06CF9395
:10099000CFB7F89480912203811127C0EAE9F0E0F3
:1009A0008491E6E8F0E09491E82FF0E0EE0FFF1F6D
:1009B000E255FF4FA591B4918C91892321F461E018
:1009C0008AE00E94110761E08AE00E94D8068CB597
:1009D00080618CBD8CB580648CBD61E08DE00E942F
:1009E000D80661E08BE00E94D806809122038F5FD9
:1009F00080932203CFBFCF9108950F931F93CF937E
:100A0000DF93EC01662359F00E940B0669837A8319
:100A10008B839C83DF91CF911F910F9108950E944A
:100A20000B0609811A812B813C81601B710B820BA3
:100A3000930B623371058105910530F763E070E037
:100A400080E090E00E943A06EACF60E00C94FD045A
:100A5000FC0113AA14AA15AA16AA118212821382E3
:100A60001482411551056105710521F0CB01BA01D0
:100A70000C943A060895FB01BA01A901DC01D29653
:100A8000FC93EE93D19726E0CF010C942A081F9394
:100A9000CF93DF93EC01162F6DE872E089A99AA934
:100AA0000E947F094AE050E0612F89A99AA90E941B
:100AB000440A64E972E089A99AA90E947F0962E365
:100AC00070E080E090E0DF91CF911F910C943A06A6
:100AD0001F93CF93DF93EC01162F8D81882389F12B
:100AE00089A99AA9DC01ED91FC910480F581E02DA2
:100AF0000995892BA9F307C02637310519F1283547
:100B0000310509F41D8289A99AA9DC01ED91FC91B6
:100B10000480F581E02D09951816190694F489A929
:100B20009AA9DC01ED91FC910680F781E02D0995F1
:100B30009C01332723363105F9F6612FCE010E943F
:100B4000470583E6DF91CF911F9108950F931F937F
:100B5000CF93DF931F92CDB7DEB78C01662349F0A8
:100B600081E0F801858360E0C80149830E9468053F
:100B70004981F80145830F90DF91CF911F910F912B
:100B800008951F920F920FB60F9211242F933F9347
:100B90008F939F93AF93BF9380915B0390915C037E
:100BA000A0915D03B0915E0330915A0323E0230FBF
:100BB0002D3720F40196A11DB11D05C026E8230F95
:100BC0000296A11DB11D20935A0380935B0390935D
:100BD0005C03A0935D03B0935E0380915F039091EB
:100BE0006003A0916103B09162030196A11DB11D44
:100BF00080935F0390936003A0936103B0936203BB
:100C0000BF91AF919F918F913F912F910F900FBE08
:100C10000F901F9018952FB7F89460915B03709117
:100C20005C0380915D0390915E032FBF08953FB7F1
:100C3000F89480915F0390916003A0916103B0915B
:100C4000620326B5A89B05C02F3F19F00196A11D90
:100C5000B11D3FBF6627782F892F9A2F620F711D14
:100C6000811D911D42E0660F771F881F991F4A95CD
:100C7000D1F708958F929F92AF92BF92CF92DF9259
:100C8000EF92FF926B017C010E9417064B015C0101
:100C9000C114D104E104F104F1F00E945F0B0E9441
:100CA0001706681979098A099B09683E734081050E
:100CB000910570F321E0C21AD108E108F10888EE2D
:100CC000880E83E0981EA11CB11CC114D104E1045C
:100CD000F10429F7DDCFFF90EF90DF90CF90BF9028
:100CE000AF909F908F900895789484B5826084BD72
:100CF00084B5816084BD85B5826085BD85B5816020
:100D000085BDEEE6F0E0808181608083E1E8F0E07F
:100D10001082808182608083808181608083E0E8AE
:100D2000F0E0808181608083E1EBF0E0808184608D
:100D30008083E0EBF0E0808181608083EAE7F0E08F
:100D400080818460808380818260808380818160F3
:100D500080838081806880831092C10008958330F1
:100D600081F028F4813099F08230A1F00895873025
:100D7000A9F08830B9F08430D1F4809180008F7D63
:100D800003C0809180008F7780938000089584B5A0
:100D90008F7702C084B58F7D84BD08958091B000A7
:100DA0008F7703C08091B0008F7D8093B00008954D
:100DB000CF93DF9390E0FC01E458FF4F2491FC01B6
:100DC000E057FF4F8491882349F190E0880F991FE5
:100DD000FC01E255FF4FA591B4918C559F4FFC014A
:100DE000C591D4919FB7611108C0F8948C9120955A
:100DF00082238C93888182230AC0623051F4F89454
:100E00008C91322F309583238C938881822B888319
:100E100004C0F8948C91822B8C939FBFDF91CF916B
:100E200008950F931F93CF93DF931F92CDB7DEB733
:100E3000282F30E0F901E859FF4F8491F901E45877
:100E4000FF4F1491F901E057FF4F04910023C9F0BF
:100E5000882321F069830E94AF066981E02FF0E0CA
:100E6000EE0FFF1FEC55FF4FA591B4919FB7F8947B
:100E70008C91611103C01095812301C0812B8C934B
:100E80009FBF0F90DF91CF911F910F910895FC01AB
:100E9000818D228D90E0805C9F4F821B91098F7322
:100EA00099270895FC01918D828D981731F0828DDC
:100EB000E80FF11D858D90E008958FEF9FEF089565
:100EC000FC01918D828D981761F0828DDF01A80F52
:100ED000B11D5D968C91928D9F5F9F73928F90E074
:100EE00008958FEF9FEF089584EE98E0892B49F0E5
:100EF00080E090E0892B29F00E94E40881110C9495
:100F000000000895FC01848DDF01A80FB11DA35AD4
:100F1000BF4F2C91848D90E001968F739927848F19
:100F2000A689B7892C93A089B1898C9180648C9310
:100F3000938D848D981306C00288F389E02D8081FB
:100F40008F7D80830895CF93DF93EC01888D882374
:100F5000C9F0EA89FB89808185FD05C0A889B98926
:100F60008C9186FD0FC00FB607FCF5CF808185FF01
:100F7000F2CFA889B9898C9185FFEDCFCE010E946F
:100F80008207E7CFDF91CF910895CF92DF92FF9252
:100F90000F931F93CF93DF931F92CDB7DEB76C01F2
:100FA00081E0D60158968C9358975B969C915B97FD
:100FB0005C968C915C97981307C05096ED91FC91CC
:100FC0005197808185FD2EC0F601038D10E00F5FE3
:100FD0001F4F0F731127F02EF601848DF81211C0E8
:100FE0000FB607FCF9CFD6015096ED91FC915197C1
:100FF000808185FFF1CFC60169830E9482076981E4
:10100000EBCF838DE80FF11DE35AFF4F6083D601CC
:101010005B960C935B975296ED91FC915397808170
:1010200080620CC0D6015696ED91FC915797608373
:101030005096ED91FC91519780818064808381E08E
:1010400090E00F90DF91CF911F910F91FF90DF9073
:10105000CF900895BF92CF92DF92EF92FF92CF93FD
:10106000DF93EC016A017B01B22EE889F98982E005
:101070008083411581EE580761057105A1F060E09C
:1010800079E08DE390E0A70196010E947F0D215049
:1010900031094109510956954795379527952115ED
:1010A00080E1380798F0E889F989108260E874E8EF
:1010B0008EE190E0A70196010E947F0D2150310939
:1010C000410951095695479537952795EC85FD853A
:1010D0003083EE85FF852083188EEC89FD89B082F0
:1010E000EA89FB89808180618083EA89FB8980812C
:1010F00088608083EA89FB89808180688083EA89AF
:10110000FB8980818F7D8083DF91CF91FF90EF906D
:10111000DF90CF90BF9008951F920F920FB60F925D
:1011200011242F938F939F93EF93FF93E091730379
:10113000F09174038081E0917903F0917A0382FD4C
:1011400012C0908180917C038F5F8F7320917D030B
:10115000821751F0E0917C03F0E0ED59FC4F958F40
:1011600080937C0301C08081FF91EF919F918F91CB
:101170002F910F900FBE0F901F9018951F920F92F6
:101180000FB60F9211242F933F934F935F936F935A
:101190007F938F939F93AF93BF93EF93FF9383E6D8
:1011A00093E00E948207FF91EF91BF91AF919F91D1
:1011B0008F917F916F915F914F913F912F910F9000
:1011C0000FBE0F901F90189583E693E00E9447078B
:1011D00021E0892B09F420E0822F08951092660304
:1011E0001092650388EE93E0A0E0B0E0809367037F
:1011F00090936803A0936903B0936A0389EE92E029
:10120000909364038093630385EC90E09093700364
:1012100080936F0384EC90E090937203809371034A
:1012200080EC90E0909374038093730381EC90E0E2
:10123000909376038093750382EC90E0909378030B
:101240008093770386EC90E090937A038093790300
:1012500010927C0310927D0310927E0310927F0304
:10126000089508950E9474060E9431090E941C038B
:10127000C4E7D7E00E94D4032097E1F30E947407EB
:10128000F9CFCF92DF92EF92FF920F931F93CF93FC
:10129000DF937C016A01EB0100E010E00C151D05F5
:1012A00071F06991D701ED91FC910190F081E02DF1
:1012B000C7010995892B19F00F5F1F4FEFCFC801A8
:1012C000DF91CF911F910F91FF90EF90DF90CF9022
:1012D00008956115710581F0DB010D900020E9F79B
:1012E000AD0141505109461B570BDC01ED91FC91BA
:1012F0000280F381E02D099480E090E008950C9441
:101300006909DC01ED91FC910190F081E02D0994D7
:101310006AE972E00C9469090F931F93CF93DF93EE
:10132000EC010E9469098C01CE010E948809800F9E
:10133000911FDF91CF911F910F9108958F929F92EE
:10134000AF92BF92DF92EF92FF920F931F93CF93D2
:10135000DF93CDB7DEB7A1970FB6F894DEBF0FBE0F
:10136000CDBF7C01F42FD52ECB0119A2223008F479
:101370002AE08E010F5D1F4F822E912CA12CB12CE3
:101380006F2F7D2DA50194010E947F0DF22FD32E8A
:10139000CA01015011096A3014F4E0E301C0E7E327
:1013A000E60FD801EC93232B242B252B49F7B8010A
:1013B000C7010E946909A1960FB6F894DEBF0FBE5F
:1013C000CDBFDF91CF911F910F91FF90EF90DF90F4
:1013D000BF90AF909F908F900895CF92DF92EF9241
:1013E000FF920F931F93CF93DF93EC016A017B0170
:1013F0002115310579F4E881F9810190F081E02D22
:10140000642FDF91CF911F910F91FF90EF90DF90AC
:10141000CF9009942A303105E9F477FF1AC06DE2C4
:101420000E9481098C0144275527BA014C195D0996
:101430006E097F092AE0CE010E949E09800F911F4C
:10144000DF91CF911F910F91FF90EF90DF90CF90A0
:1014500008952AE0B701A601CE01DF91CF911F9137
:101460000F91FF90EF90DF90CF900C949E09211583
:10147000310541F4DC01ED91FC910190F081E02D0A
:10148000642F09940C949E099A01462F50E060E065
:1014900070E00C94370A0F931F93CF93DF93EC0106
:1014A0009A01462F50E060E070E00E94370A8C01FC
:1014B000CE010E948809800F911FDF91CF911F916B
:1014C0000F9108954F925F926F927F928F929F92A9
:1014D000AF92BF92CF92DF92EF92FF920F931F9342
:1014E000CF93DF93EC016A017B01B22E9A01AB012D
:1014F000C701B6010E947B0D882319F065EF72E0E9
:1015000027C026013701E89477F82FEF3FEF4FE728
:101510005FE7C301B2010E947B0D81110DC02FEF67
:101520003FEF4FE75FE7C301B2010E94C50B1816FA
:101530001CF469EF72E00CC02FEF3FEF4FE75FE460
:10154000C701B6010E94140D1816ACF46DEF72E0DD
:10155000CE01DF91CF911F910F91FF90EF90DF901F
:10156000CF90BF90AF909F908F907F906F905F9043
:101570004F900C9469092FEF3FEF4FE75FECC701E5
:10158000B6010E94C50B87FDE1CF20E030E0A90144
:10159000C701B6010E94C50B87FF0AC06DE2CE01EC
:1015A0000E9481098C01F7FAF094F7F8F09402C0D8
:1015B00000E010E0A12C60E070E080E09FE3AB145D
:1015C00041F020E030E040E251E40E94C90BA394D6
:1015D000F6CF9B01AC01C701B6010E94610B6B0104
:1015E0007C010E94360C2B013C010E94620C9B0185
:1015F000AC01C701B6010E94600B6B017C012AE0BF
:10160000B301A201CE010E949E09080F191FBB2041
:1016100039F064EA71E0CE010E946909080F191FD0
:101620007B2C772041F120E030E040E251E4C7011B
:10163000B6010E94180D6B017C010E94310C4B0118
:10164000AA2497FCA094BA2C2AE030E0B501A401AA
:10165000CE010E94ED09080F191FC501B4010E94B7
:10166000640C9B01AC01C701B6010E94600B6B01C9
:101670007C017A94D6CFC801DF91CF911F910F9151
:10168000FF90EF90DF90CF90BF90AF909F908F90A2
:101690007F906F905F904F9008950F931F93CF931B
:1016A000DF93EC010E94620A8C01CE010E9488093E
:1016B000800F911FDF91CF911F910F910895089591
:1016C0005058BB27AA270ED075C166D130F06BD118
:1016D00020F031F49F3F11F41EF45BC10EF4E0954D
:1016E000E7FB51C1E92F77D180F3BA17620773077F
:1016F0008407950718F071F49EF58FC10EF4E095FC
:101700000B2EBA2FA02D0B01B90190010C01CA01BB
:10171000A0011124FF27591B99F0593F50F4503E66
:1017200068F11A16F040A22F232F342F4427585F58
:10173000F3CF469537952795A795F0405395C9F770
:101740007EF41F16BA0B620B730B840BBAF0915028
:10175000A1F0FF0FBB1F661F771F881FC2F70EC0C7
:10176000BA0F621F731F841F48F48795779567959A
:10177000B795F7959E3F08F0B3CF9395880F08F083
:101780009927EE0F979587950895D9D008F481E0B1
:1017900008950CD00FC107D140F0FED030F021F4F5
:1017A0005F3F19F0F0C0511139C1F3C014D198F363
:1017B0009923C9F35523B1F3951B550BBB27AA27D2
:1017C00062177307840738F09F5F5F4F220F331F44
:1017D000441FAA1FA9F333D00E2E3AF0E0E830D010
:1017E00091505040E695001CCAF729D0FE2F27D013
:1017F000660F771F881FBB1F261737074807AB07E1
:10180000B0E809F0BB0B802DBF01FF2793585F4F55
:101810002AF09E3F510568F0B6C000C15F3FECF36F
:10182000983EDCF3869577956795B795F7959F5F1A
:10183000C9F7880F911D9695879597F90895E1E06E
:10184000660F771F881FBB1F621773078407BA07CD
:1018500020F0621B730B840BBA0BEE1F88F7E09528
:10186000089504D06894B111D9C00895BCD088F00F
:101870009F5790F0B92F9927B751A0F0D1F0660F7C
:10188000771F881F991F1AF0BA95C9F712C0B13097
:1018900081F0C3D0B1E00895C0C0672F782F8827AA
:1018A000B85F39F0B93FCCF3869577956795B395D6
:1018B000D9F73EF490958095709561957F4F8F4F45
:1018C0009F4F0895E89409C097FB3EF4909580954A
:1018D000709561957F4F8F4F9F4F9923A9F0F92FF6
:1018E00096E9BB279395F695879577956795B79574
:1018F000F111F8CFFAF4BB0F11F460FF1BC06F5F5A
:101900007F4F8F4F9F4F16C0882311F096E911C06B
:10191000772321F09EE8872F762F05C0662371F08C
:1019200096E8862F70E060E02AF09A95660F771FA0
:10193000881FDAF7880F9695879597F90895990F7C
:101940000008550FAA0BE0E8FEEF16161706E80789
:10195000F907C0F012161306E407F50798F0621BAA
:10196000730B840B950B39F40A2661F0232B242B7F
:10197000252B21F408950A2609F4A140A6958FEF9E
:10198000811D811D089597F99F6780E870E060E0F0
:1019900008959FEF80EC089500240A941616170608
:1019A00018060906089500240A9412161306140650
:1019B00005060895092E0394000C11F4882352F0B3
:1019C000BB0F40F4BF2B11F460FF04C06F5F7F4F6B
:1019D0008F4F9F4F089557FD9058440F551F59F052
:1019E0005F3F71F04795880F97FB991F61F09F3F0C
:1019F00079F087950895121613061406551FF2CF35
:101A00004695F1DF08C0161617061806991FF1CF84
:101A100086957105610508940895E894BB276627AB
:101A20007727CB0197F908958ADF08F48FEF08959F
:101A30000BD0C0CFB1DF28F0B6DF18F0952309F046
:101A4000A2CFA7CF1124EACFC6DFA0F3959FD1F391
:101A5000950F50E0551F629FF001729FBB27F00D5C
:101A6000B11D639FAA27F00DB11DAA1F649F6627B1
:101A7000B00DA11D661F829F2227B00DA11D621F00
:101A8000739FB00DA11D621F839FA00D611D221FBA
:101A9000749F3327A00D611D231F849F600D211D9E
:101AA000822F762F6A2F11249F5750408AF0E1F041
:101AB00088234AF0EE0FFF1FBB1F661F771F881F8A
:101AC00091505040A9F79E3F510570F05CCFA6CFD2
:101AD0005F3FECF3983EDCF3869577956795B79575
:101AE000F795E7959F5FC1F7FE2B880F911D96959F
:101AF000879597F9089523DF880B990B0895A1E244
:101B00001A2EAA1BBB1BFD010DC0AA1FBB1FEE1F77
:101B1000FF1FA217B307E407F50720F0A21BB30BC2
:101B2000E40BF50B661F771F881F991F1A9469F73E
:101B300060957095809590959B01AC01BD01CF019A
:101B40000895EE0FFF1F0590F491E02D0994F8948D
:021B5000FFCFC5
:101B52000100004D63703235313520636F6E666966
:101B6200677572652062757320737563636573664A
:101B7200756C6C79004D63703235313520636F6E50
:101B820066696775726520696E74657272757074C4
:101B9200732073756363657366756C6C79004D634E
:101BA200703235313520636F6E66696775726520F4
:101BB2006D61736B73202F2066696C74657273207C
:101BC20073756363657366756C6C790041626F72DD
:101BD200742077616974696E672E204D61782E20BA
:101BE20077616974696E672074696D6520726561D9
:101BF200636865642E004D6370323531352073772A
:101C02006974636820746F206D6F646520004D6392
:101C12007032353135207265736574207375636374
:101C2200657366756C6C7920616E64207377697474
:101C3200636820646F206D6F64652000564D4450C8
:101C4200565F317C315F564D4450560D0A002D2DA2
:101C52002D2043414E535441542D2D2D002D2D2D19
:101C62002043414E4354524C2D2D2D002D2D2D201D
:101C72005445432D2D2D002D2D2D205245432D2D24
:101C82002D002D2D2D2045464C472D2D2D002D2D7F
:101C92002D20545842304354524C2D2D2D002D2DC1
:101CA2002D20545842314354524C2D2D2D002D2DB0
:101CB2002D20545842324354524C2D2D2D002D2D9F
:101CC2002D2D2D2D00565758595A5B5C5D464748BD
:101CD200494A4B4C4D363738393A3B3C3D564D44D8
:101CE20050435F005F564D4450430D0A00457272E7
:101CF2006F723A20417474656D707420746F207332
:101D02006574206120726561642D6F6E6C79207636
:101D120061726961626C65206F7220646174612016
:101D220074797065206E6F7420737570706F727441
:101D320065640D0A0000000000C5074109470760FD
:101D4200075207A3076E616E00696E66006F7666C2
:021D520000008F
:00000001FF
