:100000000C945D000C9485000C9485000C94850084
:100010000C9485000C9485000C9485000C9485004C
:100020000C9485000C9485000C9485000C9485003C
:100030000C9485000C9485000C9485000C9485002C
:100040000C94FF040C9485000C94CA070C94FC07D4
:100050000C9485000C9485000C9485000C9485000C
:100060000C9485000C94850000000008000201003B
:100070000003040700000000000000000102040863
:100080001020408001020408102001020408102002
:10009000040404040404040402020202020203032E
:1000A0000303030300000000250028002B000000CC
:1000B0000000240027002A002C0811241FBECFEFC7
:1000C000D8E0DEBFCDBF12E0A0E0B1E0EEECF9E198
:1000D00002C005900D92A23BB107D9F723E0A2EB35
:1000E000B2E001C01D92AB3AB207E1F710E0CAEBF3
:1000F000D0E004C02297FE010E94E10CC83BD1076A
:10010000C9F70E9470080C94E50C0C9400008EBD99
:1001100000000DB407FEFDCF8EB50895CF93DF9399
:10012000D82FC62F8AE00E944F066C2F8D2FDF91AB
:10013000CF910C944F06CF92DF92EF92FF920F93E4
:100140001F93CF93DF9360E087E090E00E948E00E2
:1001500082EF0E948700C3ECD2E080E00E9487001B
:10016000899382E0C93CD807C1F761E087E090E05D
:100170000E948E001092C9028091B602882309F471
:1001800072C06091C3027091C4020091C5021091C7
:10019000C6028091C702C82F8091C802D82F882735
:1001A00077FD8095982F0E94A20B20E030E040E080
:1001B0005CE30E94560C6B017C016093B702709364
:1001C000B8028093B9029093BA02B801882777FDEC
:1001D0008095982F0E94A20B20E030E040E05CE385
:1001E0000E94560C6093BB027093BC028093BD02C8
:1001F0009093BE02BE01882777FD8095982F0E94BC
:10020000A20B20E030E040E05CE30E94560C6093DB
:10021000BF027093C0028093C1029093C20222E099
:1002200030E0B701A6018EE093E00E948B0A409176
:10023000BB025091BC026091BD027091BE0222E0EF
:1002400030E08EE093E00E948B0A4091BF02509113
:10025000C0026091C1027091C20222E030E08EE0E3
:1002600093E00E948B0A81E0DF91CF911F910F9163
:10027000FF90EF90DF90CF9008950F931F93CF934F
:10028000DF93082F162FEA0160E0CA010E948E005A
:10029000802F0E948700812F0E94870061E0CE019D
:1002A0000E948E0061E070E080E090E0DF91CF91ED
:1002B0001F910F910C94780547E050E061E081E3D5
:1002C0000E943D0147E050E068E08DE20C943D0162
:1002D0000F931F93CF93DF93082F162FEA0160E04F
:1002E000CA010E948E0082E00E948700802F0E9437
:1002F0008700812F0E94870061E0CE010E948E005E
:1003000061E070E080E090E0DF91CF911F910F916C
:100310000C947805CF93DF93D62FC42F48E050E09C
:10032000682F82E30E94680148E050E06D2F81E36E
:100330000E94680148E050E06C2F85E3DF91CF9187
:100340000C946801CF93DF93D62FC42F48E050E080
:10035000682F82E40E94680148E050E06D2F81E43C
:100360000E94680148E050E06C2F85E4DF91CF9156
:100370000C946801CF93DF93D62FC42F48E050E050
:10038000682F82E50E94680148E050E06D2F81E50A
:100390000E94680148E050E06C2F85E5DF91CF9125
:1003A0000C94680148E050E063E08AE20E94680132
:1003B00048E050E060E989E20E94680148E050E0CE
:1003C00062E088E20E9468018091B602882331F0E1
:1003D00063E071E08EE093E00C94CA08089548E071
:1003E00050E060E08BE20E9468018091B6028823B1
:1003F00031F065E271E08EE093E00C94CA08089554
:100400001F93CF93DF93182FEB0160E0CE010E9482
:100410008E0083E00E948700812F0E94870080E089
:100420000E948700182F61E0CE010E948E0061E0DB
:1004300070E080E090E00E94780548E050E060E0E5
:100440008CE20E946801812FDF91CF911F91089566
:10045000CF92DF92EF92FF920F931F93CF93DF9390
:10046000062FC3E0D0E048E050E0602F8FE00E940C
:10047000680168E070E08EE00E940002182F0E9480
:1004800049056B017C0160E070E0CB01101791F031
:10049000693873418105910594F468E070E08EE05D
:1004A0000E940002182F0E9449056C197D098E09CF
:1004B0009F09ECCF693873418105910564F0809103
:1004C000B602882331F066E771E08EE093E00E9487
:1004D000CA08219741F68091B602882331F060EA7C
:1004E00071E08EE093E00E94BD088091B6028823FF
:1004F00039F04AE050E0612F8EE093E00E948209DB
:100500008091B602882371F069E671E08EE093E095
:10051000DF91CF911F910F91FF90EF90DF90CF90DF
:100520000C94CA08DF91CF911F910F91FF90EF902B
:10053000DF90CF9008951F93CF93DF93182FEB0197
:1005400060E0CE010E948E00812F0E94870061E052
:10055000CE010E948E0061E070E080E090E0DF91CB
:10056000CF911F910C947805CF9368E070E080ECF8
:100570000E949B0268E070E08EE00E940002C82F9B
:1005800087FFF8CF8091B602882331F068EB71E0E5
:100590008EE093E00E94BD088091B602882341F06E
:1005A0004AE050E06C2F8EE093E0CF910C948909E3
:1005B000CF9108950E94B4020E94D2010E94EF01DF
:1005C0008091B602882331F066EE71E08EE093E010
:1005D0000E94CA0860E080E00C94280240ED57E0D9
:1005E00060E070E08EEC92E00E94660420E032EC65
:1005F00041E050E06EE073E08EEC92E00E947904FE
:100600008EEC92E00E94630464E172E08091FF024C
:10061000909100030E94BD086AE070E080E090E0E5
:100620000E94780541E060E08EEC92E00E94E404D4
:100630001092B60261E087E00E94160661E088E051
:100640000E94160661E08AE00E94160661E087E0DB
:100650000E944F0661E088E00E944F0661E08AE058
:100660000E944F068091CC02882399F09FB7F8949E
:100670008091CC02813059F48DB38093CA022DB39E
:100680008091CB02809582238DBB9FBF02C0909347
:10069000CA028CE58CBD1DBC0E9405040E945C0151
:1006A0000E94DA0247E060E080E00E948A0147E0B1
:1006B00060E080E00E94A20147E060E080E00E94EC
:1006C000BA0164E670E080E090E00E9478050E9444
:1006D00049056093B2027093B3028093B402909381
:1006E000B50208958130910539F08230910531F0DD
:1006F000892B29F421E803C022E801C024E868E03E
:1007000070E0822F0C949B020F931F93CF93DF9383
:10071000EB0190910001992379F0FB01EA5CFD4F18
:100720001081415051096417750759F51092000165
:1007300091E09093010125C090910101992379F0F6
:10074000FB01E25DFD4F10814150510964177507AF
:10075000C1F41092010191E09093020112C09091B6
:100760000201992371F0FB01EA5DFD4F10814150B8
:1007700051096417750729F41092020191E09093D2
:10078000000148E050E0682F812F0E946801269701
:1007900061F468E070E0812F0E9400024AE050E0BE
:1007A000682F8EE093E00E94890900E011E0C0E02C
:1007B000D0E0F80181918F01882319F0CE010E94C9
:1007C00072032196C330D105A1F7DF91CF911F911C
:1007D0000F9108950F931F93CF93DF930E949B0077
:1007E00003EC12E0C0E0D0E047E050E0BE01F801C9
:1007F00081918F010E9484032196C730D105A1F712
:10080000DF91CF911F910F910895CF93CFB7F894B7
:100810008091CD02811127C0EAE9F0E08491E6E8F9
:10082000F0E09491E82FF0E0EE0FFF1FE255FF4F4C
:10083000A591B4918C91892321F461E08AE00E9412
:100840004F0661E08AE00E9416068CB580618CBD7F
:100850008CB580648CBD61E08DE00E94160661E07D
:100860008BE00E9416068091CD028F5F8093CD02AF
:10087000CFBFCF9108950F931F93CF93DF93EC01D8
:10088000662359F00E94490569837A838B839C8390
:10089000DF91CF911F910F9108950E944905098121
:1008A0001A812B813C81601B710B820B930B62338D
:1008B00071058105910530F763E070E080E090E01C
:1008C0000E947805EACF60E00C943B04FC0113AA77
:1008D00014AA15AA16AA1182128213821482411533
:1008E00051056105710521F0CB01BA010C94780521
:1008F0000895FB01BA01A901DC01D296FC93EE93A5
:10090000D19726E0CF010C9468071F93CF93DF9314
:10091000EC01162F6EE372E089A99AA90E94BD0826
:100920004AE050E0612F89A99AA90E94820965E4F2
:1009300072E089A99AA90E94BD0862E370E080E094
:1009400090E0DF91CF911F910C9478051F93CF9386
:10095000DF93EC01162F8D81882389F189A99AA94B
:10096000DC01ED91FC910480F581E02D0995892B46
:10097000A9F307C02637310519F12835310509F4E7
:100980001D8289A99AA9DC01ED91FC910480F58171
:10099000E02D09951816190694F489A99AA9DC0185
:1009A000ED91FC910680F781E02D09959C0133279C
:1009B00023363105F9F6612FCE010E94850483E6C6
:1009C000DF91CF911F9108950F931F93CF93DF93E2
:1009D0001F92CDB7DEB78C01662349F081E0F801A4
:1009E000858360E0C80149830E94A6044981F8011B
:1009F00045830F90DF91CF911F910F9108951F9222
:100A00000F920FB60F9211242F933F938F939F93C2
:100A1000AF93BF938091060390910703A0910803C1
:100A2000B09109033091050323E0230F2D3720F403
:100A30000196A11DB11D05C026E8230F0296A11D38
:100A4000B11D209305038093060390930703A093A1
:100A50000803B093090380910A0390910B03A091BE
:100A60000C03B0910D030196A11DB11D80930A03E3
:100A700090930B03A0930C03B0930D03BF91AF9120
:100A80009F918F913F912F910F900FBE0F901F90CC
:100A900018952FB7F8946091060370910703809121
:100AA0000803909109032FBF08953FB7F8948091F0
:100AB0000A0390910B03A0910C03B0910D0326B58E
:100AC000A89B05C02F3F19F00196A11DB11D3FBF86
:100AD0006627782F892F9A2F620F711D811D911D16
:100AE00042E0660F771F881F991F4A95D1F7089536
:100AF0008F929F92AF92BF92CF92DF92EF92FF922E
:100B00006B017C010E9455054B015C01C114D104AD
:100B1000E104F104F1F00E949D0A0E945505681954
:100B200079098A099B09683E73408105910570F334
:100B300021E0C21AD108E108F10888EE880E83E0AE
:100B4000981EA11CB11CC114D104E104F10429F7C1
:100B5000DDCFFF90EF90DF90CF90BF90AF909F9050
:100B60008F900895789484B5826084BD84B5816047
:100B700084BD85B5826085BD85B5816085BDEEE6A5
:100B8000F0E0808181608083E1E8F0E01082808184
:100B900082608083808181608083E0E8F0E08081F2
:100BA00081608083E1EBF0E0808184608083E0EB12
:100BB000F0E0808181608083EAE7F0E080818460FA
:100BC0008083808182608083808181608083808156
:100BD000806880831092C1000895833081F028F4EA
:100BE000813099F08230A1F008958730A9F08830E3
:100BF000B9F08430D1F4809180008F7D03C0809162
:100C000080008F7780938000089584B58F7702C02D
:100C100084B58F7D84BD08958091B0008F7703C027
:100C20008091B0008F7D8093B0000895CF93DF93C3
:100C300090E0FC01E458FF4F2491FC01E057FF4F86
:100C40008491882349F190E0880F991FFC01E255B7
:100C5000FF4FA591B4918C559F4FFC01C591D49144
:100C60009FB7611108C0F8948C91209582238C93D2
:100C7000888182230AC0623051F4F8948C91322F1B
:100C8000309583238C938881822B888304C0F894C9
:100C90008C91822B8C939FBFDF91CF9108950F93FE
:100CA0001F93CF93DF931F92CDB7DEB7282F30E08D
:100CB000F901E859FF4F8491F901E458FF4F14916D
:100CC000F901E057FF4F04910023C9F0882321F078
:100CD00069830E94ED056981E02FF0E0EE0FFF1FB0
:100CE000EC55FF4FA591B4919FB7F8948C91611189
:100CF00003C01095812301C0812B8C939FBF0F905F
:100D0000DF91CF911F910F910895FC01818D228D6C
:100D100090E0805C9F4F821B91098F739927089503
:100D2000FC01918D828D981731F0828DE80FF11DB5
:100D3000858D90E008958FEF9FEF0895FC01918DD0
:100D4000828D981761F0828DDF01A80FB11D5D962D
:100D50008C91928D9F5F9F73928F90E008958FEF9B
:100D60009FEF089582E298E0892B49F080E090E0BF
:100D7000892B29F00E94220881110C94000008950B
:100D8000FC01848DDF01A80FB11DA35ABF4F2C9128
:100D9000848D90E001968F739927848FA689B789F7
:100DA0002C93A089B1898C9180648C93938D848DD0
:100DB000981306C00288F389E02D80818F7D80839F
:100DC0000895CF93DF93EC01888D8823C9F0EA89D9
:100DD000FB89808185FD05C0A889B9898C9186FD34
:100DE0000FC00FB607FCF5CF808185FFF2CFA88931
:100DF000B9898C9185FFEDCFCE010E94C006E7CF67
:100E0000DF91CF910895CF92DF92FF920F931F93BE
:100E1000CF93DF931F92CDB7DEB76C0181E0D6018F
:100E200058968C9358975B969C915B975C968C91A7
:100E30005C97981307C05096ED91FC915197808173
:100E400085FD2EC0F601038D10E00F5F1F4F0F735D
:100E50001127F02EF601848DF81211C00FB607FC91
:100E6000F9CFD6015096ED91FC915197808185FF85
:100E7000F1CFC60169830E94C0066981EBCF838DE3
:100E8000E80FF11DE35AFF4F6083D6015B960C9388
:100E90005B975296ED91FC915397808180620CC0D4
:100EA000D6015696ED91FC91579760835096ED913F
:100EB000FC91519780818064808381E090E00F9065
:100EC000DF91CF911F910F91FF90DF90CF90089508
:100ED000BF92CF92DF92EF92FF92CF93DF93EC011C
:100EE0006A017B01B22EE889F98982E0808341158D
:100EF00081EE580761057105A1F060E079E08DE3AE
:100F000090E0A70196010E94BD0C215031094109D2
:100F100051095695479537952795211580E1380752
:100F200098F0E889F989108260E874E88EE190E031
:100F3000A70196010E94BD0C2150310941095109B8
:100F40005695479537952795EC85FD853083EE8539
:100F5000FF852083188EEC89FD89B082EA89FB89A0
:100F6000808180618083EA89FB89808188608083B9
:100F7000EA89FB89808180688083EA89FB89808196
:100F80008F7D8083DF91CF91FF90EF90DF90CF90A6
:100F9000BF9008951F920F920FB60F9211242F93B6
:100FA0008F939F93EF93FF93E0911E03F0911F03A4
:100FB0008081E0912403F091250382FD12C090818D
:100FC000809127038F5F8F7320912803821751F040
:100FD000E0912703F0E0E25FFC4F958F80932703B9
:100FE00001C08081FF91EF919F918F912F910F9080
:100FF0000FBE0F901F9018951F920F920FB60F9271
:1010000011242F933F934F935F936F937F938F930D
:101010009F93AF93BF93EF93FF938EE093E00E9473
:10102000C006FF91EF91BF91AF919F918F917F91FA
:101030006F915F914F913F912F910F900FBE0F9045
:101040001F9018958EE093E00E94850621E0892B81
:1010500009F420E0822F08951092110310921003DA
:1010600088EE93E0A0E0B0E0809312039093130326
:10107000A0931403B09315038AE992E090930F03B1
:1010800080930E0385EC90E090931B0380931A03EA
:1010900084EC90E090931D0380931C0380EC90E01F
:1010A00090931F0380931E0381EC90E090932103A3
:1010B0008093200382EC90E090932303809322039B
:1010C00086EC90E0909325038093240310922703ED
:1010D000109228031092290310922A03089508956C
:1010E0000E94B2050E946F080E94EE02C2EBD6E099
:1010F0000E94EA032097E1F30E94B206F9CFCF9253
:10110000DF92EF92FF920F931F93CF93DF937C01B7
:101110006A01EB0100E010E00C151D0571F069910A
:10112000D701ED91FC910190F081E02DC701099567
:10113000892B19F00F5F1F4FEFCFC801DF91CF91BF
:101140001F910F91FF90EF90DF90CF900895611560
:10115000710581F0DB010D900020E9F7AD014150F0
:101160005109461B570BDC01ED91FC910280F38184
:10117000E02D099480E090E008950C94A708DC012C
:10118000ED91FC910190F081E02D09946BE472E007
:101190000C94A7080F931F93CF93DF93EC010E9449
:1011A000A7088C01CE010E94C608800F911FDF9115
:1011B000CF911F910F9108958F929F92AF92BF92FE
:1011C000DF92EF92FF920F931F93CF93DF93CDB7F0
:1011D000DEB7A1970FB6F894DEBF0FBECDBF7C017E
:1011E000F42FD52ECB0119A2223008F42AE08E016B
:1011F0000F5D1F4F822E912CA12CB12C6F2F7D2DB6
:10120000A50194010E94BD0CF22FD32ECA010150FA
:1012100011096A3014F4E0E301C0E7E3E60FD801F6
:10122000EC93232B242B252B49F7B801C7010E94EF
:10123000A708A1960FB6F894DEBF0FBECDBFDF9111
:10124000CF911F910F91FF90EF90DF90BF90AF90E3
:101250009F908F900895CF92DF92EF92FF920F931D
:101260001F93CF93DF93EC016A017B0121153105B8
:1012700079F4E881F9810190F081E02D642FDF910C
:10128000CF911F910F91FF90EF90DF90CF90099435
:101290002A303105E9F477FF1AC06DE20E94BF08D9
:1012A0008C0144275527BA014C195D096E097F0945
:1012B0002AE0CE010E94DC08800F911FDF91CF91C0
:1012C0001F910F91FF90EF90DF90CF9008952AE04B
:1012D000B701A601CE01DF91CF911F910F91FF9031
:1012E000EF90DF90CF900C94DC082115310541F48C
:1012F000DC01ED91FC910190F081E02D642F0994C7
:101300000C94DC089A01462F50E060E070E00C94E9
:1013100075090F931F93CF93DF93EC019A01462F2A
:1013200050E060E070E00E9475098C01CE010E94DF
:10133000C608800F911FDF91CF911F910F910895E3
:101340004F925F926F927F928F929F92AF92BF92D5
:10135000CF92DF92EF92FF920F931F93CF93DF9381
:10136000EC016A017B01B22E9A01AB01C701B60103
:101370000E94B90C882319F066EA72E027C02601A2
:101380003701E89477F82FEF3FEF4FE75FE7C301AE
:10139000B2010E94B90C81110DC02FEF3FEF4FE752
:1013A0005FE7C301B2010E94030B18161CF46AEA3E
:1013B00072E00CC02FEF3FEF4FE75FE4C701B601CB
:1013C0000E94520C1816ACF46EEA72E0CE01DF9166
:1013D000CF911F910F91FF90EF90DF90CF90BF9032
:1013E000AF909F908F907F906F905F904F900C94F4
:1013F000A7082FEF3FEF4FE75FECC701B6010E9450
:10140000030B87FDE1CF20E030E0A901C701B60161
:101410000E94030B87FF0AC06DE2CE010E94BF0845
:101420008C01F7FAF094F7F8F09402C000E010E0B5
:10143000A12C60E070E080E09FE3AB1441F020E07D
:1014400030E040E251E40E94070BA394F6CF9B01E9
:10145000AC01C701B6010E949F0A6B017C010E948A
:10146000740B2B013C010E94A00B9B01AC01C70136
:10147000B6010E949E0A6B017C012AE0B301A20121
:10148000CE010E94DC08080F191FBB2039F06EE95D
:1014900071E0CE010E94A708080F191F7B2C77204E
:1014A00041F120E030E040E251E4C701B6010E9482
:1014B000560C6B017C010E946F0B4B01AA2497FC18
:1014C000A094BA2C2AE030E0B501A401CE010E941C
:1014D0002B09080F191FC501B4010E94A20B9B0123
:1014E000AC01C701B6010E949E0A6B017C017A948F
:1014F000D6CFC801DF91CF911F910F91FF90EF9050
:10150000DF90CF90BF90AF909F908F907F906F9023
:101510005F904F9008950F931F93CF93DF93EC014B
:101520000E94A0098C01CE010E94C608800F911F65
:10153000DF91CF911F910F91089508955058BB27C7
:10154000AA270ED075C166D130F06BD120F031F4EE
:101550009F3F11F41EF45BC10EF4E095E7FB51C10F
:10156000E92F77D180F3BA176207730784079507CD
:1015700018F071F49EF58FC10EF4E0950B2EBA2F82
:10158000A02D0B01B90190010C01CA01A001112489
:10159000FF27591B99F0593F50F4503E68F11A1635
:1015A000F040A22F232F342F4427585FF3CF4695C6
:1015B00037952795A795F0405395C9F77EF41F16E8
:1015C000BA0B620B730B840BBAF09150A1F0FF0FB2
:1015D000BB1F661F771F881FC2F70EC0BA0F621F9E
:1015E000731F841F48F4879577956795B795F7958E
:1015F0009E3F08F0B3CF9395880F08F09927EE0F20
:10160000979587950895D9D008F481E008950CD076
:101610000FC107D140F0FED030F021F45F3F19F048
:10162000F0C0511139C1F3C014D198F39923C9F313
:101630005523B1F3951B550BBB27AA2762177307D8
:10164000840738F09F5F5F4F220F331F441FAA1F8C
:10165000A9F333D00E2E3AF0E0E830D0915050404C
:10166000E695001CCAF729D0FE2F27D0660F771FFA
:10167000881FBB1F261737074807AB07B0E809F0DC
:10168000BB0B802DBF01FF2793585F4F2AF09E3F71
:10169000510568F0B6C000C15F3FECF3983EDCF343
:1016A000869577956795B795F7959F5FC9F7880FEA
:1016B000911D9695879597F90895E1E0660F771F3C
:1016C000881FBB1F621773078407BA0720F0621BCD
:1016D000730B840BBA0BEE1F88F7E095089504D0C6
:1016E0006894B111D9C00895BCD088F09F5790F08C
:1016F000B92F9927B751A0F0D1F0660F771F881F37
:10170000991F1AF0BA95C9F712C0B13081F0C3D051
:10171000B1E00895C0C0672F782F8827B85F39F0EF
:10172000B93FCCF3869577956795B395D9F73EF495
:1017300090958095709561957F4F8F4F9F4F08953D
:10174000E89409C097FB3EF490958095709561955B
:101750007F4F8F4F9F4F9923A9F0F92F96E9BB2711
:101760009395F695879577956795B795F111F8CF8D
:10177000FAF4BB0F11F460FF1BC06F5F7F4F8F4FF8
:101780009F4F16C0882311F096E911C0772321F0EE
:101790009EE8872F762F05C0662371F096E8862F86
:1017A00070E060E02AF09A95660F771F881FDAF7DD
:1017B000880F9695879597F90895990F0008550F0A
:1017C000AA0BE0E8FEEF16161706E807F907C0F0C7
:1017D00012161306E407F50798F0621B730B840BCF
:1017E000950B39F40A2661F0232B242B252B21F4A9
:1017F00008950A2609F4A140A6958FEF811D811D49
:10180000089597F99F6780E870E060E008959FEF82
:1018100080EC089500240A94161617061806090687
:10182000089500240A941216130614060506089556
:10183000092E0394000C11F4882352F0BB0F40F4DE
:10184000BF2B11F460FF04C06F5F7F4F8F4F9F4F1E
:10185000089557FD9058440F551F59F05F3F71F0A0
:101860004795880F97FB991F61F09F3F79F0879507
:101870000895121613061406551FF2CF4695F1DF90
:1018800008C0161617061806991FF1CF8695710520
:10189000610508940895E894BB2766277727CB0154
:1018A00097F908958ADF08F48FEF08950BD0C0CF21
:1018B000B1DF28F0B6DF18F0952309F0A2CFA7CF4B
:1018C0001124EACFC6DFA0F3959FD1F3950F50E026
:1018D000551F629FF001729FBB27F00DB11D639FE2
:1018E000AA27F00DB11DAA1F649F6627B00DA11D88
:1018F000661F829F2227B00DA11D621F739FB00D2E
:10190000A11D621F839FA00D611D221F749F33279D
:10191000A00D611D231F849F600D211D822F762F36
:101920006A2F11249F5750408AF0E1F088234AF033
:10193000EE0FFF1FBB1F661F771F881F915050407F
:10194000A9F79E3F510570F05CCFA6CF5F3FECF347
:10195000983EDCF3869577956795B795F795E7956B
:101960009F5FC1F7FE2B880F911D9695879597F97C
:10197000089523DF880B990B0895A1E21A2EAA1B64
:10198000BB1BFD010DC0AA1FBB1FEE1FFF1FA2172F
:10199000B307E407F50720F0A21BB30BE40BF50B2C
:1019A000661F771F881F991F1A9469F760957095B5
:1019B000809590959B01AC01BD01CF010895EE0F7C
:0E19C000FF1F0590F491E02D0994F894FFCFDD
:1019CE000100004D63703235313520636F6E6669EC
:1019DE0067757265206275732073756363657366D0
:1019EE00756C6C79004D63703235313520636F6ED6
:1019FE0066696775726520696E746572727570744A
:101A0E00732073756363657366756C6C79004D63D3
:101A1E00703235313520636F6E6669677572652079
:101A2E00727820627566666572207375636365737E
:101A3E0066756C6C790041626F727420776169749F
:101A4E00696E672E204D61782E2077616974696EFC
:101A5E00672074696D6520726561636865642E0028
:101A6E004D63703235313520737769746368207435
:101A7E006F206D6F646520004D63703235313520F7
:101A8E0072657365742073756363657366756C6CCC
:101A9E007920616E642073776974636820646F20A7
:101AAE006D6F646520004D63703235313520636F84
:101ABE006E666967757265206D61736B73202F207A
:101ACE0066696C746572732073756363657366758E
:101ADE006C6C7900564D4450565F317C315F564DDB
:101AEE004450560D0A00565758595A5B5C5D46478E
:101AFE0048494A4B4C4D363738393A3B3C3D564DAA
:101B0E004450435F005F564D4450430D0A004572EA
:101B1E00726F723A20417474656D707420746F2008
:101B2E00736574206120726561642D6F6E6C79200F
:101B3E007661726961626C65206F72206461746196
:101B4E002074797065206E6F7420737570706F726B
:101B5E007465640D0A000000000003077F08850607
:101B6E009E069006E1066E616E00696E66006F76E7
:021B7E006600FF
:00000001FF
