:100000000C945D000C9485000C9485000C94850084
:100010000C9485000C9485000C9485000C9485004C
:100020000C9485000C9485000C9485000C9485003C
:100030000C9485000C9485000C9485000C9485002C
:100040000C9475040C9485000C9440070C94720772
:100050000C9485000C9485000C9485000C9485000C
:100060000C9485000C94850000000008000201003B
:100070000003040700000000000000000102040863
:100080001020408001020408102001020408102002
:10009000040404040404040402020202020203032E
:1000A0000303030300000000250028002B000000CC
:1000B0000000240027002A00A20711241FBECFEF52
:1000C000D8E0DEBFCDBF12E0A0E0B1E0E0EEF1E1AC
:1000D00002C005900D92A239B107D9F723E0A2E939
:1000E000B2E001C01D92A038B207E1F710E0CAEB00
:1000F000D0E004C02297FE010E94EA08C83BD10765
:10010000C9F70E94E6070C94EE080C94000060E02A
:1001100089E00E948C0561E08AE00E948C0561E024
:100120008AE00C94C5058EBD00000DB407FEFDCF1E
:100130008EB50895CF93DF930E94BF040E9487007D
:1001400060E08AE00E94C50582EF0E949300C8E942
:10015000D2E080E00E949300899382E0CE39D807F4
:10016000C1F761E08AE00E94C50581E0DF91CF918F
:1001700008950F931F93CF93DF931F92CDB7DEB7F0
:10018000082F162F60E0842F49830E94C505802F19
:100190000E949300812F0E94930061E04981842F87
:1001A0000F90DF91CF911F910F910C94C5050E9484
:1001B00087004AE050E061E081E30E94B9004AE034
:1001C00050E068E08DE20C94B9000F931F93CF9339
:1001D000DF931F92CDB7DEB7082F162F60E0842F74
:1001E00049830E94C50582E00E949300802F0E94EF
:1001F0009300812F0E94930061E04981842F0F902A
:10020000DF91CF911F910F910C94C50549E050E00B
:1002100062E08AE20E94E50049E050E060E989E29C
:100220000E94E50049E050E062E088E20E94E500BB
:1002300080919E02882331F060E071E083EE92E0CD
:100240000C943908089549E050E063E08BE20E9485
:10025000E50080919E02882331F062E271E083EE36
:1002600092E00C943908089549E050E063E080E69C
:100270000E94E50049E050E063E080E70E94E5006D
:1002800080919E02882331F06BE471E083EE92E06E
:100290000C9439080895CF93DF93D82FC62F60E0D0
:1002A0008C2F0E94C50583E00E9493008D2F0E9431
:1002B000930080E00E949300D82F61E08C2F0E9471
:1002C000C50561E070E080E090E00E94EE0449E046
:1002D00050E060E08CE20E94E5008D2FDF91CF912D
:1002E0000895CF92DF92EF92FF920F931F93CF93D7
:1002F000DF93062FC3E0D0E049E050E0602F8FE0AD
:100300000E94E50069E070E08EE00E944B01182F2A
:100310000E94BF046B017C0160E070E0CB0110170C
:1003200091F0693873418105910594F469E070E0BA
:100330008EE00E944B01182F0E94BF046C197D09AA
:100340008E099F09ECCF693873418105910564F0EE
:1003500080919E02882331F069E771E083EE92E09C
:100360000E943908219741F680919E02882331F03E
:1003700063EA71E083EE92E00E94330880919E026E
:10038000882339F04AE050E0612F83EE92E00E942A
:10039000A70880919E02882371F06CE671E083EEDD
:1003A00092E0DF91CF911F910F91FF90EF90DF903E
:1003B000CF900C943908DF91CF911F910F91FF904E
:1003C000EF90DF90CF900895CF93DF93D82FC62F73
:1003D00060E08C2F0E94C5058D2F0E94930061E084
:1003E0008C2FDF91CF910C94C505CF9369E070E01D
:1003F00080EC0E94E40169E070E08EE00E944B0115
:10040000C82F87FFF8CF80919E02882331F06BEBD5
:1004100071E083EE92E00E94330880919E0288236F
:1004200041F04AE050E06C2F83EE92E0CF910C94C3
:10043000AE08CF9108958130910539F08230910551
:1004400031F0892B29F421E803C022E801C024E817
:1004500069E070E0822F0C94E4018230910539F05C
:100460008330910581F00197B1F40C94870060E02E
:100470008AE00E948C0561E089E00E948C0561E0C1
:1004800089E00C94C50560E08AE00E948C0560E07C
:1004900089E00C948C05089582E090E00E942D0282
:1004A00064E670E080E090E00E94EE040E94F501B6
:1004B00064E670E080E090E00E94EE040E94060195
:1004C00064E670E080E090E00E94EE040E94230168
:1004D00064E670E080E090E00E94EE040E94340147
:1004E00064E670E080E090E00E94EE0460E080E06E
:1004F0000E94710164E670E080E090E00C94EE04EC
:1005000040ED57E060E070E083EA92E00E94DC0397
:1005100020E032EC41E050E063EE72E083EA92E0EA
:100520000E94EF0383EA92E00E94D90369EE71E032
:100530008091D4029091D5020E9433086AE070E065
:1005400080E090E00E94EE0441E060E083EA92E007
:100550000E945A0481E08093930210929202809349
:100560009E0261E08AE00E948C0561E089E00E94C1
:100570008C0560E088E00E948C0560E08EE00E94BF
:100580008C0561E087E00E948C0561E08AE00E94B2
:10059000C50561E089E00E94C50560E087E00E9432
:1005A000C5058091A102882399F09FB7F8948091A6
:1005B000A102813059F48DB380939F022DB38091B5
:1005C000A002809582238DBB9FBF02C090939F02A3
:1005D0008CE58CBD1DBC0E947B030E94D7000E944D
:1005E0004C0264E670E080E090E00E94EE040E941D
:1005F000BF04609394027093950280939602909347
:10060000970208951F93CF93DF93182FD62FC42FEF
:1006100082E090E00E942D0249E050E0612F82E3E9
:100620000E94E50049E050E06D2F81E30E94E50063
:1006300049E050E06C2F85E3DF91CF911F910C943E
:10064000E500AF92BF92CF92DF92EF92FF920F93AD
:100650001F93CF93DF931F92CDB7DEB78C01C62EC9
:10066000F42E82E090E029830E942D024C2D2981F6
:10067000622F8F2D0E94020386E1E82E82E0F82E81
:100680005801D12CC501801B910B8C159D0558F488
:10069000F50161915F0149E050E0F70181917F012F
:1006A0000E94E500EFCF80E090E00F90DF91CF91C6
:1006B0001F910F91FF90EF90DF90CF90BF90AF9080
:1006C0000C941B0280919E02882331F06BEF71E045
:1006D00083EE92E00E9439080E949A0020E040E0F8
:1006E00066E088E992E00E94210349E050E060E082
:1006F0008CE20C94E500CF93CFB7F8948091A202DE
:10070000811127C0EAE9F0E08491E6E8F0E09491F5
:10071000E82FF0E0EE0FFF1FE255FF4FA591B491D7
:100720008C91892321F461E08AE00E94C50561E093
:100730008AE00E948C058CB580618CBD8CB580648C
:100740008CBD61E08DE00E948C0561E08BE00E9431
:100750008C058091A2028F5F8093A202CFBFCF91C0
:1007600008950F931F93CF93DF93EC01662359F005
:100770000E94BF0469837A838B839C83DF91CF912E
:100780001F910F9108950E94BF0409811A812B8146
:100790003C81601B710B820B930B623371058105E9
:1007A000910530F763E070E080E090E00E94EE0495
:1007B000EACF60E00C94B103FC0113AA14AA15AAB5
:1007C00016AA118212821382148241155105610505
:1007D000710521F0CB01BA010C94EE040895FB01E0
:1007E000BA01A901DC01D296FC93EE93D19726E0E1
:1007F000CF010C94DE061F93CF93DF93EC01162FED
:100800006EE172E089A99AA90E9433084AE050E09B
:10081000612F89A99AA90E94A70865E272E089A9B7
:100820009AA90E94330862E370E080E090E0DF91D3
:10083000CF911F910C94EE041F93CF93DF93EC01A3
:10084000162F8D81882389F189A99AA9DC01ED9160
:10085000FC910480F581E02D0995892BA9F307C04F
:100860002637310519F12835310509F41D8289A98A
:100870009AA9DC01ED91FC910480F581E02D0995A8
:100880001816190694F489A99AA9DC01ED91FC9136
:100890000680F781E02D09959C0133272336310529
:1008A000F9F6612FCE010E94FB0383E6DF91CF9121
:1008B0001F9108950F931F93CF93DF931F92CDB78E
:1008C000DEB78C01662349F081E0F801858360E0A2
:1008D000C80149830E941C044981F80145830F9097
:1008E000DF91CF911F910F9108951F920F920FB634
:1008F0000F9211242F933F938F939F93AF93BF93A6
:100900008091DB029091DC02A091DD02B091DE02C9
:100910003091DA0223E0230F2D3720F40196A11D38
:10092000B11D05C026E8230F0296A11DB11D20931D
:10093000DA028093DB029093DC02A093DD02B09395
:10094000DE028091DF029091E002A091E102B0917D
:10095000E2020196A11DB11D8093DF029093E00297
:10096000A093E102B093E202BF91AF919F918F916A
:100970003F912F910F900FBE0F901F9018952FB79A
:10098000F8946091DB027091DC028091DD0290911D
:10099000DE022FBF08953FB7F8948091DF02909157
:1009A000E002A091E102B091E20226B5A89B05C049
:1009B0002F3F19F00196A11DB11D3FBF6627782F6B
:1009C000892F9A2F620F711D811D911D42E0660FC4
:1009D000771F881F991F4A95D1F708958F929F928C
:1009E000AF92BF92CF92DF92EF92FF926B017C01A8
:1009F0000E94CB044B015C01C114D104E104F10459
:100A0000F1F00E94C5080E94CB04681979098A098F
:100A10009B09683E73408105910570F321E0C21A7D
:100A2000D108E108F10888EE880E83E0981EA11C29
:100A3000B11CC114D104E104F10429F7DDCFFF900A
:100A4000EF90DF90CF90BF90AF909F908F900895E0
:100A5000789484B5826084BD84B5816084BD85B599
:100A6000826085BD85B5816085BDEEE6F0E0808160
:100A700081608083E1E8F0E0108280818260808381
:100A8000808181608083E0E8F0E080818160808304
:100A9000E1EBF0E0808184608083E0EBF0E0808136
:100AA00081608083EAE7F0E08081846080838081D8
:100AB0008260808380818160808380818068808380
:100AC0001092C1000895833081F028F4813099F0AC
:100AD0008230A1F008958730A9F08830B9F08430D1
:100AE000D1F4809180008F7D03C0809180008F774A
:100AF00080938000089584B58F7702C084B58F7D80
:100B000084BD08958091B0008F7703C08091B000BC
:100B10008F7D8093B0000895CF93DF9390E0FC0128
:100B2000E458FF4F2491FC01E057FF4F8491882344
:100B300049F190E0880F991FFC01E255FF4FA59104
:100B4000B4918C559F4FFC01C591D4919FB7611111
:100B500008C0F8948C91209582238C9388818223FD
:100B60000AC0623051F4F8948C91322F309583236F
:100B70008C938881822B888304C0F8948C91822B7B
:100B80008C939FBFDF91CF9108950F931F93CF93C5
:100B9000DF931F92CDB7DEB7282F30E0F901E85977
:100BA000FF4F8491F901E458FF4F1491F901E05788
:100BB000FF4F04910023C9F0882321F069830E942C
:100BC00063056981E02FF0E0EE0FFF1FEC55FF4F4A
:100BD000A591B4919FB7F8948C91611103C01095C1
:100BE000812301C0812B8C939FBF0F90DF91CF9108
:100BF0001F910F910895FC01818D228D90E0805C02
:100C00009F4F821B91098F7399270895FC01918D45
:100C1000828D981731F0828DE80FF11D858D90E05F
:100C200008958FEF9FEF0895FC01918D828D9817A5
:100C300061F0828DDF01A80FB11D5D968C91928DC0
:100C40009F5F9F73928F90E008958FEF9FEF0895BD
:100C500088E997E0892B49F080E090E0892B29F022
:100C60000E94980781110C9400000895FC01848D66
:100C7000DF01A80FB11DA35ABF4F2C91848D90E0C6
:100C800001968F739927848FA689B7892C93A089A1
:100C9000B1898C9180648C93938D848D981306C058
:100CA0000288F389E02D80818F7D80830895CF9322
:100CB000DF93EC01888D8823C9F0EA89FB89808164
:100CC00085FD05C0A889B9898C9186FD0FC00FB636
:100CD00007FCF5CF808185FFF2CFA889B9898C9177
:100CE00085FFEDCFCE010E943606E7CFDF91CF9191
:100CF0000895CF92DF92FF920F931F93CF93DF93CC
:100D00001F92CDB7DEB76C0181E0D60158968C9367
:100D100058975B969C915B975C968C915C97981327
:100D200007C05096ED91FC915197808185FD2EC0B2
:100D3000F601038D10E00F5F1F4F0F731127F02E88
:100D4000F601848DF81211C00FB607FCF9CFD60159
:100D50005096ED91FC915197808185FFF1CFC601AE
:100D600069830E9436066981EBCF838DE80FF11D00
:100D7000E35AFF4F6083D6015B960C935B975296C4
:100D8000ED91FC915397808180620CC0D6015696FC
:100D9000ED91FC91579760835096ED91FC9151979E
:100DA00080818064808381E090E00F90DF91CF911B
:100DB0001F910F91FF90DF90CF900895BF92CF9237
:100DC000DF92EF92FF92CF93DF93EC016A017B01F8
:100DD000B22EE889F98982E08083411581EE5807B7
:100DE00061057105A1F060E079E08DE390E0A70175
:100DF00096010E94C60821503109410951095695B2
:100E0000479537952795211580E1380798F0E889AF
:100E1000F989108260E874E88EE190E0A7019601FC
:100E20000E94C6082150310941095109569547953C
:100E300037952795EC85FD853083EE85FF852083EA
:100E4000188EEC89FD89B082EA89FB8980818061F6
:100E50008083EA89FB89808188608083EA89FB89B5
:100E6000808180688083EA89FB8980818F7D80838F
:100E7000DF91CF91FF90EF90DF90CF90BF900895DA
:100E80001F920F920FB60F9211242F938F939F935F
:100E9000EF93FF93E091F302F091F4028081E091EF
:100EA000F902F091FA0282FD12C090818091FC0259
:100EB0008F5F8F732091FD02821751F0E091FC0249
:100EC000F0E0ED51FD4F958F8093FC0201C08081D1
:100ED000FF91EF919F918F912F910F900FBE0F90E7
:100EE0001F9018951F920F920FB60F9211242F93F7
:100EF0003F934F935F936F937F938F939F93AF93A2
:100F0000BF93EF93FF9383EE92E00E943606FF912A
:100F1000EF91BF91AF919F918F917F916F915F9171
:100F20004F913F912F910F900FBE0F901F901895EA
:100F300083EE92E00E94FB0521E0892B09F420E07A
:100F4000822F08951092E6021092E50288EE93E057
:100F5000A0E0B0E08093E7029093E802A093E9025A
:100F6000B093EA028AE792E09093E4028093E3026E
:100F700085EC90E09093F0028093EF0284EC90E097
:100F80009093F2028093F10280EC90E09093F4024F
:100F90008093F30281EC90E09093F6028093F50247
:100FA00082EC90E09093F8028093F70286EC90E058
:100FB0009093FA028093F9021092FC021092FD02C3
:100FC0001092FE021092FF02089508950E942805D3
:100FD0000E94E5070E948002C8E2D6E00E946203F8
:100FE0002097E1F30E942806F9CFCF92DF92EF928B
:100FF000FF920F931F93CF93DF937C016A01EB0164
:1010000000E010E00C151D0571F06991D701ED911C
:10101000FC910190F081E02DC7010995892B19F011
:101020000F5F1F4FEFCFC801DF91CF911F910F913D
:10103000FF90EF90DF90CF9008956115710581F0DA
:10104000DB010D900020E9F7AD0141505109461B2D
:10105000570BDC01ED91FC910280F381E02D0994A6
:1010600080E090E008950C941D086BE272E00C940F
:101070001D080F931F93CF93DF93EC010E941D086F
:101080008C01CE010E943508800F911FDF91CF9116
:101090001F910F9108958F929F92AF92BF92DF920E
:1010A000EF92FF920F931F93CF93DF93CDB7DEB7ED
:1010B000A1970FB6F894DEBF0FBECDBF7C01F42F11
:1010C000D52ECB0119A2223008F42AE08E010F5D43
:1010D0001F4F822E912CA12CB12C6F2F7D2DA5019D
:1010E00094010E94C608F22FD32ECA0101501109A3
:1010F0006A3014F4E0E301C0E7E3E60FD801EC93B3
:10110000232B242B252B49F7B801C7010E941D086A
:10111000A1960FB6F894DEBF0FBECDBFDF91CF9181
:101120001F910F91FF90EF90DF90BF90AF909F9035
:101130008F9008952115310541F4DC01ED91FC916A
:101140000190F081E02D642F09940C944B089A01D2
:10115000462F50E060E070E00C949A080F931F93C4
:10116000CF93DF93EC019A01462F50E060E070E0EE
:101170000E949A088C01CE010E943508800F911FB1
:10118000DF91CF911F910F9108950895A1E21A2E3A
:10119000AA1BBB1BFD010DC0AA1FBB1FEE1FFF1F1B
:1011A000A217B307E407F50720F0A21BB30BE40B6B
:1011B000F50B661F771F881F991F1A9469F76095B2
:1011C0007095809590959B01AC01BD01CF0108956C
:1011D000EE0FFF1F0590F491E02D0994F894FFCFD6
:1011E0004D63703235313520636F6E666967757295
:1011F00065206275732073756363657366756C6CC7
:1012000079004D63703235313520636F6E666967E2
:1012100075726520696E746572727570747320736F
:10122000756363657366756C6C79004D63703235F8
:10123000313520636F6E666967757265206D617305
:101240006B73202F2066696C7465727320737563ED
:1012500063657366756C6C790041626F7274207798
:10126000616974696E672E204D61782E20776169FF
:1012700074696E672074696D652072656163686565
:10128000642E004D63703235313520737769746395
:101290006820746F206D6F646520004D6370323577
:1012A0003135207265736574207375636365736689
:1012B000756C6C7920616E64207377697463682043
:1012C000646F206D6F64652000564D4450565F3149
:1012D0007C315F564D4450560D0A005265616420C2
:1012E000616E642073656E642073656E736F722027
:1012F000646174612E00363738393A3B3C3D564DB7
:101300004450435F005F564D4450430D0A00457200
:10131000726F723A20417474656D707420746F201E
:10132000736574206120726561642D6F6E6C792025
:101330007661726961626C65206F722064617461AC
:101340002074797065206E6F7420737570706F7281
:101350007465640D0A00000000007906F507FB05BE
:101360001406060657066E616E00696E66006F769B
:02137000660015
:00000001FF
