:100000000C9462000C948A000C948A000C948A0070
:100010000C948A000C948A000C948A000C948A0038
:100020000C948A000C948A000C948A000C948A0028
:100030000C948A000C948A000C948A000C948A0018
:100040000C9427050C948A000C9438080C946A08C8
:100050000C948A000C948A000C948A000C948A00F8
:100060000C948A000C948A00000000080002010031
:100070000003040700000000000000000102040863
:100080001020408001020408102001020408102002
:10009000040404040404040402020202020203032E
:1000A00003030303000000002300260029000000D2
:1000B0000000250028002B0000000000240027007D
:1000C0002A009A0811241FBECFEFD8E0DEBFCDBFB3
:1000D00012E0A0E0B1E0E0EDF3E102C005900D9286
:1000E000AC3FB107D9F723E0ACEFB2E001C01D92FD
:1000F000AA3EB207E1F710E0C4ECD0E004C02297BA
:10010000FE010E94E209C23CD107C9F70E94DE0845
:100110000C94E6090C94000060E089E00E945B0604
:1001200061E08AE00E945B0661E08AE00C9494063C
:100130008EBD00000DB407FEFDCF8EB50895CF93A0
:10014000DF93C82F60E00E94940680EA0E94980026
:1001500080E00E949800D82F61E08C2F0E949406C6
:100160008D2FDF91CF910895CF93DF930E9471057A
:100170000E948C0060E08AE00E94940682EF0E9458
:100180009800C2E0D3E080E00E949800899383E069
:10019000C830D807C1F761E08AE00E94940681E088
:1001A000DF91CF9108950F931F93CF93DF931F9209
:1001B000CDB7DEB7082F162F60E0842F49830E9449
:1001C0009406802F0E949800812F0E94980061E081
:1001D0004981842F0F90DF91CF911F910F910C9443
:1001E00094060E948C004AE050E061E081E30E94A6
:1001F000D3004AE050E068E08DE20C94D3000F9306
:100200001F93CF93DF931F92CDB7DEB7082F162F22
:1002100060E0842F49830E94940682E00E94980047
:10022000802F0E949800812F0E94980061E04981F0
:10023000842F0F90DF91CF911F910F910C94940612
:1002400049E050E060E08AE20E94FF0049E050E0AF
:1002500060E989E20E94FF0049E050E062E088E244
:100260000E94FF0080910803882331F061E071E073
:100270008DE493E00C943109089549E050E063E087
:100280008BE20E94FF0080910803882331F063E233
:1002900071E08DE493E00C943109089549E050E059
:1002A00063E080E60E94FF0049E050E063E080E701
:1002B0000E94FF0080910803882331F06CE471E014
:1002C0008DE493E00C9431090895CF93DF93D82FF8
:1002D000C62F60E08C2F0E94940683E00E94980055
:1002E0008D2F0E94980080E00E949800D82F61E036
:1002F0008C2F0E94940661E070E080E090E00E9404
:10030000A00549E050E060E08CE20E94FF008D2FE4
:10031000DF91CF910895CF92DF92EF92FF920F93EA
:100320001F93CF93DF93062FC3E0D0E049E050E066
:10033000602F8FE00E94FF0069E070E08EE00E9475
:100340006501182F0E9471056B017C0160E070E06F
:10035000CB01101791F0693873418105910594F430
:1003600069E070E08EE00E946501182F0E9471051F
:100370006C197D098E099F09ECCF6938734181059D
:10038000910564F080910803882331F06AE771E0F9
:100390008DE493E00E943109219741F68091080392
:1003A000882331F064EA71E08DE493E00E942B0928
:1003B00080910803882339F04AE050E0612F8DE4F2
:1003C00093E00E949F0980910803882371F06DE6F5
:1003D00071E08DE493E0DF91CF911F910F91FF9039
:1003E000EF90DF90CF900C943109DF91CF911F9166
:1003F0000F91FF90EF90DF90CF900895CF93DF9310
:10040000D82FC62F60E08C2F0E9494068D2F0E945B
:10041000980061E08C2FDF91CF910C949406CF93DC
:1004200069E070E080EC0E94FE0169E070E08EE01F
:100430000E946501C82F87FFF8CF809108038823A9
:1004400031F06CEB71E08DE493E00E942B09809118
:100450000803882341F04AE050E06C2F8DE493E0DC
:10046000CF910C94A609CF9108958130910539F070
:100470008230910531F0892B29F421E803C022E86C
:1004800001C024E869E070E0822F0C94FE01823004
:10049000910539F08330910581F00197B1F40C9406
:1004A0008C0060E08AE00E945B0661E089E00E94C7
:1004B0005B0661E089E00C94940660E08AE00E94AB
:1004C0005B0660E089E00C945B06089582E090E0B2
:1004D0000E94470264E670E080E090E00E94A00580
:1004E0000E940F0264E670E080E090E00E94A005A8
:1004F0000E94200164E670E080E090E00E94A00588
:100500000E943D0164E670E080E090E00E94A0055A
:100510000E944E0164E670E080E090E00E94A00539
:1005200060E080E00E948B0164E670E080E090E093
:100530000C94A00540ED57E060E070E08DE093E0A2
:100540000E948E0420E032EC41E050E06DE473E064
:100550008DE093E00E94A1048DE093E00E948B0463
:100560006AEE71E080913E0390913F030E942B0957
:100570006AE070E080E090E00E94A00541E060E069
:100580008DE093E00E940C0561E08AE00E945B062A
:1005900061E089E00E945B0660E088E00E945B0603
:1005A00060E08EE00E945B0661E087E00E945B06EF
:1005B00061E08AE00E94940661E089E00E9494066E
:1005C00060E087E00E94940680910B03882399F0F5
:1005D0009FB7F89480910B03813059F48DB38093C9
:1005E00009032DB380910A03809582238DBB9FBFA1
:1005F00002C0909309038CE58CBD1DBC0E942D04A4
:100600000E94F1000E9466021092080381E080932C
:10061000FD021092FC0264E670E080E090E00E942F
:10062000A0050E9471056093FE027093FF02809303
:1006300000039093010308951F93CF93DF93182F26
:10064000D62FC42F82E090E00E94470249E050E09C
:10065000612F82E30E94FF0049E050E06D2F81E3AB
:100660000E94FF0049E050E06C2F85E3DF91CF91BD
:100670001F910C94FF00AF92BF92CF92DF92EF9246
:10068000FF920F931F93CF93DF931F92CDB7DEB7E7
:100690008C01C62EF42E82E090E029830E9447024E
:1006A0004C2D2981622F8F2D0E941C038FE7E82E8D
:1006B00082E0F82E5801D12CC501801B910B8C15BE
:1006C0009D0558F4F50161915F0149E050E0F701A3
:1006D00081917F010E94FF00EFCF80E090E00F90BA
:1006E000DF91CF911F910F91FF90EF90DF90CF900E
:1006F000BF90AF900C943502CF93DF9300D0CDB76D
:10070000DEB78EE00E941506853F914094F08091FF
:10071000FC02882371F080910803882331F06CEF8C
:1007200071E08DE493E00E9431090E94B4008111D0
:100730000DC088E00E94CA06892B09F089C08EE0AE
:100740000E941506843F91408CF182C061E087E0F1
:100750000E94940680910803882331F06EE072E0D5
:100760008DE493E00E94310920E040E066E082E001
:1007700093E00E943B0349E050E060E08CE20E947D
:10078000FF008EE00E941506853F9140D4F760E09F
:1007900087E00E94940680910803882351F26EE15D
:1007A00072E08DE493E00E943109C3CF89E090E0CC
:1007B0000E949F008370813051F469E070E086E60A
:1007C0000E946501898369E070E087E60BC0823092
:1007D00061F469E070E086E70E946501898369E061
:1007E00070E087E70E9465018A8389818F3FC1F4A9
:1007F0008A818F3F69F580910803882331F060E397
:1008000072E08DE493E00E94310920E040E062E074
:10081000CE0101960E943B0381E08093FC0218C048
:100820008038B1F48A81803899F480910803882354
:1008300031F068E572E08DE493E00E94310920E038
:1008400040E062E0CE0101960E943B031092FC0260
:100850000F900F90DF91CF910895CF93CFB7F89479
:1008600080910C03811127C0EAE9F0E08491E6E869
:10087000F0E09491E82FF0E0EE0FFF1FE854FF4FF7
:10088000A591B4918C91892321F461E08AE00E94C2
:10089000940661E08AE00E945B068CB580618CBDA5
:1008A0008CB580648CBD61E08DE00E945B0661E0E8
:1008B0008BE00E945B0680910C038F5F80930C039A
:1008C000CFBFCF9108950F931F93CF93DF93EC0188
:1008D000662359F00E94710569837A838B839C8318
:1008E000DF91CF911F910F9108950E9471050981A9
:1008F0001A812B813C81601B710B820B930B62333D
:1009000071058105910530F763E070E080E090E0CB
:100910000E94A005EACF60E00C946304FC0113AAD6
:1009200014AA15AA16AA11821282138214824115E2
:1009300051056105710521F0CB01BA010C94A005A8
:100940000895FB01BA01A901DC01D296FC93EE9354
:10095000D19726E0CF010C94D6071F93CF93DF9356
:10096000EC01162F67E872E089A99AA90E942B0969
:100970004AE050E0612F89A99AA90E949F096EE878
:1009800072E089A99AA90E942B0962E370E080E0D5
:1009900090E0DF91CF911F910C94A0051F93CF930E
:1009A000DF93EC01162F8D81882389F189A99AA9FB
:1009B000DC01ED91FC910480F581E02D0995892BF6
:1009C000A9F307C02637310519F12835310509F497
:1009D0001D8289A99AA9DC01ED91FC910480F58121
:1009E000E02D09951816190694F489A99AA9DC0135
:1009F000ED91FC910680F781E02D09959C0133274C
:100A000023363105F9F6612FCE010E94AD0483E64D
:100A1000DF91CF911F9108950F931F93CF93DF9391
:100A20001F92CDB7DEB78C01662349F081E0F80153
:100A3000858360E0C80149830E94CE044981F801A2
:100A400045830F90DF91CF911F910F9108951F92D1
:100A50000F920FB60F9211242F933F938F939F9372
:100A6000AF93BF938091450390914603A0914703B4
:100A7000B09148033091440323E0230F2D3720F435
:100A80000196A11DB11D05C026E8230F0296A11DE8
:100A9000B11D209344038093450390934603A09394
:100AA0004703B09348038091490390914A03A09172
:100AB0004B03B0914C030196A11DB11D80934903D6
:100AC00090934A03A0934B03B0934C03BF91AF9113
:100AD0009F918F913F912F910F900FBE0F901F907C
:100AE00018952FB7F8946091450370914603809153
:100AF0004703909148032FBF08953FB7F894809122
:100B0000490390914A03A0914B03B0914C0326B541
:100B1000A89B05C02F3F19F00196A11DB11D3FBF35
:100B20006627782F892F9A2F620F711D811D911DC5
:100B300042E0660F771F881F991F4A95D1F70895E5
:100B40008F929F92AF92BF92CF92DF92EF92FF92DD
:100B50006B017C010E947D054B015C01C114D10435
:100B6000E104F104F1F00E94BD090E947D056819BD
:100B700079098A099B09683E73408105910570F3E4
:100B800021E0C21AD108E108F10888EE880E83E05E
:100B9000981EA11CB11CC114D104E104F10429F771
:100BA000DDCFFF90EF90DF90CF90BF90AF909F9000
:100BB0008F900895789484B5826084BD84B58160F7
:100BC00084BD85B5826085BD85B5816085BDEEE655
:100BD000F0E0808181608083E1E8F0E01082808134
:100BE00082608083808181608083E0E8F0E08081A2
:100BF00081608083E1EBF0E0808184608083E0EBC2
:100C0000F0E0808181608083EAE7F0E080818460A9
:100C10008083808182608083808181608083808105
:100C2000806880831092C10008958E3008F08E5045
:100C300087702091000190E4299F90011124822B5C
:100C400080937C0080917A00806480937A00809108
:100C50007A0086FDFCCF809178002091790090E0A9
:100C6000922B0895833081F028F4813099F08230FE
:100C7000A1F008958730A9F08830B9F08430D1F41C
:100C8000809180008F7D03C0809180008F7780935A
:100C90008000089584B58F7702C084B58F7D84BDB0
:100CA00008958091B0008F7703C08091B0008F7D50
:100CB0008093B0000895CF93DF9390E0FC01E45857
:100CC000FF4F2491FC01E057FF4F8491882349F1A5
:100CD00090E0880F991FFC01E854FF4FA591B49153
:100CE00082559F4FFC01C591D4919FB7611108C0F7
:100CF000F8948C91209582238C93888182230AC05A
:100D0000623051F4F8948C91322F309583238C9378
:100D10008881822B888304C0F8948C91822B8C93D9
:100D20009FBFDF91CF9108950F931F93CF93DF93D0
:100D30001F92CDB7DEB7282F30E0F901E859FF4FF9
:100D40008491F901E458FF4F1491F901E057FF4FE6
:100D500004910023C9F0882321F069830E943206A0
:100D60006981E02FF0E0EE0FFF1FE255FF4FA591E4
:100D7000B4919FB7F8948C91611103C010958123B1
:100D800001C0812B8C939FBF0F90DF91CF911F915A
:100D90000F910895CF93DF93282F30E0F901E859A0
:100DA000FF4F8491F901E458FF4FD491F901E057C6
:100DB000FF4FC491CC2391F081110E943206EC2F99
:100DC000F0E0EE0FFF1FEC55FF4FA591B4912C9171
:100DD0002D2381E090E021F480E002C080E090E0EB
:100DE000DF91CF910895FC01818D228D90E0805C90
:100DF0009F4F821B91098F7399270895FC01918D54
:100E0000828D981731F0828DE80FF11D858D90E06D
:100E100008958FEF9FEF0895FC01918D828D9817B3
:100E200061F0828DDF01A80FB11D5D968C91928DCE
:100E30009F5F9F73928F90E008958FEF9FEF0895CB
:100E400080E998E0892B49F080E090E0892B29F037
:100E50000E94900881110C9400000895FC01848D7B
:100E6000DF01A80FB11DA35ABF4F2C91848D90E0D4
:100E700001968F739927848FA689B7892C93A089AF
:100E8000B1898C9180648C93938D848D981306C066
:100E90000288F389E02D80818F7D80830895CF9330
:100EA000DF93EC01888D8823C9F0EA89FB89808172
:100EB00085FD05C0A889B9898C9186FD0FC00FB644
:100EC00007FCF5CF808185FFF2CFA889B9898C9185
:100ED00085FFEDCFCE010E942E07E7CFDF91CF91A6
:100EE0000895CF92DF92FF920F931F93CF93DF93DA
:100EF0001F92CDB7DEB76C0181E0D60158968C9376
:100F000058975B969C915B975C968C915C97981335
:100F100007C05096ED91FC915197808185FD2EC0C0
:100F2000F601038D10E00F5F1F4F0F731127F02E96
:100F3000F601848DF81211C00FB607FCF9CFD60167
:100F40005096ED91FC915197808185FFF1CFC601BC
:100F500069830E942E076981EBCF838DE80FF11D15
:100F6000E35AFF4F6083D6015B960C935B975296D2
:100F7000ED91FC915397808180620CC0D60156960A
:100F8000ED91FC91579760835096ED91FC915197AC
:100F900080818064808381E090E00F90DF91CF9129
:100FA0001F910F91FF90DF90CF900895BF92CF9245
:100FB000DF92EF92FF92CF93DF93EC016A017B0106
:100FC000B22EE889F98982E08083411581EE5807C5
:100FD00061057105A1F060E079E08DE390E0A70183
:100FE00096010E94BE0921503109410951095695C7
:100FF000479537952795211580E1380798F0E889BE
:10100000F989108260E874E88EE190E0A70196010A
:101010000E94BE0921503109410951095695479551
:1010200037952795EC85FD853083EE85FF852083F8
:10103000188EEC89FD89B082EA89FB898081806104
:101040008083EA89FB89808188608083EA89FB89C3
:10105000808180688083EA89FB8980818F7D80839D
:10106000DF91CF91FF90EF90DF90CF90BF900895E8
:101070001F920F920FB60F9211242F938F939F936D
:10108000EF93FF93E0915D03F0915E038081E09127
:101090006303F091640382FD12C090818091660326
:1010A0008F5F8F7320916703821751F0E091660381
:1010B000F0E0E35BFC4F958F8093660301C0808175
:1010C000FF91EF919F918F912F910F900FBE0F90F5
:1010D0001F9018951F920F920FB60F9211242F9305
:1010E0003F934F935F936F937F938F939F93AF93B0
:1010F000BF93EF93FF938DE493E00E942E07FF913F
:10110000EF91BF91AF919F918F917F916F915F917F
:101110004F913F912F910F900FBE0F901F901895F8
:101120008DE493E00E94F30621E0892B09F420E08E
:10113000822F08951092500310924F0388EE93E08F
:10114000A0E0B0E08093510390935203A093530327
:10115000B093540383EE92E090934E0380934D033B
:1011600085EC90E090935A038093590384EC90E0CF
:1011700090935C0380935B0380EC90E090935E031C
:1011800080935D0381EC90E09093600380935F0314
:1011900082EC90E0909362038093610386EC90E090
:1011A0009093640380936303109266031092670325
:1011B0001092680310926903089508950E94DA0559
:1011C0000E94DD080E949A02C0E2D7E00E947C03E0
:1011D0002097E1F30E942007F9CFCF92DF92EF92A0
:1011E000FF920F931F93CF93DF937C016A01EB0172
:1011F00000E010E00C151D0571F06991D701ED912B
:10120000FC910190F081E02DC7010995892B19F01F
:101210000F5F1F4FEFCFC801DF91CF911F910F914B
:10122000FF90EF90DF90CF9008956115710581F0E8
:10123000DB010D900020E9F7AD0141505109461B3B
:10124000570BDC01ED91FC910280F381E02D0994B4
:1012500080E090E008950C94150964E972E00C9424
:1012600015090F931F93CF93DF93EC010E9415098B
:101270008C01CE010E942D09800F911FDF91CF912B
:101280001F910F9108958F929F92AF92BF92DF921C
:10129000EF92FF920F931F93CF93DF93CDB7DEB7FB
:1012A000A1970FB6F894DEBF0FBECDBF7C01F42F1F
:1012B000D52ECB0119A2223008F42AE08E010F5D51
:1012C0001F4F822E912CA12CB12C6F2F7D2DA501AB
:1012D00094010E94BE09F22FD32ECA0101501109B8
:1012E0006A3014F4E0E301C0E7E3E60FD801EC93C1
:1012F000232B242B252B49F7B801C7010E94150980
:10130000A1960FB6F894DEBF0FBECDBFDF91CF918F
:101310001F910F91FF90EF90DF90BF90AF909F9043
:101320008F9008952115310541F4DC01ED91FC9178
:101330000190F081E02D642F09940C9443099A01E7
:10134000462F50E060E070E00C9492090F931F93D9
:10135000CF93DF93EC019A01462F50E060E070E0FC
:101360000E9492098C01CE010E942D09800F911FCD
:10137000DF91CF911F910F9108950895A1E21A2E48
:10138000AA1BBB1BFD010DC0AA1FBB1FEE1FFF1F29
:10139000A217B307E407F50720F0A21BB30BE40B79
:1013A000F50B661F771F881F991F1A9469F76095C0
:1013B0007095809590959B01AC01BD01CF0108957A
:1013C000EE0FFF1F0590F491E02D0994F894FFCFE4
:1013D000014D63703235313520636F6E6669677514
:1013E0007265206275732073756363657366756CCF
:1013F0006C79004D63703235313520636F6E6669EC
:101400006775726520696E74657272757074732089
:1014100073756363657366756C6C79004D637032C8
:1014200035313520636F6E666967757265206D6151
:10143000736B73202F2066696C74657273207375EB
:101440006363657366756C6C790041626F727420BA
:1014500077616974696E672E204D61782E207761FF
:101460006974696E672074696D652072656163686F
:1014700065642E004D6370323531352073776974A1
:10148000636820746F206D6F646520004D63703257
:1014900035313520726573657420737563636573C8
:1014A00066756C6C7920616E64207377697463680B
:1014B00020646F206D6F64652000564D4450565F68
:1014C000317C315F564D4450560D0A0052656164BF
:1014D0002073656E736F7220646174612E004C6FAF
:1014E0006164207478206275666665722E004669B4
:1014F0006E69736865642077616974696E672E0030
:1015000052656365697665207374617274207365D2
:101510007175656E63652E2053656E642068616E1B
:10152000647368616B652E0052656365697665203A
:1015300073746F702073657175656E63652E2053CB
:10154000656E642068616E647368616B652E003639
:101550003738393A3B3C3D564D4450435F005F5667
:101560004D4450430D0A004572726F723A20417427
:1015700074656D707420746F2073657420612072BF
:101580006561642D6F6E6C79207661726961626C41
:1015900065206F7220646174612074797065206EBB
:1015A0006F7420737570706F727465640D0A00003B
:1015B0000000007107ED08F3060C07FE064F076EEA
:0C15C000616E00696E66006F76660000C8
:00000001FF
