:100000000C945D000C9485000C9485000C94850084
:100010000C9485000C9485000C9485000C9485004C
:100020000C9485000C9485000C9485000C9485003C
:100030000C9485000C9485000C9485000C9485002C
:100040000C9402040C9485000C94CD060C94FF06CD
:100050000C9485000C9485000C9485000C9485000C
:100060000C9485000C94850000000008000201003B
:100070000003040700000000000000000102040863
:100080001020408001020408102001020408102002
:10009000040404040404040402020202020203032E
:1000A0000303030300000000250028002B000000CC
:1000B0000000240027002A002F0711241FBECFEFC5
:1000C000D8E0DEBFCDBF12E0A0E0B1E0E4EDF7E1A3
:1000D00002C005900D92AE31B107D9F722E0AEE132
:1000E000B2E001C01D92A03EB207E1F710E0CAEBFA
:1000F000D0E004C02297FE010E94E40BC83BD10768
:10010000C9F70E9473070C94E80B0C9400008EBD95
:1001100000000DB407FEFDCF8EB50895CF93DF9399
:10012000D82FC62F8AE00E9452056C2F8D2FDF91A9
:10013000CF910C945205CF92DF92EF92FF920F93E2
:100140001F93CF93DF9360E087E090E00E948E00E2
:1001500082EF0E948700CFE2D2E080E00E94870019
:10016000899382E0C533D807C1F761E087E090E06A
:100170000E948E0081E080933502809122028823C4
:1001800009F472C060912F02709130020091310227
:100190001091320280913302C82F80913402D82FFF
:1001A000882777FD8095982F0E94A50A20E030E0EF
:1001B00040E05CE30E94590B6B017C0160932302D9
:1001C000709324028093250290932602B801882719
:1001D00077FD8095982F0E94A50A20E030E040E04E
:1001E0005CE30E94590B609327027093280280936E
:1001F000290290932A02BE01882777FD8095982FC7
:100200000E94A50A20E030E040E05CE30E94590B28
:1002100060932B0270932C0280932D0290932E02F8
:1002200022E030E0B701A60183E492E00E948E094B
:1002300040912702509128026091290270912A0270
:1002400022E030E083E492E00E948E0940912B028C
:1002500050912C0260912D0270912E0222E030E02C
:1002600083E492E00E948E0981E0DF91CF911F919B
:100270000F91FF90EF90DF90CF9008950F931F9311
:10028000CF93DF93082F162FEA0160E0CA010E9486
:100290008E00802F0E948700812F0E94870061E0DE
:1002A000CE010E948E0062E070E080E090E0DF917D
:1002B000CF911F910F910C947B0447E050E061E0D7
:1002C00081E30E943E0147E050E068E08DE20C943B
:1002D0003E010F931F93CF93DF93082F162FEA0150
:1002E00060E0CA010E948E0082E00E948700802F99
:1002F0000E948700812F0E94870061E0CE010E944A
:100300008E0062E070E080E090E0DF91CF911F917D
:100310000F910C947B04CF93DF93D62FC42F48E02A
:1003200050E0682F82E30E94690148E050E06D2FA1
:1003300081E30E94690148E050E06C2F85E3DF9182
:10034000CF910C946901CF93DF93D62FC42F48E04F
:1003500050E0682F82E40E94690148E050E06D2F70
:1003600081E40E94690148E050E06C2F85E4DF9150
:10037000CF910C946901CF93DF93D62FC42F48E01F
:1003800050E0682F82E50E94690148E050E06D2F3F
:1003900081E50E94690148E050E06C2F85E5DF911E
:1003A000CF910C94690148E050E063E08AE20E943A
:1003B000690148E050E060E989E20E94690148E093
:1003C00050E062E088E20E94690180912202882365
:1003D00031F063E071E083E492E00C94CD0708957E
:1003E00048E050E060E08BE20E94690180912202C7
:1003F000882331F065E271E083E492E00C94CD074C
:1004000008951F93CF93DF93182FEB0160E0CE0187
:100410000E948E0083E00E948700812F0E94870047
:1004200080E00E948700182F61E0CE010E948E00BC
:1004300062E070E080E090E00E947B0448E050E0E1
:1004400060E08CE20E946901812FDF91CF911F91C2
:100450000895CF92DF92EF92FF920F931F93CF9365
:10046000DF93062FC3E0D0E048E050E0602F8FE03C
:100470000E94690168E070E08EE00E940102182F7E
:100480000E944C046B017C0160E070E0CB0110170E
:1004900091F0693873418105910594F468E070E04A
:1004A0008EE00E940102182F0E944C046C197D09F5
:1004B0008E099F09ECCF693873418105910564F07D
:1004C00080912202882331F066E771E083E492E0B4
:1004D0000E94CD07219741F680912202882331F0B6
:1004E00060EA71E083E492E00E94C00780912202FA
:1004F000882339F04AE050E0612F83E492E00E94C3
:10050000850880912202882371F069E671E083E416
:1005100092E0DF91CF911F910F91FF90EF90DF90CC
:10052000CF900C94CD07DF91CF911F910F91FF9049
:10053000EF90DF90CF9008951F93CF93DF93182F04
:10054000EB0160E0CE010E948E00812F0E948700A7
:1005500061E0CE010E948E0062E070E080E090E0F9
:10056000DF91CF911F910C947B04CF9368E070E0F2
:1005700080EC0E949C0268E070E08EE00E94010224
:10058000C82F87FFF8CF80912202882331F068EBD3
:1005900071E083E492E00E94C007809122028823E8
:1005A00041F04AE050E06C2F83E492E0CF910C944C
:1005B0008C08CF9108950E94B5020E94D3010E9439
:1005C000F00160E080E00C94290226E040E855E26A
:1005D00060E070E083E492E00E946B0610922202D9
:1005E00061E087E00E94190561E088E00E9419053A
:1005F00061E08AE00E94190561E087E00E945205EF
:1006000061E088E00E94520561E08AE00E945205A4
:1006100080913802882399F09FB7F894809138022E
:10062000813059F48DB3809336022DB38091370217
:10063000809582238DBB9FBF02C0909336028CE5CC
:100640008CBD1DBC0E94CC030E945D010E94DB0298
:1006500047E062E080E40E948B0147E062E080E4D2
:100660000E94A30147E062E080E40E94BB010E9477
:100670004C0460931E0270931F028093200290939B
:10068000210264E670E080E090E00C947B0481300D
:10069000910539F08230910531F0892B29F421E858
:1006A00003C022E801C024E868E070E0822F0C94C7
:1006B0009C020F931F93CF93DF939B0160910001E6
:1006C000662379F0F901EA50FE4F908141505109BB
:1006D0002417350759F51092000121E020930101FC
:1006E00025C060910101662379F0F901E251FE4FC6
:1006F00090814150510924173507C1F4109201012E
:1007000021E02093020112C060910201662371F082
:10071000F901EA51FE4F90814150510924173507E4
:1007200029F41092020121E02093000148E050E0FA
:10073000682F892F0E94690100E011E0C0E0D0E03D
:10074000F80181918F01882319F0CE010E9447039F
:100750002196C330D105A1F7DF91CF911F910F9161
:1007600008950F931F93CF93DF930E949B000FE296
:1007700012E0C0E0D0E047E050E0BE01F801819116
:100780008F010E9459032196C730D105A1F7DF914F
:10079000CF911F910F910895CF93CFB7F894809187
:1007A0003902811127C0EAE9F0E08491E6E8F0E03F
:1007B0009491E82FF0E0EE0FFF1FE255FF4FA59157
:1007C000B4918C91892321F461E08AE00E94520562
:1007D00061E08AE00E9419058CB580618CBD8CB502
:1007E00080648CBD61E08DE00E94190561E08BE0C2
:1007F0000E941905809139028F5F80933902CFBF23
:10080000CF9108951F920F920FB60F9211242F933C
:100810003F938F939F93AF93BF9380913B029091AF
:100820003C02A0913D02B0913E0230913A0223E099
:10083000230F2D3720F40196A11DB11D05C026E818
:10084000230F0296A11DB11D20933A0280933B0213
:1008500090933C02A0933D02B0933E0280913F02F0
:1008600090914002A0914102B09142020196A11DD7
:10087000B11D80933F0290934002A0934102B09338
:100880004202BF91AF919F918F913F912F910F9015
:100890000FBE0F901F9018952FB7F89460913B02F0
:1008A00070913C0280913D0290913E022FBF0895CD
:1008B0003FB7F89480913F0290914002A09141028D
:1008C000B091420226B5A89B05C02F3F19F00196B2
:1008D000A11DB11D3FBF6627782F892F9A2F620F68
:1008E000711D811D911D42E0660F771F881F991FA2
:1008F0004A95D1F708958F929F92AF92BF92CF926F
:10090000DF92EF92FF926B017C010E9458044B0131
:100910005C01C114D104E104F104F1F00E94A009CA
:100920000E945804681979098A099B09683E734036
:100930008105910570F321E0C21AD108E108F108A0
:1009400088EE880E83E0981EA11CB11CC114D1044E
:10095000E104F10429F7DDCFFF90EF90DF90CF9015
:10096000BF90AF909F908F900895789484B58260E7
:1009700084BD84B5816084BD85B5826085BD85B543
:10098000816085BDEEE6F0E0808181608083E1E8F2
:10099000F0E010828081826080838081816080832A
:1009A000E0E8F0E0808181608083E1EBF0E080812D
:1009B00084608083E0EBF0E0808181608083EAE7FF
:1009C000F0E0808184608083808182608083808188
:1009D000816080838081806880831092C100089547
:1009E000833081F028F4813099F08230A1F00895AD
:1009F0008730A9F08830B9F08430D1F4809180003C
:100A00008F7D03C0809180008F7780938000089550
:100A100084B58F7702C084B58F7D84BD08958091A1
:100A2000B0008F7703C08091B0008F7D8093B000BD
:100A30000895CF93DF9390E0FC01E458FF4F249199
:100A4000FC01E057FF4F8491882349F190E0880F23
:100A5000991FFC01E255FF4FA591B4918C559F4F12
:100A6000FC01C591D4919FB7611108C0F8948C9195
:100A7000209582238C93888182230AC0623051F4AE
:100A8000F8948C91322F309583238C938881822B1C
:100A9000888304C0F8948C91822B8C939FBFDF9144
:100AA000CF9108950F931F93CF93DF931F92CDB7EC
:100AB000DEB7282F30E0F901E859FF4F8491F901A2
:100AC000E458FF4F1491F901E057FF4F04910023C0
:100AD000C9F0882321F069830E94F0046981E02F26
:100AE000F0E0EE0FFF1FEC55FF4FA591B4919FB7BB
:100AF000F8948C91611103C01095812301C0812B62
:100B00008C939FBF0F90DF91CF911F910F9108950C
:100B1000FC01818D228D90E0805C9F4F821B9109AA
:100B20008F7399270895FC01918D828D981731F06C
:100B3000828DE80FF11D858D90E008958FEF9FEF76
:100B40000895FC01918D828D981761F0828DDF01EF
:100B5000A80FB11D5D968C91928D9F5F9F73928FB0
:100B600090E008958FEF9FEF089585E297E0892B3D
:100B700049F080E090E0892B29F00E94250781113F
:100B80000C9400000895FC01848DDF01A80FB11DB5
:100B9000A35ABF4F2C91848D90E001968F739927B3
:100BA000848FA689B7892C93A089B1898C918064A0
:100BB0008C93938D848D981306C00288F389E02D61
:100BC00080818F7D80830895CF93DF93EC01888DA2
:100BD0008823C9F0EA89FB89808185FD05C0A88941
:100BE000B9898C9186FD0FC00FB607FCF5CF8081C7
:100BF00085FFF2CFA889B9898C9185FFEDCFCE0111
:100C00000E94C305E7CFDF91CF910895CF92DF9285
:100C1000FF920F931F93CF93DF931F92CDB7DEB751
:100C20006C0181E0D60158968C9358975B969C9105
:100C30005B975C968C915C97981307C05096ED91EA
:100C4000FC915197808185FD2EC0F601038D10E047
:100C50000F5F1F4F0F731127F02EF601848DF812CE
:100C600011C00FB607FCF9CFD6015096ED91FC915B
:100C70005197808185FFF1CFC60169830E94C3052A
:100C80006981EBCF838DE80FF11DE35AFF4F60833D
:100C9000D6015B960C935B975296ED91FC9153971E
:100CA000808180620CC0D6015696ED91FC915797D9
:100CB00060835096ED91FC91519780818064808390
:100CC00081E090E00F90DF91CF911F910F91FF9005
:100CD000DF90CF900895BF92CF92DF92EF92FF9274
:100CE000CF93DF93EC016A017B01B22EE889F98989
:100CF00082E08083411581EE580761057105A1F0FE
:100D000060E079E08DE390E0A70196010E94C00BBE
:100D10002150310941095109569547953795279535
:100D2000211580E1380798F0E889F989108260E898
:100D300074E88EE190E0A70196010E94C00B21505B
:100D40003109410951095695479537952795EC8505
:100D5000FD853083EE85FF852083188EEC89FD8923
:100D6000B082EA89FB89808180618083EA89FB897E
:100D7000808188608083EA89FB89808180688083A4
:100D8000EA89FB8980818F7D8083DF91CF91FF90FD
:100D9000EF90DF90CF90BF9008951F920F920FB603
:100DA0000F9211242F938F939F93EF93FF93E091D2
:100DB0005302F09154028081E0915902F0915A025D
:100DC00082FD12C0908180915C028F5F8F732091B1
:100DD0005D02821751F0E0915C02F0E0ED5BFD4FA7
:100DE000958F80935C0201C08081FF91EF919F916C
:100DF0008F912F910F900FBE0F901F9018951F92FB
:100E00000F920FB60F9211242F933F934F935F933E
:100E10006F937F938F939F93AF93BF93EF93FF93C2
:100E200083E492E00E94C305FF91EF91BF91AF91DF
:100E30009F918F917F916F915F914F913F912F91F2
:100E40000F900FBE0F901F90189583E492E00E94C0
:100E5000880521E0892B09F420E0822F0895109263
:100E600046021092450288EE93E0A0E0B0E0809345
:100E7000470290934802A0934902B0934A0282E04D
:100E800092E0909344028093430285EC90E090932B
:100E9000500280934F0284EC90E090935202809332
:100EA000510280EC90E0909354028093530281ECC5
:100EB00090E0909356028093550282EC90E09093DC
:100EC00058028093570286EC90E090935A028093E8
:100ED000590210925C0210925D0210925E02109212
:100EE0005F02089508950E94B5040E9472070E944F
:100EF000E502C5EBD5E00E94B1032097E1F30E9423
:100F0000B505F9CFCF92DF92EF92FF920F931F9327
:100F1000CF93DF937C016A01EB0100E010E00C1538
:100F20001D0571F06991D701ED91FC910190F0815F
:100F3000E02DC7010995892B19F00F5F1F4FEFCFE7
:100F4000C801DF91CF911F910F91FF90EF90DF903B
:100F5000CF9008956115710581F0DB010D9000209F
:100F6000E9F7AD0141505109461B570BDC01ED91EA
:100F7000FC910280F381E02D099480E090E00895D7
:100F80000C94AA07DC01ED91FC910190F081E02D19
:100F900009946EE072E00C94AA070F931F93CF930D
:100FA000DF93EC010E94AA078C01CE010E94C907C1
:100FB000800F911FDF91CF911F910F9108958F9214
:100FC0009F92AF92BF92DF92EF92FF920F931F9387
:100FD000CF93DF93CDB7DEB7A1970FB6F894DEBFFE
:100FE0000FBECDBF7C01F42FD52ECB0119A222302C
:100FF00008F42AE08E010F5D1F4F822E912CA12C48
:10100000B12C6F2F7D2DA50194010E94C00BF22FF2
:10101000D32ECA01015011096A3014F4E0E301C073
:10102000E7E3E60FD801EC93232B242B252B49F77C
:10103000B801C7010E94AA07A1960FB6F894DEBFB7
:101040000FBECDBFDF91CF911F910F91FF90EF9019
:10105000DF90BF90AF909F908F900895CF92DF92D6
:10106000EF92FF920F931F93CF93DF93EC016A01EE
:101070007B012115310579F4E881F9810190F08136
:10108000E02D642FDF91CF911F910F91FF90EF9092
:10109000DF90CF9009942A303105E9F477FF1AC028
:1010A0006DE20E94C2078C0144275527BA014C19F2
:1010B0005D096E097F092AE0CE010E94DF07800FDB
:1010C000911FDF91CF911F910F91FF90EF90DF90D3
:1010D000CF9008952AE0B701A601CE01DF91CF910C
:1010E0001F910F91FF90EF90DF90CF900C94DF074E
:1010F0002115310541F4DC01ED91FC910190F08165
:10110000E02D642F09940C94DF079A01462F50E0DC
:1011100060E070E00C9478080F931F93CF93DF93F7
:10112000EC019A01462F50E060E070E00E947808E0
:101130008C01CE010E94C907800F911FDF91CF91D2
:101140001F910F9108954F925F926F927F928F92AD
:101150009F92AF92BF92CF92DF92EF92FF920F9346
:101160001F93CF93DF93EC016A017B01B22E9A01AA
:10117000AB01C701B6010E94BC0B882319F061E1E5
:1011800072E027C026013701E89477F82FEF3FEF90
:101190004FE75FE7C301B2010E94BC0B81110DC094
:1011A0002FEF3FEF4FE75FE7C301B2010E94060A4E
:1011B00018161CF465E172E00CC02FEF3FEF4FE70B
:1011C0005FE4C701B6010E94550B1816ACF469E143
:1011D00072E0CE01DF91CF911F910F91FF90EF90C0
:1011E000DF90CF90BF90AF909F908F907F906F9047
:1011F0005F904F900C94AA072FEF3FEF4FE75FEC03
:10120000C701B6010E94060A87FDE1CF20E030E069
:10121000A901C701B6010E94060A87FF0AC06DE254
:10122000CE010E94C2078C01F7FAF094F7F8F0940F
:1012300002C000E010E0A12C60E070E080E09FE3DD
:10124000AB1441F020E030E040E251E40E940A0A91
:10125000A394F6CF9B01AC01C701B6010E94A2097D
:101260006B017C010E94770A2B013C010E94A30ABA
:101270009B01AC01C701B6010E94A1096B017C0171
:101280002AE0B301A201CE010E94DF07080F191F57
:10129000BB2039F06EE971E0CE010E94AA07080F69
:1012A000191F7B2C772041F120E030E040E251E42F
:1012B000C701B6010E94590B6B017C010E94720AA2
:1012C0004B01AA2497FCA094BA2C2AE030E0B50187
:1012D000A401CE010E942E08080F191FC501B401F8
:1012E0000E94A50A9B01AC01C701B6010E94A10999
:1012F0006B017C017A94D6CFC801DF91CF911F9109
:101300000F91FF90EF90DF90CF90BF90AF909F90A4
:101310008F907F906F905F904F9008950F931F93E1
:10132000CF93DF93EC010E94A3088C01CE010E94B1
:10133000C907800F911FDF91CF911F910F910895E1
:1013400008955058BB27AA270ED075C166D130F03A
:101350006BD120F031F49F3F11F41EF45BC10EF409
:10136000E095E7FB51C1E92F77D180F3BA17620707
:1013700073078407950718F071F49EF58FC10EF47A
:10138000E0950B2EBA2FA02D0B01B90190010C0195
:10139000CA01A0011124FF27591B99F0593F50F4AD
:1013A000503E68F11A16F040A22F232F342F442705
:1013B000585FF3CF469537952795A795F0405395FD
:1013C000C9F77EF41F16BA0B620B730B840BBAF0CD
:1013D0009150A1F0FF0FBB1F661F771F881FC2F738
:1013E0000EC0BA0F621F731F841F48F4879577954C
:1013F0006795B795F7959E3F08F0B3CF9395880F03
:1014000008F09927EE0F979587950895D9D008F49D
:1014100081E008950CD00FC107D140F0FED030F02C
:1014200021F45F3F19F0F0C0511139C1F3C014D15C
:1014300098F39923C9F35523B1F3951B550BBB279B
:10144000AA2762177307840738F09F5F5F4F220F48
:10145000331F441FAA1FA9F333D00E2E3AF0E0E841
:1014600030D091505040E695001CCAF729D0FE2F8D
:1014700027D0660F771F881FBB1F2617370748071F
:10148000AB07B0E809F0BB0B802DBF01FF279358D5
:101490005F4F2AF09E3F510568F0B6C000C15F3F24
:1014A000ECF3983EDCF3869577956795B795F795BD
:1014B0009F5FC9F7880F911D9695879597F90895B5
:1014C000E1E0660F771F881FBB1F62177307840751
:1014D000BA0720F0621B730B840BBA0BEE1F88F760
:1014E000E095089504D06894B111D9C00895BCD096
:1014F00088F09F5790F0B92F9927B751A0F0D1F0FD
:10150000660F771F881F991F1AF0BA95C9F712C086
:10151000B13081F0C3D0B1E00895C0C0672F782FFB
:101520008827B85F39F0B93FCCF3869577956795F2
:10153000B395D9F73EF490958095709561957F4F5E
:101540008F4F9F4F0895E89409C097FB3EF4909504
:101550008095709561957F4F8F4F9F4F9923A9F08C
:10156000F92F96E9BB279395F6958795779567951B
:10157000B795F111F8CFFAF4BB0F11F460FF1BC05F
:101580006F5F7F4F8F4F9F4F16C0882311F096E9F2
:1015900011C0772321F09EE8872F762F05C06623A0
:1015A00071F096E8862F70E060E02AF09A95660F59
:1015B000771F881FDAF7880F9695879597F9089512
:1015C000990F0008550FAA0BE0E8FEEF1616170654
:1015D000E807F907C0F012161306E407F50798F0BC
:1015E000621B730B840B950B39F40A2661F0232BD5
:1015F000242B252B21F408950A2609F4A140A69551
:101600008FEF811D811D089597F99F6780E870E035
:1016100060E008959FEF80EC089500240A94161668
:10162000170618060906089500240A9412161306D0
:10163000140605060895092E0394000C11F488235E
:1016400052F0BB0F40F4BF2B11F460FF04C06F5F7A
:101650007F4F8F4F9F4F089557FD9058440F551F50
:1016600059F05F3F71F04795880F97FB991F61F024
:101670009F3F79F087950895121613061406551F9B
:10168000F2CF4695F1DF08C0161617061806991F07
:10169000F1CF86957105610508940895E894BB27FC
:1016A00066277727CB0197F908958ADF08F48FEF33
:1016B00008950BD0C0CFB1DF28F0B6DF18F0952326
:1016C00009F0A2CFA7CF1124EACFC6DFA0F3959FE0
:1016D000D1F3950F50E0551F629FF001729FBB2719
:1016E000F00DB11D639FAA27F00DB11DAA1F649FC5
:1016F0006627B00DA11D661F829F2227B00DA11D78
:10170000621F739FB00DA11D621F839FA00D611DFD
:10171000221F749F3327A00D611D231F849F600D1E
:10172000211D822F762F6A2F11249F5750408AF057
:10173000E1F088234AF0EE0FFF1FBB1F661F771FE3
:10174000881F91505040A9F79E3F510570F05CCF23
:10175000A6CF5F3FECF3983EDCF3869577956795CF
:10176000B795F795E7959F5FC1F7FE2B880F911D01
:101770009695879597F9089523DF880B990B08951F
:10178000A1E21A2EAA1BBB1BFD010DC0AA1FBB1F85
:10179000EE1FFF1FA217B307E407F50720F0A21BF7
:1017A000B30BE40BF50B661F771F881F991F1A9464
:1017B00069F760957095809590959B01AC01BD018E
:1017C000CF010895EE0FFF1F0590F491E02D0994CD
:0417D000F894FFCFBB
:1017D4000100004D63703235313520636F6E6669E8
:1017E40067757265206275732073756363657366CC
:1017F400756C6C79004D63703235313520636F6ED2
:1018040066696775726520696E7465727275707445
:10181400732073756363657366756C6C79004D63CF
:10182400703235313520636F6E6669677572652075
:10183400727820627566666572207375636365737A
:1018440066756C6C790041626F727420776169749B
:10185400696E672E204D61782E2077616974696EF8
:10186400672074696D6520726561636865642E0024
:101874004D63703235313520737769746368207431
:101884006F206D6F646520004D63703235313520F3
:1018940072657365742073756363657366756C6CC8
:1018A4007920616E642073776974636820646F20A3
:1018B4006D6F64652000565758595A5B5C5D464706
:1018C40048494A4B4C4D363738393A3B3C3D000089
:1018D4000000060682078805A1059305E4050D0AA4
:0E18E400006E616E00696E66006F7666000031
:00000001FF
