:100000000C945D000C9485000C9485000C94850084
:100010000C9485000C9485000C9485000C9485004C
:100020000C9485000C9485000C9485000C9485003C
:100030000C9485000C9485000C9485000C9485002C
:100040000C9423030C9485000C94A9040C94DB04F9
:100050000C9485000C9485000C9485000C9485000C
:100060000C9485000C94850000000008000201003B
:100070000003040700000000000000000102040863
:100080001020408001020408102001020408102002
:10009000040404040404040402020202020203032E
:1000A0000303030300000000250028002B000000CC
:1000B0000000240027002A000B0511241FBECFEFEB
:1000C000D8E0DEBFCDBF12E0A0E0B1E0E8E7FEE09F
:1000D00002C005900D92A031B107D9F722E0A0E14E
:1000E000B2E001C01D92A73CB207E1F710E0CAEBF5
:1000F000D0E004C02297FE010E943607C83BD1071A
:10010000C9F70E944F050C943A070C9400008EBD6D
:1001100000000DB407FEFDCF8EB50895CF93DF9399
:10012000D82FC62F8AE00E9473046C2F8D2FDF9189
:10013000CF910C947304CF93DF930E946D0360E022
:1001400084E090E00E948E0082EF0E948700C5E16B
:10015000D2E080E00E948700899382E0CB31D8070B
:10016000C1F761E084E090E00E948E0081E080931E
:100170001B02DF91CF9108950F931F93CF93DF93CD
:10018000082F162FEA0160E0CA010E948E00802F1E
:100190000E948700812F0E94870061E0CE01DF91DD
:1001A000CF911F910F910C948E0044E050E061E0DC
:1001B00081E30E94BC0044E050E068E08DE20C94D2
:1001C000BC000F931F93CF93DF93082F162FEA01E4
:1001D00060E0CA010E948E0082E00E948700802FAA
:1001E0000E948700812F0E94870061E0CE01DF918D
:1001F000CF911F910F910C948E0048E050E062E087
:100200008AE20E94E10048E050E060E989E20E9451
:10021000E10048E050E062E088E20E94E100809165
:100220001C02882331F060E071E08AE292E00C94D5
:10023000A205089548E050E063E08BE20E94E100EF
:1002400080911C02882331F062E271E08AE292E040
:100250000C94A205089548E050E063E080E60E9417
:10026000E10048E050E063E080E70E94E100809117
:100270001C02882331F06BE471E08AE292E00C9476
:10028000A20508951F93CF93DF93182FEB0160E031
:10029000CE010E948E0083E00E948700812F0E9481
:1002A000870080E00E948700182F61E0CE010E9445
:1002B0008E0061E070E080E090E00E949C0348E0E6
:1002C00050E060E08CE20E94E100812FDF91CF914D
:1002D0001F910895CF92DF92EF92FF920F931F9399
:1002E000CF93DF93062FC3E0D0E048E050E0602FCB
:1002F0008FE00E94E10068E070E08EE00E94420121
:10030000182F0E946D036B017C0160E070E0CB014F
:10031000101791F0693873418105910594F468E0F4
:1003200070E08EE00E944201182F0E946D036C194C
:100330007D098E099F09ECCF6938734181059105CC
:1003400064F080911C02882331F069E771E08AE251
:1003500092E00E94A205219741F680911C02882319
:1003600031F063EA71E08AE292E00E949C0580919C
:100370001C02882339F04AE050E0612F8AE292E0C3
:100380000E94100680911C02882371F06CE671E0D7
:100390008AE292E0DF91CF911F910F91FF90EF9051
:1003A000DF90CF900C94A205DF91CF911F910F9118
:1003B000FF90EF90DF90CF900895CF93DF93D62FEB
:1003C000C42F48E050E0682F82E30E94E10048E03B
:1003D00050E06D2F81E30E94E10048E050E06C2F77
:1003E00085E3DF91CF910C94E1001F93CF93DF93CE
:1003F000182FEB0160E0CE010E948E00812F0E9439
:10040000870061E0CE01DF91CF911F910C948E00A7
:10041000CF9368E070E080EC0E94F50168E070E046
:100420008EE00E944201C82F87FFF8CF80911C0206
:10043000882331F06BEB71E08AE292E00E949C0528
:1004400080911C02882341F04AE050E06C2F8AE240
:1004500092E0CF910C941706CF91089564E670E076
:1004600080E090E00E949C030E94080264E670E035
:1004700080E090E00E949C030E94FD0064E670E032
:1004800080E090E00E949C030E941A0164E670E004
:1004900080E090E00E949C030E942B0164E670E0E3
:1004A00080E090E00E949C0360E080E00E946A018E
:1004B00064E670E080E090E00C949C0381E080931F
:1004C000100280931C0261E084E00E943A0461E023
:1004D00088E00E943A0461E08AE00E943A0461E008
:1004E00084E00E94730461E088E00E94730461E08C
:1004F0008AE00E94730480911F02882399F09FB7BD
:10050000F89480911F02813059F48DB380931D02BD
:100510002DB380911E02809582238DBB9FBF02C0A8
:1005200090931D028DE58CBD1DBC0E94ED020E94C2
:10053000D5000E942E0247E060E081E00E94DD01CC
:1005400064E670E080E090E00E949C030E946D03EE
:10055000609311027093120280931302909314021D
:1005600008958130910539F08230910531F0892B61
:1005700029F421E803C022E801C024E868E070E023
:10058000822F0C94F501982F862F48E050E0692FB8
:100590000E94E10080E090E00E94B10261E070E022
:1005A00080E090E00C949C030F931F93CF93DF9314
:1005B0000E949B00C9EED1E005E112E06991F801CB
:1005C00081918F010E94C302F1E0C03FDF07B1F7C4
:1005D000DF91CF911F910F910895CF93CFB7F894EA
:1005E00080912002811127C0EAE9F0E08491E6E8D9
:1005F000F0E09491E82FF0E0EE0FFF1FE255FF4F7F
:10060000A591B4918C91892321F461E08AE00E9444
:10061000730461E08AE00E943A048CB580618CBD6D
:100620008CB580648CBD61E08DE00E943A0461E08D
:100630008BE00E943A04809120028F5F8093200219
:10064000CFBFCF9108951F920F920FB60F92112432
:100650002F933F938F939F93AF93BF9380912202E9
:1006600090912302A0912402B091250230912102A1
:1006700023E0230F2D3720F40196A11DB11D05C0E5
:1006800026E8230F0296A11DB11D2093210280931D
:10069000220290932302A0932402B093250280911A
:1006A000260290912702A0912802B091290201967A
:1006B000A11DB11D8093260290932702A0932802CA
:1006C000B0932902BF91AF919F918F913F912F914C
:1006D0000F900FBE0F901F9018952FB7F894609150
:1006E00022027091230280912402909125022FBF53
:1006F00008953FB7F8948091260290912702A09127
:100700002802B091290226B5A89B05C02F3F19F0F9
:100710000196A11DB11D3FBF6627782F892F9A2F03
:10072000620F711D811D911D42E0660F771F881FAA
:10073000991F4A95D1F708958F929F92AF92BF92D9
:10074000CF92DF92EF92FF926B017C010E947903BE
:100750004B015C01C114D104E104F104F1F00E94E9
:100760002E060E947903681979098A099B09683E57
:1007700073408105910570F321E0C21AD108E108A8
:10078000F10888EE880E83E0981EA11CB11CC114EC
:10079000D104E104F10429F7DDCFFF90EF90DF9061
:1007A000CF90BF90AF909F908F900895789484B52C
:1007B000826084BD84B5816084BD85B5826085BD5D
:1007C00085B5816085BDEEE6F0E080818160808343
:1007D000E1E8F0E010828081826080838081816026
:1007E0008083E0E8F0E0808181608083E1EBF0E0ED
:1007F000808184608083E0EBF0E080818160808391
:10080000EAE7F0E080818460808380818260808379
:100810008081816080838081806880831092C100A4
:100820000895833081F028F4813099F08230A1F06E
:1008300008958730A9F08830B9F08430D1F48091E0
:1008400080008F7D03C0809180008F77809380002F
:10085000089584B58F7702C084B58F7D84BD0895D7
:100860008091B0008F7703C08091B0008F7D80931E
:10087000B0000895CF93DF9390E0FC01E458FF4F60
:100880002491FC01E057FF4F8491882349F190E0C7
:10089000880F991FFC01E255FF4FA591B4918C552B
:1008A0009F4FFC01C591D4919FB7611108C0F89486
:1008B0008C91209582238C93888182230AC0623098
:1008C00051F4F8948C91322F309583238C93888146
:1008D000822B888304C0F8948C91822B8C939FBFC9
:1008E000DF91CF9108950F931F93CF93DF931F92C2
:1008F000CDB7DEB7282F30E0F901E859FF4F8491DA
:10090000F901E458FF4F1491F901E057FF4F0491AA
:100910000023C9F0882321F069830E9411046981B2
:10092000E02FF0E0EE0FFF1FEC55FF4FA591B491C3
:100930009FB7F8948C91611103C01095812301C079
:10094000812B8C939FBF0F90DF91CF911F910F91BF
:1009500008951F920F920FB60F9211242F938F9329
:100960009F93EF93FF93E0913A02F0913B028081D5
:10097000E0914002F091410282FD12C0908180918D
:1009800043028F5F8F7320914402821751F0E091F0
:100990004302F0E0E65DFD4F958F8093430201C076
:1009A0008081FF91EF919F918F912F910F900FBEBA
:1009B0000F901F9018951F920F920FB60F9211244F
:1009C0002F933F934F935F936F937F938F939F9357
:1009D000AF93BF93EF93FF938AE292E00E946A067F
:1009E000FF91EF91BF91AF919F918F917F916F9107
:1009F0005F914F913F912F910F900FBE0F901F90DD
:100A000018958AE292E00E942F0621E0892B09F4D2
:100A100020E0822F089510922D0210922C0288EE71
:100A200093E0A0E0B0E080932E0290932F02A09379
:100A30003002B093310284E092E090932B028093D5
:100A40002A0285EC90E0909337028093360284EC82
:100A500090E0909339028093380280EC90E090937C
:100A60003B0280933A0281EC90E090933D028093A8
:100A70003C0282EC90E090933F0280933E0286EC31
:100A800090E09093410280934002109243021092B2
:100A900044021092450210924602089508950E9461
:100AA000D6030E944E050E945E02CCE5D6E00E946D
:100AB000D4022097E1F30E945C06F9CFCF92DF9237
:100AC000EF92FF920F931F93CF93DF937C016A0104
:100AD000EB0100E010E00C151D0571F06991D701E4
:100AE000ED91FC910190F081E02DC7010995892BD2
:100AF00019F00F5F1F4FEFCFC801DF91CF911F910A
:100B00000F91FF90EF90DF90CF90089561157105E0
:100B100081F0DB010D900020E9F7AD014150510952
:100B2000461B570BDC01ED91FC910280F381E02D17
:100B3000099480E090E008950C94860561EF71E0DF
:100B40000C9486050F931F93CF93DF93EC010E94C3
:100B500086058C01CE010E949E05800F911FDF91BA
:100B6000CF911F910F9108958F929F92AF92BF9254
:100B7000DF92EF92FF920F931F93CF93DF93CDB746
:100B8000DEB7A1970FB6F894DEBF0FBECDBF7C01D4
:100B9000F42FD52ECB0119A2223008F42AE08E01C1
:100BA0000F5D1F4F822E912CA12CB12C6F2F7D2D0C
:100BB000A50194010E941207F22FD32ECA01015001
:100BC00011096A3014F4E0E301C0E7E3E60FD8014D
:100BD000EC93232B242B252B49F7B801C7010E9446
:100BE0008605A1960FB6F894DEBF0FBECDBFDF918C
:100BF000CF911F910F91FF90EF90DF90BF90AF903A
:100C00009F908F9008952115310541F4DC01ED91FD
:100C1000FC910190F081E02D642F09940C94B405AF
:100C20009A01462F50E060E070E00C9403060F93A9
:100C30001F93CF93DF93EC019A01462F50E060E0C1
:100C400070E00E9403068C01CE010E949E05800F79
:100C5000911FDF91CF911F910F9108950895FC018D
:100C6000818D228D90E0805C9F4F821B91098F7354
:100C700099270895FC01918D828D981731F0828D0E
:100C8000E80FF11D858D90E008958FEF9FEF089597
:100C9000FC01918D828D981761F0828DDF01A80F84
:100CA000B11D5D968C91928D9F5F9F73928F90E0A6
:100CB00008958FEF9FEF089581E095E0892B49F02B
:100CC00080E090E0892B29F00E94010581110C94AD
:100CD00000000895FC01848DDF01A80FB11DA35A07
:100CE000BF4F2C91848D90E001968F739927848F4C
:100CF000A689B7892C93A089B1898C9180648C9343
:100D0000938D848D981306C00288F389E02D80812D
:100D10008F7D80830895CF93DF93EC01888D8823A6
:100D2000C9F0EA89FB89808185FD05C0A889B98958
:100D30008C9186FD0FC00FB607FCF5CF808185FF33
:100D4000F2CFA889B9898C9185FFEDCFCE010E94A1
:100D50006A06E7CFDF91CF910895CF92DF92FF929D
:100D60000F931F93CF93DF931F92CDB7DEB76C0124
:100D700081E0D60158968C9358975B969C915B972F
:100D80005C968C915C97981307C05096ED91FC91FE
:100D90005197808185FD2EC0F601038D10E00F5F15
:100DA0001F4F0F731127F02EF601848DF81211C01A
:100DB0000FB607FCF9CFD6015096ED91FC915197F3
:100DC000808185FFF1CFC60169830E946A0669812F
:100DD000EBCF838DE80FF11DE35AFF4F6083D601FF
:100DE0005B960C935B975296ED91FC9153978081A3
:100DF00080620CC0D6015696ED91FC9157976083A6
:100E00005096ED91FC91519780818064808381E0C0
:100E100090E00F90DF91CF911F910F91FF90DF90A5
:100E2000CF900895A1E21A2EAA1BBB1BFD010DC095
:100E3000AA1FBB1FEE1FFF1FA217B307E407F5078A
:100E400020F0A21BB30BE40BF50B661F771F881F66
:100E5000991F1A9469F760957095809590959B01FC
:100E6000AC01BD01CF010895EE0FFF1F0590F49175
:080E7000E02D0994F894FFCF76
:100E78004D63703235313520636F6E666967757200
:100E880065206275732073756363657366756C6C32
:100E980079004D63703235313520636F6E6669674E
:100EA80075726520696E74657272757074732073DB
:100EB800756363657366756C6C79004D6370323564
:100EC800313520636F6E666967757265206D617371
:100ED8006B73202F2066696C746572732073756359
:100EE80063657366756C6C790041626F7274207704
:100EF800616974696E672E204D61782E207761696B
:100F080074696E672074696D6520726561636865D0
:100F1800642E004D63703235313520737769746300
:100F28006820746F206D6F646520004D63703235E2
:100F380031352072657365742073756363657366F4
:100F4800756C6C7920616E642073776974636820AE
:100F5800646F206D6F64652000363738393A3B3C42
:100F68003D0D0A006E616E00696E66006F76660060
:100F780000000000AD065E052F0648063A068B06FF
:00000001FF
