:100000000C945D000C9485000C9485000C94850084
:100010000C9485000C9485000C9485000C9485004C
:100020000C9485000C9485000C9485000C9485003C
:100030000C9485000C9485000C9485000C9485002C
:100040000C9404040C9485000C948A050C94BC0553
:100050000C9485000C9485000C9485000C9485000C
:100060000C9485000C94850000000008000201003B
:100070000003040700000000000000000102040863
:100080001020408001020408102001020408102002
:10009000040404040404040402020202020203032E
:1000A0000303030300000000250028002B000000CC
:1000B0000000240027002A00EC0511241FBECFEF0A
:1000C000D8E0DEBFCDBF12E0A0E0B1E0E4E1F7E1AF
:1000D00002C005900D92AC34B107D9F723E0ACE42F
:1000E000B2E001C01D92AE30B207E1F710E0CAEBFA
:1000F000D0E004C02297FE010E94840BC83BD107C8
:10010000C9F70E9430060C94880B0C9400008EBD39
:1001100000000DB407FEFDCF8EB50895CF93DF9399
:10012000D82FC62F8AE00E9454056C2F8D2FDF91A7
:10013000CF910C945405CF92DF92EF92FF920F93E0
:100140001F93CF93DF9360E087E090E00E948E00E2
:1001500082EF0E948700CDE5D2E080E00E94870018
:10016000899382E0C336D807C1F761E087E090E069
:100170000E948E0081E08093630280915002882368
:1001800009F472C060915D0270915E0200915F029D
:100190001091600280916102C82F80916202D82F75
:1001A000882777FD8095982F0E94450A20E030E04F
:1001B00040E05CE30E94F90A6B017C01609351020C
:1001C000709352028093530290935402B80188278F
:1001D00077FD8095982F0E94450A20E030E040E0AE
:1001E0005CE30E94F90A6093550270935602809373
:1001F000570290935802BE01882777FD8095982F6B
:100200000E94450A20E030E040E05CE30E94F90AE9
:100210006093590270935A0280935B0290935C0240
:1002200022E030E0B701A60181E792E00E944B088E
:1002300040915502509156026091570270915802B8
:1002400022E030E081E792E00E944B0840915902A1
:1002500050915A0260915B0270915C0222E030E0A2
:1002600081E792E00E944B0881E0DF91CF911F91DE
:100270000F91FF90EF90DF90CF9008950F931F9311
:10028000CF93DF93082F162FEA0160E0CA010E9486
:100290008E00802F0E948700812F0E94870061E0DE
:1002A000CE010E948E0062E070E080E090E0DF917D
:1002B000CF911F910F910C947D0447E050E061E0D5
:1002C00081E30E943E0147E050E068E08DE20C943B
:1002D0003E010F931F93CF93DF93082F162FEA0150
:1002E00060E0CA010E948E0082E00E948700802F99
:1002F0000E948700812F0E94870061E0CE010E944A
:100300008E0062E070E080E090E0DF91CF911F917D
:100310000F910C947D04CF93DF93D62FC42F48E028
:1003200050E0682F82E30E94690148E050E06D2FA1
:1003300081E30E94690148E050E06C2F85E3DF9182
:10034000CF910C946901CF93DF93D62FC42F48E04F
:1003500050E0682F82E40E94690148E050E06D2F70
:1003600081E40E94690148E050E06C2F85E4DF9150
:10037000CF910C946901CF93DF93D62FC42F48E01F
:1003800050E0682F82E50E94690148E050E06D2F3F
:1003900081E50E94690148E050E06C2F85E5DF911E
:1003A000CF910C94690148E050E063E08AE20E943A
:1003B000690148E050E060E989E20E94690148E093
:1003C00050E062E088E20E94690180915002882337
:1003D00031F063E071E081E792E00C948A060895C1
:1003E00048E050E060E08BE20E9469018091500299
:1003F000882331F065E271E081E792E00C948A068F
:1004000008951F93CF93DF93182FEB0160E0CE0187
:100410000E948E0083E00E948700812F0E94870047
:1004200080E00E948700182F61E0CE010E948E00BC
:1004300062E070E080E090E00E947D0448E050E0DF
:1004400060E08CE20E946901812FDF91CF911F91C2
:100450000895CF92DF92EF92FF920F931F93CF9365
:10046000DF93062FC3E0D0E048E050E0602F8FE03C
:100470000E94690168E070E08EE00E940102182F7E
:100480000E944E046B017C0160E070E0CB0110170C
:1004900091F0693873418105910594F468E070E04A
:1004A0008EE00E940102182F0E944E046C197D09F3
:1004B0008E099F09ECCF693873418105910564F07D
:1004C00080915002882331F066E771E081E792E085
:1004D0000E948A06219741F680915002882331F0CC
:1004E00060EA71E081E792E00E947D06809150020F
:1004F000882339F04AE050E0612F81E792E00E94C2
:10050000420780915002882371F069E671E081E72B
:1005100092E0DF91CF911F910F91FF90EF90DF90CC
:10052000CF900C948A06DF91CF911F910F91FF908D
:10053000EF90DF90CF9008951F93CF93DF93182F04
:10054000EB0160E0CE010E948E00812F0E948700A7
:1005500061E0CE010E948E0062E070E080E090E0F9
:10056000DF91CF911F910C947D04CF9368E070E0F0
:1005700080EC0E949C0268E070E08EE00E94010224
:10058000C82F87FFF8CF80915002882331F068EBA5
:1005900071E081E792E00E947D06809150028823FD
:1005A00041F04AE050E06C2F81E792E0CF910C944B
:1005B0004907CF9108950E94B5020E94D3010E947D
:1005C000F00180915002882331F066EE71E081E7FE
:1005D00092E00E948A0660E080E00C94290210926A
:1005E000500261E087E00E941B0561E088E00E9404
:1005F0001B0561E08AE00E941B0561E087E00E9424
:10060000540561E088E00E94540561E08AE00E94A0
:10061000540580916602882399F09FB7F8948091E1
:100620006602813059F48DB3809364022DB38091BA
:100630006502809582238DBB9FBF02C090936402A8
:100640008CE58CBD1DBC0E94CE030E945D010E9402
:10065000DB0247E060E080E00E948B0147E060E061
:1006600080E00E94A30147E060E080E00E94BB01BF
:1006700064E670E080E090E00E947D040E944E04F9
:1006800060934C0270934D0280934E0290934F0200
:1006900008958130910539F08230910531F0892B30
:1006A00029F421E803C022E801C024E868E070E0F2
:1006B000822F0C949C020F931F93CF93DF939B0187
:1006C00060910001662379F0F901EC5DFD4F9081A6
:1006D000415051092417350759F51092000121E0C6
:1006E0002093010125C060910101662379F0F90191
:1006F000E45EFD4F90814150510924173507C1F444
:100700001092010121E02093020112C060910201C8
:10071000662371F0F901EC5EFD4F90814150510963
:100720002417350729F41092020121E020930001DB
:1007300048E050E0682F892F0E94690100E011E035
:10074000C0E0D0E0F80181918F01882319F0CE013B
:100750000E9449032196C330D105A1F7DF91CF91C3
:100760001F910F9108950F931F93CF93DF930E94D2
:100770009B000DE512E0C0E0D0E047E050E0BE0194
:10078000F80181918F010E945B032196C730D1054A
:10079000A1F7DF91CF911F910F910895CF93CFB71C
:1007A000F89480916702811127C0EAE9F0E0849112
:1007B000E6E8F0E09491E82FF0E0EE0FFF1FE2553D
:1007C000FF4FA591B4918C91892321F461E08AE0D7
:1007D0000E94540561E08AE00E941B058CB580618F
:1007E0008CBD8CB580648CBD61E08DE00E941B05E2
:1007F00061E08BE00E941B05809167028F5F809310
:100800006702CFBFCF9108951F920F920FB60F923C
:1008100011242F933F938F939F93AF93BF93809116
:10082000690290916A02A0916B02B0916C023091C2
:10083000680223E0230F2D3720F40196A11DB11D7E
:1008400005C026E8230F0296A11DB11D2093680262
:100850008093690290936A02A0936B02B0936C023A
:1008600080916D0290916E02A0916F02B091700222
:100870000196A11DB11D80936D0290936E02A0930D
:100880006F02B0937002BF91AF919F918F913F9192
:100890002F910F900FBE0F901F9018952FB7F894BF
:1008A0006091690270916A0280916B0290916C0272
:1008B0002FBF08953FB7F89480916D0290916E021A
:1008C000A0916F02B091700226B5A89B05C02F3F82
:1008D00019F00196A11DB11D3FBF6627782F892F02
:1008E0009A2F620F711D811D911D42E0660F771FC7
:1008F000881F991F4A95D1F708958F929F92AF92C2
:10090000BF92CF92DF92EF92FF926B017C010E9427
:100910005A044B015C01C114D104E104F104F1F06B
:100920000E945D080E945A04681979098A099B0986
:10093000683E73408105910570F321E0C21AD10829
:10094000E108F10888EE880E83E0981EA11CB11C16
:10095000C114D104E104F10429F7DDCFFF90EF9039
:10096000DF90CF90BF90AF909F908F900895789434
:1009700084B5826084BD84B5816084BD85B58260A4
:1009800085BD85B5816085BDEEE6F0E08081816042
:100990008083E1E8F0E01082808182608083808142
:1009A00081608083E0E8F0E0808181608083E1EB1A
:1009B000F0E0808184608083E0EBF0E08081816002
:1009C0008083EAE7F0E080818460808380818260B8
:1009D00080838081816080838081806880831092A1
:1009E000C1000895833081F028F4813099F082307D
:1009F000A1F008958730A9F08830B9F08430D1F49F
:100A0000809180008F7D03C0809180008F778093DC
:100A10008000089584B58F7702C084B58F7D84BD32
:100A200008958091B0008F7703C08091B0008F7DD2
:100A30008093B0000895CF93DF9390E0FC01E458D9
:100A4000FF4F2491FC01E057FF4F8491882349F127
:100A500090E0880F991FFC01E255FF4FA591B491DA
:100A60008C559F4FFC01C591D4919FB7611108C06F
:100A7000F8948C91209582238C93888182230AC0DC
:100A8000623051F4F8948C91322F309583238C93FB
:100A90008881822B888304C0F8948C91822B8C935C
:100AA0009FBFDF91CF9108950F931F93CF93DF9353
:100AB0001F92CDB7DEB7282F30E0F901E859FF4F7C
:100AC0008491F901E458FF4F1491F901E057FF4F69
:100AD00004910023C9F0882321F069830E94F20465
:100AE0006981E02FF0E0EE0FFF1FEC55FF4FA5915D
:100AF000B4919FB7F8948C91611103C01095812334
:100B000001C0812B8C939FBF0F90DF91CF911F91DC
:100B10000F9108951F920F920FB60F9211242F93E9
:100B20008F939F93EF93FF93E0918102F091820264
:100B30008081E0918702F091880282FD12C090814D
:100B400080918A028F5F8F7320918B02821751F000
:100B5000E0918A02F0E0EF58FD4F958F80938A0272
:100B600001C08081FF91EF919F918F912F910F9004
:100B70000FBE0F901F9018951F920F920FB60F92F5
:100B800011242F933F934F935F936F937F938F9392
:100B90009F93AF93BF93EF93FF9381E792E00E94FF
:100BA0009908FF91EF91BF91AF919F918F917F91A4
:100BB0006F915F914F913F912F910F900FBE0F90CA
:100BC0001F90189581E792E00E945E0821E0892B32
:100BD00009F420E0822F089510927402109273029B
:100BE00088EE93E0A0E0B0E08093750290937602E7
:100BF000A0937702B09378028FE392E09093720211
:100C00008093710285EC90E090937E0280937D0248
:100C100084EC90E09093800280937F0280EC90E0DF
:100C2000909382028093810281EC90E09093840201
:100C30008093830282EC90E09093860280938502F9
:100C400086EC90E0909388028093870210928A024B
:100C500010928B0210928C0210928D0208950895CA
:100C60000E94B7040E942F060E94EF02CBE8D8E052
:100C70000E94B3032097E1F30E948B08F9CFCF9233
:100C8000DF92EF92FF920F931F93CF93DF937C013C
:100C90006A01EB0100E010E00C151D0571F069918F
:100CA000D701ED91FC910190F081E02DC7010995EC
:100CB000892B19F00F5F1F4FEFCFC801DF91CF9144
:100CC0001F910F91FF90EF90DF90CF9008956115E5
:100CD000710581F0DB010D900020E9F7AD01415075
:100CE0005109461B570BDC01ED91FC910280F38109
:100CF000E02D099480E090E008950C946706DC01F3
:100D0000ED91FC910190F081E02D09946CE272E08C
:100D10000C9467060F931F93CF93DF93EC010E940F
:100D200067068C01CE010E948606800F911FDF911D
:100D3000CF911F910F9108958F929F92AF92BF9282
:100D4000DF92EF92FF920F931F93CF93DF93CDB774
:100D5000DEB7A1970FB6F894DEBF0FBECDBF7C0102
:100D6000F42FD52ECB0119A2223008F42AE08E01EF
:100D70000F5D1F4F822E912CA12CB12C6F2F7D2D3A
:100D8000A50194010E94600BF22FD32ECA010150DD
:100D900011096A3014F4E0E301C0E7E3E60FD8017B
:100DA000EC93232B242B252B49F7B801C7010E9474
:100DB0006706A1960FB6F894DEBF0FBECDBFDF91D8
:100DC000CF911F910F91FF90EF90DF90BF90AF9068
:100DD0009F908F900895CF92DF92EF92FF920F93A2
:100DE0001F93CF93DF93EC016A017B01211531053D
:100DF00079F4E881F9810190F081E02D642FDF9191
:100E0000CF911F910F91FF90EF90DF90CF900994B9
:100E10002A303105E9F477FF1AC06DE20E947F069F
:100E20008C0144275527BA014C195D096E097F09C9
:100E30002AE0CE010E949C06800F911FDF91CF9186
:100E40001F910F91FF90EF90DF90CF9008952AE0CF
:100E5000B701A601CE01DF91CF911F910F91FF90B5
:100E6000EF90DF90CF900C949C062115310541F452
:100E7000DC01ED91FC910190F081E02D642F09944B
:100E80000C949C069A01462F50E060E070E00C94B0
:100E900035070F931F93CF93DF93EC019A01462FF1
:100EA00050E060E070E00E9435078C01CE010E94A6
:100EB0008606800F911FDF91CF911F910F910895AA
:100EC0004F925F926F927F928F929F92AF92BF925A
:100ED000CF92DF92EF92FF920F931F93CF93DF9306
:100EE000EC016A017B01B22E9A01AB01C701B60188
:100EF0000E945C0B882319F06FE272E027C0260184
:100F00003701E89477F82FEF3FEF4FE75FE7C30132
:100F1000B2010E945C0B81110DC02FEF3FEF4FE734
:100F20005FE7C301B2010E94A60918161CF463E32F
:100F300072E00CC02FEF3FEF4FE75FE4C701B6014F
:100F40000E94F50A1816ACF467E372E0CE01DF9157
:100F5000CF911F910F91FF90EF90DF90CF90BF90B6
:100F6000AF909F908F907F906F905F904F900C9478
:100F700067062FEF3FEF4FE75FECC701B6010E9416
:100F8000A60987FDE1CF20E030E0A901C701B60145
:100F90000E94A60987FF0AC06DE2CE010E947F066B
:100FA0008C01F7FAF094F7F8F09402C000E010E03A
:100FB000A12C60E070E080E09FE3AB1441F020E002
:100FC00030E040E251E40E94AA09A394F6CF9B01CD
:100FD000AC01C701B6010E9442096B017C010E946D
:100FE000170A2B013C010E94430A9B01AC01C70177
:100FF000B6010E9441096B017C012AE0B301A20104
:10100000CE010E949C06080F191FBB2039F06EE923
:1010100071E0CE010E946706080F191F7B2C772014
:1010200041F120E030E040E251E4C701B6010E9406
:10103000F90A6B017C010E94120A4B01AA2497FC59
:10104000A094BA2C2AE030E0B501A401CE010E94A0
:10105000EB06080F191FC501B4010E94450A9B0148
:10106000AC01C701B6010E9441096B017C017A9471
:10107000D6CFC801DF91CF911F910F91FF90EF90D4
:10108000DF90CF90BF90AF909F908F907F906F90A8
:101090005F904F9008950F931F93CF93DF93EC01D0
:1010A0000E9460078C01CE010E948606800F911F6E
:1010B000DF91CF911F910F9108950895FC01818DCB
:1010C000228D90E0805C9F4F821B91098F7399273E
:1010D0000895FC01918D828D981731F0828DE80F73
:1010E000F11D858D90E008958FEF9FEF0895FC012D
:1010F000918D828D981761F0828DDF01A80FB11D4F
:101100005D968C91928D9F5F9F73928F90E0089572
:101110008FEF9FEF089582EE95E0892B49F080E0F4
:1011200090E0892B29F00E94E20581110C940000C7
:101130000895FC01848DDF01A80FB11DA35ABF4F94
:101140002C91848D90E001968F739927848FA689C6
:10115000B7892C93A089B1898C9180648C93938DED
:10116000848D981306C00288F389E02D80818F7DDD
:1011700080830895CF93DF93EC01888D8823C9F095
:10118000EA89FB89808185FD05C0A889B9898C9190
:1011900086FD0FC00FB607FCF5CF808185FFF2CF2B
:1011A000A889B9898C9185FFEDCFCE010E9499085D
:1011B000E7CFDF91CF910895CF92DF92FF920F9307
:1011C0001F93CF93DF931F92CDB7DEB76C0181E001
:1011D000D60158968C9358975B969C915B975C963A
:1011E0008C915C97981307C05096ED91FC915197A4
:1011F000808185FD2EC0F601038D10E00F5F1F4F2B
:101200000F731127F02EF601848DF81211C00FB65E
:1012100007FCF9CFD6015096ED91FC915197808152
:1012200085FFF1CFC60169830E9499086981EBCFE0
:10123000838DE80FF11DE35AFF4F6083D6015B9663
:101240000C935B975296ED91FC915397808180624D
:101250000CC0D6015696ED91FC915797608350963D
:10126000ED91FC91519780818064808381E090E0D2
:101270000F90DF91CF911F910F91FF90DF90CF9052
:1012800008955058BB27AA270ED075C166D130F0FB
:101290006BD120F031F49F3F11F41EF45BC10EF4CA
:1012A000E095E7FB51C1E92F77D180F3BA176207C8
:1012B00073078407950718F071F49EF58FC10EF43B
:1012C000E0950B2EBA2FA02D0B01B90190010C0156
:1012D000CA01A0011124FF27591B99F0593F50F46E
:1012E000503E68F11A16F040A22F232F342F4427C6
:1012F000585FF3CF469537952795A795F0405395BE
:10130000C9F77EF41F16BA0B620B730B840BBAF08D
:101310009150A1F0FF0FBB1F661F771F881FC2F7F8
:101320000EC0BA0F621F731F841F48F4879577950C
:101330006795B795F7959E3F08F0B3CF9395880FC3
:1013400008F09927EE0F979587950895D9D008F45E
:1013500081E008950CD00FC107D140F0FED030F0ED
:1013600021F45F3F19F0F0C0511139C1F3C014D11D
:1013700098F39923C9F35523B1F3951B550BBB275C
:10138000AA2762177307840738F09F5F5F4F220F09
:10139000331F441FAA1FA9F333D00E2E3AF0E0E802
:1013A00030D091505040E695001CCAF729D0FE2F4E
:1013B00027D0660F771F881FBB1F261737074807E0
:1013C000AB07B0E809F0BB0B802DBF01FF27935896
:1013D0005F4F2AF09E3F510568F0B6C000C15F3FE5
:1013E000ECF3983EDCF3869577956795B795F7957E
:1013F0009F5FC9F7880F911D9695879597F9089576
:10140000E1E0660F771F881FBB1F62177307840711
:10141000BA0720F0621B730B840BBA0BEE1F88F720
:10142000E095089504D06894B111D9C00895BCD056
:1014300088F09F5790F0B92F9927B751A0F0D1F0BD
:10144000660F771F881F991F1AF0BA95C9F712C047
:10145000B13081F0C3D0B1E00895C0C0672F782FBC
:101460008827B85F39F0B93FCCF3869577956795B3
:10147000B395D9F73EF490958095709561957F4F1F
:101480008F4F9F4F0895E89409C097FB3EF49095C5
:101490008095709561957F4F8F4F9F4F9923A9F04D
:1014A000F92F96E9BB279395F695879577956795DC
:1014B000B795F111F8CFFAF4BB0F11F460FF1BC020
:1014C0006F5F7F4F8F4F9F4F16C0882311F096E9B3
:1014D00011C0772321F09EE8872F762F05C0662361
:1014E00071F096E8862F70E060E02AF09A95660F1A
:1014F000771F881FDAF7880F9695879597F90895D3
:10150000990F0008550FAA0BE0E8FEEF1616170614
:10151000E807F907C0F012161306E407F50798F07C
:10152000621B730B840B950B39F40A2661F0232B95
:10153000242B252B21F408950A2609F4A140A69511
:101540008FEF811D811D089597F99F6780E870E0F6
:1015500060E008959FEF80EC089500240A94161629
:10156000170618060906089500240A941216130691
:10157000140605060895092E0394000C11F488231F
:1015800052F0BB0F40F4BF2B11F460FF04C06F5F3B
:101590007F4F8F4F9F4F089557FD9058440F551F11
:1015A00059F05F3F71F04795880F97FB991F61F0E5
:1015B0009F3F79F087950895121613061406551F5C
:1015C000F2CF4695F1DF08C0161617061806991FC8
:1015D000F1CF86957105610508940895E894BB27BD
:1015E00066277727CB0197F908958ADF08F48FEFF4
:1015F00008950BD0C0CFB1DF28F0B6DF18F09523E7
:1016000009F0A2CFA7CF1124EACFC6DFA0F3959FA0
:10161000D1F3950F50E0551F629FF001729FBB27D9
:10162000F00DB11D639FAA27F00DB11DAA1F649F85
:101630006627B00DA11D661F829F2227B00DA11D38
:10164000621F739FB00DA11D621F839FA00D611DBE
:10165000221F749F3327A00D611D231F849F600DDF
:10166000211D822F762F6A2F11249F5750408AF018
:10167000E1F088234AF0EE0FFF1FBB1F661F771FA4
:10168000881F91505040A9F79E3F510570F05CCFE4
:10169000A6CF5F3FECF3983EDCF386957795679590
:1016A000B795F795E7959F5FC1F7FE2B880F911DC2
:1016B0009695879597F9089523DF880B990B0895E0
:1016C000A1E21A2EAA1BBB1BFD010DC0AA1FBB1F46
:1016D000EE1FFF1FA217B307E407F50720F0A21BB8
:1016E000B30BE40BF50B661F771F881F991F1A9425
:1016F00069F760957095809590959B01AC01BD014F
:10170000CF010895EE0FFF1F0590F491E02D09948D
:04171000F894FFCF7B
:101714000100004D63703235313520636F6E6669A8
:10172400677572652062757320737563636573668C
:10173400756C6C79004D63703235313520636F6E92
:1017440066696775726520696E7465727275707406
:10175400732073756363657366756C6C79004D6390
:10176400703235313520636F6E6669677572652036
:10177400727820627566666572207375636365733B
:1017840066756C6C790041626F727420776169745C
:10179400696E672E204D61782E2077616974696EB9
:1017A400672074696D6520726561636865642E00E5
:1017B4004D637032353135207377697463682074F2
:1017C4006F206D6F646520004D63703235313520B4
:1017D40072657365742073756363657366756C6C89
:1017E4007920616E642073776974636820646F2064
:1017F4006D6F646520004D63703235313520636F41
:101804006E666967757265206D61736B73202F2036
:1018140066696C746572732073756363657366754A
:101824006C6C7900565758595A5B5C5D4647484979
:101834004A4B4C4D363738393A3B3C3D0D0A006E25
:10184400616E00696E66006F76660000000000DC61
:0C185400083F065E0877086908BA080023
:00000001FF
