:100000000C945D000C9485000C9485000C94850084
:100010000C9485000C9485000C9485000C9485004C
:100020000C9485000C9485000C9485000C9485003C
:100030000C9485000C9485000C9485000C9485002C
:100040000C943C040C9485000C94C2050C94F405AB
:100050000C9485000C9485000C9485000C9485000C
:100060000C9485000C94850000000008000201003B
:100070000003040700000000000000000102040863
:100080001020408001020408102001020408102002
:10009000040404040404040402020202020203032E
:1000A0000303030300000000250028002B000000CC
:1000B0000000240027002A00240611241FBECFEFD1
:1000C000D8E0DEBFCDBF12E0A0E0B1E0E4E8F7E1A8
:1000D00002C005900D92A432B107D9F722E0A4E244
:1000E000B2E001C01D92AB3EB207E1F710E0CAEBEF
:1000F000D0E004C02297FE010E94BC0BC83BD10790
:10010000C9F70E9468060C94C00B0C9400008EBDC9
:1001100000000DB407FEFDCF8EB50895CF93DF9399
:10012000D82FC62F8AE00E948C056C2F8D2FDF916F
:10013000CF910C948C05CF92DF92EF92FF920F93A8
:100140001F93CF93DF9360E087E090E00E948E00E2
:1001500082EF0E948700CDE2D2E080E00E9487001B
:10016000899382E0C333D807C1F761E087E090E06C
:100170000E948E001092330280914002882309F47D
:1001800072C060912D0270912E0200912F02109189
:10019000300280913102C82F80913202D82F8827F7
:1001A00077FD8095982F0E947D0A20E030E040E0A6
:1001B0005CE30E94310B6B017C016093340270930D
:1001C00035028093360290933702B801882777FD75
:1001D0008095982F0E947D0A20E030E040E05CE3AB
:1001E0000E94310B609338027093390280933A0277
:1001F00090933B02BE01882777FD8095982F0E943F
:100200007D0A20E030E040E05CE30E94310B609327
:100210003C0270933D0280933E0290933F0222E0A5
:1002200030E0B701A6018EE492E00E94830840917D
:1002300038025091390260913A0270913B0222E0FB
:1002400030E08EE492E00E94830840913C0250919D
:100250003D0260913E0270913F0222E030E08EE468
:1002600092E00E94830881E0DF91CF911F910F916E
:10027000FF90EF90DF90CF9008950F931F93CF934F
:10028000DF93082F162FEA0160E0CA010E948E005A
:10029000802F0E948700812F0E94870061E0CE019D
:1002A000DF91CF911F910F910C948E0047E050E0A9
:1002B00061E081E30E943D0147E050E068E08DE2AB
:1002C0000C943D010F931F93CF93DF93082F162FAC
:1002D000EA0160E0CA010E948E0082E00E9487006D
:1002E000802F0E948700812F0E94870061E0CE014D
:1002F000DF91CF911F910F910C948E0048E050E058
:1003000063E08AE20E94620148E050E060E989E22D
:100310000E94620148E050E062E088E20E946201CF
:1003200080914002882331F063E071E08EE492E036
:100330000C94C206089548E050E060E08BE20E9411
:10034000620180914002882331F065E271E08EE421
:1003500092E00C94C206089548E050E063E080E625
:100360000E94620148E050E063E080E70E94620181
:1003700080914002882331F06EE471E08EE492E0D7
:100380000C94C20608951F93CF93DF93182FEB01AF
:1003900060E0CE010E948E0083E00E948700812FE2
:1003A0000E94870080E00E948700182F61E0CE0144
:1003B0000E948E0061E070E080E090E00E94B50451
:1003C00048E050E060E08CE20E946201812FDF9102
:1003D000CF911F910895CF92DF92EF92FF920F93EA
:1003E0001F93CF93DF93062FC3E0D0E048E050E0A7
:1003F000602F8FE00E94620168E070E08EE00E9452
:10040000C301182F0E9486046B017C0160E070E03C
:10041000CB01101791F0693873418105910594F46F
:1004200068E070E08EE00E94C301182F0E948604ED
:100430006C197D098E099F09ECCF693873418105DC
:10044000910564F080914002882331F06CE771E0FF
:100450008EE492E00E94C206219741F6809140020C
:10046000882331F066EA71E08EE492E00E94B506DE
:1004700080914002882339F04AE050E0612F8EE4F9
:1004800092E00E947A0780914002882371F06FE623
:1004900071E08EE492E0DF91CF911F910F91FF9078
:1004A000EF90DF90CF900C94C206DF91CF911F9117
:1004B0000F91FF90EF90DF90CF900895CF93DF934F
:1004C000D62FC42F48E050E0682F82E30E946201DB
:1004D00048E050E06D2F81E30E94620148E050E067
:1004E0006C2F85E3DF91CF910C946201CF93DF9362
:1004F000D62FC42F48E050E0682F82E40E946201AA
:1005000048E050E06D2F81E40E94620148E050E035
:100510006C2F85E4DF91CF910C946201CF93DF9330
:10052000D62FC42F48E050E0682F82E50E94620178
:1005300048E050E06D2F81E50E94620148E050E004
:100540006C2F85E5DF91CF910C9462011F93CF93BF
:10055000DF93182FEB0160E0CE010E948E00812F07
:100560000E94870061E0CE01DF91CF911F910C9432
:100570008E00CF9368E070E080EC0E94A60268E0F5
:1005800070E08EE00E94C301C82F87FFF8CF8091F2
:100590004002882331F06EEB71E08EE492E00E941D
:1005A000B50680914002882341F04AE050E06C2F6C
:1005B0008EE492E0CF910C948107CF91089564E688
:1005C00070E080E090E00E94B5040E94B90264E609
:1005D00070E080E090E00E94B5040E947E0164E635
:1005E00070E080E090E00E94B5040E949B0164E608
:1005F00070E080E090E00E94B5040E94AC0164E6E7
:1006000070E080E090E00E94B50460E080E00E942D
:10061000EB0164E670E080E090E00E94B50448E001
:1006200050E068E08FE00E94620164E670E080E0E4
:1006300090E00C94B50481E080932802109240026F
:1006400061E087E00E94530561E088E00E94530565
:1006500061E08AE00E94530561E087E00E948C051A
:1006600061E088E00E948C0561E08AE00E948C05D0
:1006700080914302882399F09FB7F89480914302B8
:10068000813059F48DB3809341022DB380914202A1
:10069000809582238DBB9FBF02C0909341028CE561
:1006A0008CBD1DBC0E9406040E9456010E94DF0200
:1006B00047E060E080E00E945E0247E060E080E0AA
:1006C0000E94760247E060E080E00E948E0264E6CD
:1006D00070E080E090E00E94B5040E948604609380
:1006E000290270932A0280932B0290932C020E947D
:1006F00086046093240270932502809326029093CF
:10070000270208958130910539F08230910531F04A
:10071000892B29F421E803C022E801C024E868E01D
:1007200070E0822F0C94A602CF93DF93982F862F30
:10073000EA0148E050E0692F0E946201CE010E9468
:10074000820361E070E080E090E0DF91CF910C9453
:10075000B5040F931F93CF93DF930E949B0080916A
:1007600000018823B1F0CCEFD1E00DE212E06991F5
:1007700040E050E0F80181918F010E949403F2E083
:10078000C330DF07A1F71092000181E080930101DF
:1007900033C0809101018823B1F0C4EFD1E00DE2B4
:1007A00012E0699141E050E0F80181918F010E94CF
:1007B0009403F1E0CB3FDF07A1F71092010181E044
:1007C0008093020119C0809102018823A9F0CCEE28
:1007D000D1E00DE212E0699142E050E0F801819130
:1007E0008F010E949403F1E0C33FDF07A1F710924D
:1007F000020181E08093000164E670E080E090E017
:10080000DF91CF911F910F910C94B504CF93CFB787
:10081000F89480914402811127C0EAE9F0E08491C4
:10082000E6E8F0E09491E82FF0E0EE0FFF1FE255CC
:10083000FF4FA591B4918C91892321F461E08AE066
:100840000E948C0561E08AE00E9453058CB58061AE
:100850008CBD8CB580648CBD61E08DE00E94530539
:1008600061E08BE00E945305809144028F5F80938A
:100870004402CFBFCF9108951F920F920FB60F92EF
:1008800011242F933F938F939F93AF93BF938091A6
:10089000460290914702A0914802B09149023091DE
:1008A000450223E0230F2D3720F40196A11DB11D31
:1008B00005C026E8230F0296A11DB11D2093450215
:1008C0008093460290934702A0934802B093490256
:1008D00080914A0290914B02A0914C02B0914D023E
:1008E0000196A11DB11D80934A0290934B02A093E3
:1008F0004C02B0934D02BF91AF919F918F913F9168
:100900002F910F900FBE0F901F9018952FB7F8944E
:10091000609146027091470280914802909149028D
:100920002FBF08953FB7F89480914A0290914B02EF
:10093000A0914C02B0914D0226B5A89B05C02F3F57
:1009400019F00196A11DB11D3FBF6627782F892F91
:100950009A2F620F711D811D911D42E0660F771F56
:10096000881F991F4A95D1F708958F929F92AF9251
:10097000BF92CF92DF92EF92FF926B017C010E94B7
:1009800092044B015C01C114D104E104F104F1F0C3
:100990000E9495080E949204681979098A099B09A6
:1009A000683E73408105910570F321E0C21AD108B9
:1009B000E108F10888EE880E83E0981EA11CB11CA6
:1009C000C114D104E104F10429F7DDCFFF90EF90C9
:1009D000DF90CF90BF90AF909F908F9008957894C4
:1009E00084B5826084BD84B5816084BD85B5826034
:1009F00085BD85B5816085BDEEE6F0E080818160D2
:100A00008083E1E8F0E010828081826080838081D1
:100A100081608083E0E8F0E0808181608083E1EBA9
:100A2000F0E0808184608083E0EBF0E08081816091
:100A30008083EAE7F0E08081846080838081826047
:100A40008083808181608083808180688083109230
:100A5000C1000895833081F028F4813099F082300C
:100A6000A1F008958730A9F08830B9F08430D1F42E
:100A7000809180008F7D03C0809180008F7780936C
:100A80008000089584B58F7702C084B58F7D84BDC2
:100A900008958091B0008F7703C08091B0008F7D62
:100AA0008093B0000895CF93DF9390E0FC01E45869
:100AB000FF4F2491FC01E057FF4F8491882349F1B7
:100AC00090E0880F991FFC01E255FF4FA591B4916A
:100AD0008C559F4FFC01C591D4919FB7611108C0FF
:100AE000F8948C91209582238C93888182230AC06C
:100AF000623051F4F8948C91322F309583238C938B
:100B00008881822B888304C0F8948C91822B8C93EB
:100B10009FBFDF91CF9108950F931F93CF93DF93E2
:100B20001F92CDB7DEB7282F30E0F901E859FF4F0B
:100B30008491F901E458FF4F1491F901E057FF4FF8
:100B400004910023C9F0882321F069830E942A05BB
:100B50006981E02FF0E0EE0FFF1FEC55FF4FA591EC
:100B6000B4919FB7F8948C91611103C010958123C3
:100B700001C0812B8C939FBF0F90DF91CF911F916C
:100B80000F9108951F920F920FB60F9211242F9379
:100B90008F939F93EF93FF93E0915E02F0915F023A
:100BA0008081E0916402F091650282FD12C0908123
:100BB000809167028F5F8F7320916802821751F0D6
:100BC000E0916702F0E0E25BFD4F958F8093670252
:100BD00001C08081FF91EF919F918F912F910F9094
:100BE0000FBE0F901F9018951F920F920FB60F9285
:100BF00011242F933F934F935F936F937F938F9322
:100C00009F93AF93BF93EF93FF938EE492E00E9484
:100C1000D108FF91EF91BF91AF919F918F917F91FB
:100C20006F915F914F913F912F910F900FBE0F9059
:100C30001F9018958EE492E00E94960821E0892B7F
:100C400009F420E0822F0895109251021092500270
:100C500088EE93E0A0E0B0E08093520290935302BC
:100C6000A0935402B093550287E192E090934F0213
:100C700080934E0285EC90E090935B0280935A0241
:100C800084EC90E090935D0280935C0280EC90E0B5
:100C900090935F0280935E0281EC90E090936102FA
:100CA0008093600282EC90E09093630280936202F2
:100CB00086EC90E090936502809364021092670244
:100CC000109268021092690210926A0208950895C3
:100CD0000E94EF040E9467060E941B03C3ECD8E049
:100CE0000E94A9032097E1F30E94C308F9CFCF9295
:100CF000DF92EF92FF920F931F93CF93DF937C01CC
:100D00006A01EB0100E010E00C151D0571F069911E
:100D1000D701ED91FC910190F081E02DC70109957B
:100D2000892B19F00F5F1F4FEFCFC801DF91CF91D3
:100D30001F910F91FF90EF90DF90CF900895611574
:100D4000710581F0DB010D900020E9F7AD01415004
:100D50005109461B570BDC01ED91FC910280F38198
:100D6000E02D099480E090E008950C949F06DC014A
:100D7000ED91FC910190F081E02D099464E072E026
:100D80000C949F060F931F93CF93DF93EC010E9467
:100D90009F068C01CE010E94BE06800F911FDF913D
:100DA000CF911F910F9108958F929F92AF92BF9212
:100DB000DF92EF92FF920F931F93CF93DF93CDB704
:100DC000DEB7A1970FB6F894DEBF0FBECDBF7C0192
:100DD000F42FD52ECB0119A2223008F42AE08E017F
:100DE0000F5D1F4F822E912CA12CB12C6F2F7D2DCA
:100DF000A50194010E94980BF22FD32ECA01015035
:100E000011096A3014F4E0E301C0E7E3E60FD8010A
:100E1000EC93232B242B252B49F7B801C7010E9403
:100E20009F06A1960FB6F894DEBF0FBECDBFDF912F
:100E3000CF911F910F91FF90EF90DF90BF90AF90F7
:100E40009F908F900895CF92DF92EF92FF920F9331
:100E50001F93CF93DF93EC016A017B0121153105CC
:100E600079F4E881F9810190F081E02D642FDF9120
:100E7000CF911F910F91FF90EF90DF90CF90099449
:100E80002A303105E9F477FF1AC06DE20E94B706F7
:100E90008C0144275527BA014C195D096E097F0959
:100EA0002AE0CE010E94D406800F911FDF91CF91DE
:100EB0001F910F91FF90EF90DF90CF9008952AE05F
:100EC000B701A601CE01DF91CF911F910F91FF9045
:100ED000EF90DF90CF900C94D4062115310541F4AA
:100EE000DC01ED91FC910190F081E02D642F0994DB
:100EF0000C94D4069A01462F50E060E070E00C9408
:100F00006D070F931F93CF93DF93EC019A01462F48
:100F100050E060E070E00E946D078C01CE010E94FD
:100F2000BE06800F911FDF91CF911F910F91089501
:100F30004F925F926F927F928F929F92AF92BF92E9
:100F4000CF92DF92EF92FF920F931F93CF93DF9395
:100F5000EC016A017B01B22E9A01AB01C701B60117
:100F60000E94940B882319F067E072E027C02601E5
:100F70003701E89477F82FEF3FEF4FE75FE7C301C2
:100F8000B2010E94940B81110DC02FEF3FEF4FE78C
:100F90005FE7C301B2010E94DE0918161CF46BE082
:100FA00072E00CC02FEF3FEF4FE75FE4C701B601DF
:100FB0000E942D0B1816ACF46FE072E0CE01DF91A9
:100FC000CF911F910F91FF90EF90DF90CF90BF9046
:100FD000AF909F908F907F906F905F904F900C9408
:100FE0009F062FEF3FEF4FE75FECC701B6010E946E
:100FF000DE0987FDE1CF20E030E0A901C701B6019D
:101000000E94DE0987FF0AC06DE2CE010E94B7068A
:101010008C01F7FAF094F7F8F09402C000E010E0C9
:10102000A12C60E070E080E09FE3AB1441F020E091
:1010300030E040E251E40E94E209A394F6CF9B0124
:10104000AC01C701B6010E947A096B017C010E94C4
:101050004F0A2B013C010E947B0A9B01AC01C70196
:10106000B6010E9479096B017C012AE0B301A2015B
:10107000CE010E94D406080F191FBB2039F064EA84
:1010800071E0CE010E949F06080F191F7B2C77206C
:1010900041F120E030E040E251E4C701B6010E9496
:1010A000310B6B017C010E944A0A4B01AA2497FC78
:1010B000A094BA2C2AE030E0B501A401CE010E9430
:1010C0002307080F191FC501B4010E947D0A9B0167
:1010D000AC01C701B6010E9479096B017C017A94C9
:1010E000D6CFC801DF91CF911F910F91FF90EF9064
:1010F000DF90CF90BF90AF909F908F907F906F9038
:101100005F904F9008950F931F93CF93DF93EC015F
:101110000E9498078C01CE010E94BE06800F911F8D
:10112000DF91CF911F910F9108950895FC01818D5A
:10113000228D90E0805C9F4F821B91098F739927CD
:101140000895FC01918D828D981731F0828DE80F02
:10115000F11D858D90E008958FEF9FEF0895FC01BC
:10116000918D828D981761F0828DDF01A80FB11DDE
:101170005D968C91928D9F5F9F73928F90E0089502
:101180008FEF9FEF08958AE196E0892B49F080E088
:1011900090E0892B29F00E941A0681110C9400001E
:1011A0000895FC01848DDF01A80FB11DA35ABF4F24
:1011B0002C91848D90E001968F739927848FA68956
:1011C000B7892C93A089B1898C9180648C93938D7D
:1011D000848D981306C00288F389E02D80818F7D6D
:1011E00080830895CF93DF93EC01888D8823C9F025
:1011F000EA89FB89808185FD05C0A889B9898C9120
:1012000086FD0FC00FB607FCF5CF808185FFF2CFBA
:10121000A889B9898C9185FFEDCFCE010E94D108B4
:10122000E7CFDF91CF910895CF92DF92FF920F9396
:101230001F93CF93DF931F92CDB7DEB76C0181E090
:10124000D60158968C9358975B969C915B975C96C9
:101250008C915C97981307C05096ED91FC91519733
:10126000808185FD2EC0F601038D10E00F5F1F4FBA
:101270000F731127F02EF601848DF81211C00FB6EE
:1012800007FCF9CFD6015096ED91FC9151978081E2
:1012900085FFF1CFC60169830E94D1086981EBCF38
:1012A000838DE80FF11DE35AFF4F6083D6015B96F3
:1012B0000C935B975296ED91FC91539780818062DD
:1012C0000CC0D6015696ED91FC91579760835096CD
:1012D000ED91FC91519780818064808381E090E062
:1012E0000F90DF91CF911F910F91FF90DF90CF90E2
:1012F00008955058BB27AA270ED075C166D130F08B
:101300006BD120F031F49F3F11F41EF45BC10EF459
:10131000E095E7FB51C1E92F77D180F3BA17620757
:1013200073078407950718F071F49EF58FC10EF4CA
:10133000E0950B2EBA2FA02D0B01B90190010C01E5
:10134000CA01A0011124FF27591B99F0593F50F4FD
:10135000503E68F11A16F040A22F232F342F442755
:10136000585FF3CF469537952795A795F04053954D
:10137000C9F77EF41F16BA0B620B730B840BBAF01D
:101380009150A1F0FF0FBB1F661F771F881FC2F788
:101390000EC0BA0F621F731F841F48F4879577959C
:1013A0006795B795F7959E3F08F0B3CF9395880F53
:1013B00008F09927EE0F979587950895D9D008F4EE
:1013C00081E008950CD00FC107D140F0FED030F07D
:1013D00021F45F3F19F0F0C0511139C1F3C014D1AD
:1013E00098F39923C9F35523B1F3951B550BBB27EC
:1013F000AA2762177307840738F09F5F5F4F220F99
:10140000331F441FAA1FA9F333D00E2E3AF0E0E891
:1014100030D091505040E695001CCAF729D0FE2FDD
:1014200027D0660F771F881FBB1F2617370748076F
:10143000AB07B0E809F0BB0B802DBF01FF27935825
:101440005F4F2AF09E3F510568F0B6C000C15F3F74
:10145000ECF3983EDCF3869577956795B795F7950D
:101460009F5FC9F7880F911D9695879597F9089505
:10147000E1E0660F771F881FBB1F621773078407A1
:10148000BA0720F0621B730B840BBA0BEE1F88F7B0
:10149000E095089504D06894B111D9C00895BCD0E6
:1014A00088F09F5790F0B92F9927B751A0F0D1F04D
:1014B000660F771F881F991F1AF0BA95C9F712C0D7
:1014C000B13081F0C3D0B1E00895C0C0672F782F4C
:1014D0008827B85F39F0B93FCCF386957795679543
:1014E000B395D9F73EF490958095709561957F4FAF
:1014F0008F4F9F4F0895E89409C097FB3EF4909555
:101500008095709561957F4F8F4F9F4F9923A9F0DC
:10151000F92F96E9BB279395F6958795779567956B
:10152000B795F111F8CFFAF4BB0F11F460FF1BC0AF
:101530006F5F7F4F8F4F9F4F16C0882311F096E942
:1015400011C0772321F09EE8872F762F05C06623F0
:1015500071F096E8862F70E060E02AF09A95660FA9
:10156000771F881FDAF7880F9695879597F9089562
:10157000990F0008550FAA0BE0E8FEEF16161706A4
:10158000E807F907C0F012161306E407F50798F00C
:10159000621B730B840B950B39F40A2661F0232B25
:1015A000242B252B21F408950A2609F4A140A695A1
:1015B0008FEF811D811D089597F99F6780E870E086
:1015C00060E008959FEF80EC089500240A941616B9
:1015D000170618060906089500240A941216130621
:1015E000140605060895092E0394000C11F48823AF
:1015F00052F0BB0F40F4BF2B11F460FF04C06F5FCB
:101600007F4F8F4F9F4F089557FD9058440F551FA0
:1016100059F05F3F71F04795880F97FB991F61F074
:101620009F3F79F087950895121613061406551FEB
:10163000F2CF4695F1DF08C0161617061806991F57
:10164000F1CF86957105610508940895E894BB274C
:1016500066277727CB0197F908958ADF08F48FEF83
:1016600008950BD0C0CFB1DF28F0B6DF18F0952376
:1016700009F0A2CFA7CF1124EACFC6DFA0F3959F30
:10168000D1F3950F50E0551F629FF001729FBB2769
:10169000F00DB11D639FAA27F00DB11DAA1F649F15
:1016A0006627B00DA11D661F829F2227B00DA11DC8
:1016B000621F739FB00DA11D621F839FA00D611D4E
:1016C000221F749F3327A00D611D231F849F600D6F
:1016D000211D822F762F6A2F11249F5750408AF0A8
:1016E000E1F088234AF0EE0FFF1FBB1F661F771F34
:1016F000881F91505040A9F79E3F510570F05CCF74
:10170000A6CF5F3FECF3983EDCF38695779567951F
:10171000B795F795E7959F5FC1F7FE2B880F911D51
:101720009695879597F9089523DF880B990B08956F
:10173000A1E21A2EAA1BBB1BFD010DC0AA1FBB1FD5
:10174000EE1FFF1FA217B307E407F50720F0A21B47
:10175000B30BE40BF50B661F771F881F991F1A94B4
:1017600069F760957095809590959B01AC01BD01DE
:10177000CF010895EE0FFF1F0590F491E02D09941D
:04178000F894FFCF0B
:101784000100004D63703235313520636F6E666938
:10179400677572652062757320737563636573661C
:1017A400756C6C79004D63703235313520636F6E22
:1017B40066696775726520696E7465727275707496
:1017C400732073756363657366756C6C79004D6320
:1017D400703235313520636F6E66696775726520C6
:1017E4006D61736B73202F2066696C74657273204E
:1017F40073756363657366756C6C790041626F72AF
:10180400742077616974696E672E204D61782E208B
:1018140077616974696E672074696D6520726561AA
:10182400636865642E004D637032353135207377FB
:101834006974636820746F206D6F646520004D6364
:101844007032353135207265736574207375636346
:10185400657366756C6C7920616E64207377697446
:10186400636820646F206D6F646520005657585973
:101874005A5B5C5D464748494A4B4C4D36373839CC
:101884003A3B3C3D0D0A006E616E00696E66006F66
:1018940076660000000000140977069608AF08A1D8
:0418A40008F208003E
:00000001FF
