:100000000C9462000C948A000C948A000C948A0070
:100010000C948A000C948A000C948A000C948A0038
:100020000C948A000C948A000C948A000C948A0028
:100030000C948A000C948A000C948A000C948A0018
:100040000C9439040C948A000C9405060C94370621
:100050000C948A000C948A000C948A000C948A00F8
:100060000C948A000C948A00000000080002010031
:100070000003040700000000000000000102040863
:100080001020408001020408102001020408102002
:10009000040404040404040402020202020203032E
:1000A00003030303000000002300260029000000D2
:1000B0000000250028002B0000000000240027007D
:1000C0002A00670611241FBECFEFD8E0DEBFCDBFE8
:1000D00012E0A0E0B1E0E0E3F1E102C005900D9292
:1000E000A439B107D9F723E0A4E9B2E001C01D9219
:1000F000AB34B207E1F710E0C4ECD0E004C02297C3
:10010000FE010E949208C23CD107C9F70E94AB06CB
:100110000C9496080C94000060E089E00E946D0544
:1001200061E08AE00E946D0561E08AE00C94A6051A
:100130008EBD00000DB407FEFDCF8EB50895CF93A0
:10014000DF93C82F60E00E94A60580EA0E94980015
:1001500080E00E949800D82F61E08C2F0E94A605B5
:100160008D2FDF91CF910895CF93DF930E94830469
:100170000E948C0060E08AE00E94A60582EF0E9447
:100180009800CAE9D2E080E00E949800899382E05A
:10019000C03AD807C1F761E08AE00E94A60581E075
:1001A000DF91CF9108950F931F93CF93DF931F9209
:1001B000CDB7DEB7082F162F60E0842F49830E9449
:1001C000A605802F0E949800812F0E94980061E070
:1001D0004981842F0F90DF91CF911F910F910C9443
:1001E000A6050E948C004AE050E061E081E30E9495
:1001F000D3004AE050E068E08DE20C94D3000F9306
:100200001F93CF93DF931F92CDB7DEB7082F162F22
:1002100060E0842F49830E94A60582E00E94980036
:10022000802F0E949800812F0E94980061E04981F0
:10023000842F0F90DF91CF911F910F910C94A60501
:1002400049E050E060E08AE20E94FF0049E050E0AF
:1002500060E989E20E94FF0049E050E062E088E244
:100260000E94FF008091A002882331F061E071E0DC
:100270008EEA92E00C94FE06089549E050E063E0B7
:100280008BE20E94FF008091A002882331F063E29C
:1002900071E08EEA92E00C94FE06089549E050E089
:1002A00063E080E60E94FF0049E050E063E080E701
:1002B0000E94FF008091A002882331F06CE471E07D
:1002C0008EEA92E00C94FE060895CF93DF93D82F28
:1002D000C62F60E08C2F0E94A60583E00E94980044
:1002E0008D2F0E94980080E00E949800D82F61E036
:1002F0008C2F0E94A60561E070E080E090E00E94F3
:10030000B20449E050E060E08CE20E94FF008D2FD3
:10031000DF91CF910895CF92DF92EF92FF920F93EA
:100320001F93CF93DF93062FC3E0D0E049E050E066
:10033000602F8FE00E94FF0069E070E08EE00E9475
:100340006501182F0E9483046B017C0160E070E05E
:10035000CB01101791F0693873418105910594F430
:1003600069E070E08EE00E946501182F0E9483040E
:100370006C197D098E099F09ECCF6938734181059D
:10038000910564F08091A002882331F06AE771E062
:100390008EEA92E00E94FE06219741F68091A0022B
:1003A000882331F064EA71E08EEA92E00E94F80658
:1003B0008091A002882339F04AE050E0612F8EEA54
:1003C00092E00E946C078091A002882371F06DE694
:1003D00071E08EEA92E0DF91CF911F910F91FF9033
:1003E000EF90DF90CF900C94FE06DF91CF911F919C
:1003F0000F91FF90EF90DF90CF900895CF93DF9310
:10040000D82FC62F60E08C2F0E94A6058D2F0E944A
:10041000980061E08C2FDF91CF910C94A605CF93CB
:1004200069E070E080EC0E94FE0169E070E08EE01F
:100430000E946501C82F87FFF8CF8091A002882312
:1004400031F06CEB71E08EEA92E00E94F806809148
:10045000A002882341F04AE050E06C2F8EEA92E03F
:10046000CF910C947307CF9108958130910539F0A5
:100470008230910531F0892B29F421E803C022E86C
:1004800001C024E869E070E0822F0C94FE01823004
:10049000910539F08330910581F00197B1F40C9406
:1004A0008C0060E08AE00E946D0561E089E00E94B6
:1004B0006D0561E089E00C94A60560E08AE00E9489
:1004C0006D0560E089E00C946D05089582E090E090
:1004D0000E94470264E670E080E090E00E94B2046F
:1004E0000E940F0264E670E080E090E00E94B20497
:1004F0000E94200164E670E080E090E00E94B20477
:100500000E943D0164E670E080E090E00E94B20449
:100510000E944E0164E670E080E090E00E94B20428
:1005200060E080E00E948B0164E670E080E090E093
:100530000C94B20461E08AE00E946D0561E089E0FC
:100540000E946D0560E088E00E946D0560E08EE02D
:100550000E946D0561E087E00E946D0561E08AE020
:100560000E94A60561E089E00E94A60560E087E0A0
:100570000E94A6058091A302882399F09FB7F89462
:100580008091A302813059F48DB38093A1022DB3E1
:100590008091A202809582238DBB9FBF02C0909361
:1005A000A1028CE58CBD1DBC0E9403040E94F100D9
:1005B0000E9466021092A00281E080939502109240
:1005C000940264E670E080E090E00E94B2040E9431
:1005D000830460939602709397028093980290939D
:1005E000990208951F93CF93DF93182FD62FC42F0E
:1005F00082E090E00E94470249E050E0612F82E3F0
:100600000E94FF0049E050E06D2F81E30E94FF004F
:1006100049E050E06C2F85E3DF91CF911F910C945E
:10062000FF00AF92BF92CF92DF92EF92FF920F93B3
:100630001F93CF93DF931F92CDB7DEB78C01C62EE9
:10064000F42E82E090E029830E9447024C2D2981FC
:10065000622F8F2D0E94F2028DE6E82E82E0F82EA6
:100660005801D12CC501801B910B8C159D0558F4A8
:10067000F50161915F0149E050E0F70181917F014F
:100680000E94FF00EFCF80E090E00F90DF91CF91CC
:100690001F910F91FF90EF90DF90CF90BF90AF90A0
:1006A0000C943502CF93DF9300D0CDB7DEB78EE048
:1006B0000E942705853F914094F080919402882301
:1006C00071F08091A002882331F06AEE71E08EEA29
:1006D00092E00E94FE060E94B40081110DC088E0E5
:1006E0000E94DC05892B09F089C08EE00E94270555
:1006F000843F91408CF182C061E087E00E94A605B2
:100700008091A002882331F06CEF71E08EEA92E0D4
:100710000E94FE0620E040E066E08AE992E00E9446
:10072000110349E050E060E08CE20E94FF008EE09F
:100730000E942705853F9140D4F760E087E00E9442
:10074000A6058091A002882351F26CE072E08EEA47
:1007500092E00E94FE06C3CF89E090E00E949F00D5
:100760008370813051F469E070E086E60E94650193
:10077000898369E070E087E60BC0823061F469E04C
:1007800070E086E70E946501898369E070E087E791
:100790000E9465018A8389818F3FC1F48A818F3FDE
:1007A00069F58091A002882331F06EE172E08EEA53
:1007B00092E00E94FE0620E040E062E0CE01019659
:1007C0000E94110381E08093940218C08038B1F434
:1007D0008A81803899F48091A002882331F066E400
:1007E00072E08EEA92E00E94FE0620E040E062E0C5
:1007F000CE0101960E941103109294020F900F9067
:10080000DF91CF910895CF93CFB7F8948091A40250
:10081000811127C0EAE9F0E08491E6E8F0E09491E4
:10082000E82FF0E0EE0FFF1FE854FF4FA591B491C1
:100830008C91892321F461E08AE00E94A60561E0A1
:100840008AE00E946D058CB580618CBD8CB580649A
:100850008CBD61E08DE00E946D0561E08BE00E943F
:100860006D058091A4028F5F8093A402CFBFCF91CA
:1008700008951F920F920FB60F9211242F933F935A
:100880008F939F93AF93BF938091A6029091A702FD
:10089000A091A802B091A9023091A50223E0230FF4
:1008A0002D3720F40196A11DB11D05C026E8230FA8
:1008B0000296A11DB11D2093A5028093A6029093DC
:1008C000A702A093A802B093A9028091AA029091D6
:1008D000AB02A091AC02B091AD020196A11DB11D79
:1008E0008093AA029093AB02A093AC02B093AD02A6
:1008F000BF91AF919F918F913F912F910F900FBE1C
:100900000F901F9018952FB7F8946091A6027091E0
:10091000A7028091A8029091A9022FBF08953FB726
:10092000F8948091AA029091AB02A091AC02B09190
:10093000AD0226B5A89B05C02F3F19F00196A11D59
:10094000B11D3FBF6627782F892F9A2F620F711D27
:10095000811D911D42E0660F771F881F991F4A95E0
:10096000D1F708958F929F92AF92BF92CF92DF926C
:10097000EF92FF926B017C010E948F044B015C019E
:10098000C114D104E104F104F1F00E948A070E942D
:100990008F04681979098A099B09683E73408105AB
:1009A000910570F321E0C21AD108E108F10888EE40
:1009B000880E83E0981EA11CB11CC114D104E1046F
:1009C000F10429F7DDCFFF90EF90DF90CF90BF903B
:1009D000AF909F908F900895789484B5826084BD85
:1009E00084B5816084BD85B5826085BD85B5816033
:1009F00085BDEEE6F0E0808181608083E1E8F0E093
:100A00001082808182608083808181608083E0E8C1
:100A1000F0E0808181608083E1EBF0E080818460A0
:100A20008083E0EBF0E0808181608083EAE7F0E0A2
:100A30008081846080838081826080838081816006
:100A400080838081806880831092C10008958E30F9
:100A500008F08E5087702091000190E4299F90014A
:100A60001124822B80937C0080917A008064809393
:100A70007A0080917A0086FDFCCF809178002091E9
:100A8000790090E0922B0895833081F028F4813032
:100A900099F08230A1F008958730A9F08830B9F03C
:100AA0008430D1F4809180008F7D03C080918000DC
:100AB0008F7780938000089584B58F7702C084B5C6
:100AC0008F7D84BD08958091B0008F7703C08091A1
:100AD000B0008F7D8093B0000895CF93DF9390E0B6
:100AE000FC01E458FF4F2491FC01E057FF4F849133
:100AF000882349F190E0880F991FFC01E854FF4FCB
:100B0000A591B49182559F4FFC01C591D4919FB797
:100B1000611108C0F8948C91209582238C93888170
:100B200082230AC0623051F4F8948C91322F3095B0
:100B300083238C938881822B888304C0F8948C91C2
:100B4000822B8C939FBFDF91CF9108950F931F93BA
:100B5000CF93DF931F92CDB7DEB7282F30E0F90196
:100B6000E859FF4F8491F901E458FF4F1491F901BE
:100B7000E057FF4F04910023C9F0882321F06983D7
:100B80000E9444056981E02FF0E0EE0FFF1FE2555F
:100B9000FF4FA591B4919FB7F8948C91611103C058
:100BA0001095812301C0812B8C939FBF0F90DF9103
:100BB000CF911F910F910895CF93DF93282F30E0AD
:100BC000F901E859FF4F8491F901E458FF4FD4919E
:100BD000F901E057FF4FC491CC2391F081110E949D
:100BE0004405EC2FF0E0EE0FFF1FEC55FF4FA591F1
:100BF000B4912C912D2381E090E021F480E002C09B
:100C000080E090E0DF91CF9108951F920F920FB690
:100C10000F9211242F938F939F93EF93FF93E09163
:100C2000BE02F091BF028081E091C402F091C50242
:100C300082FD12C090818091C7028F5F8F732091D7
:100C4000C802821751F0E091C702F0E0E255FD4F73
:100C5000958F8093C70201C08081FF91EF919F9192
:100C60008F912F910F900FBE0F901F9018951F928C
:100C70000F920FB60F9211242F933F934F935F93D0
:100C80006F937F938F939F93AF93BF93EF93FF9354
:100C90008EEA92E00E94C607FF91EF91BF91AF915B
:100CA0009F918F917F916F915F914F913F912F9184
:100CB0000F900FBE0F901F9018958EEA92E00E9441
:100CC0008B0721E0892B09F420E0822F08951092F0
:100CD000B1021092B00288EE93E0A0E0B0E0809301
:100CE000B2029093B302A093B402B093B50288E825
:100CF00092E09093AF028093AE0285EC90E09093E7
:100D0000BB028093BA0284EC90E09093BD02809382
:100D1000BC0280EC90E09093BF028093BE0281EC15
:100D200090E09093C1028093C00282EC90E0909397
:100D3000C3028093C20286EC90E09093C502809338
:100D4000C4021092C7021092C8021092C9021092F7
:100D5000CA02089508950E94EC040E94AA060E9407
:100D60009A02C8EBD7E00E9452032097E1F30E9459
:100D7000B807F9CFCF92DF92EF92FF920F931F93B4
:100D8000CF93DF937C016A01EB0100E010E00C15CA
:100D90001D0571F06991D701ED91FC910190F081F1
:100DA000E02DC7010995892B19F00F5F1F4FEFCF79
:100DB000C801DF91CF911F910F91FF90EF90DF90CD
:100DC000CF9008956115710581F0DB010D90002031
:100DD000E9F7AD0141505109461B570BDC01ED917C
:100DE000FC910280F381E02D099480E090E0089569
:100DF0000C94E20665E772E00C94E2060F931F93F1
:100E0000CF93DF93EC010E94E2068C01CE010E9499
:100E1000FA06800F911FDF91CF911F910F910895D6
:100E20008F929F92AF92BF92DF92EF92FF920F93B9
:100E30001F93CF93DF93CDB7DEB7A1970FB6F8948A
:100E4000DEBF0FBECDBF7C01F42FD52ECB0119A282
:100E5000223008F42AE08E010F5D1F4F822E912C64
:100E6000A12CB12C6F2F7D2DA50194010E946E083D
:100E7000F22FD32ECA01015011096A3014F4E0E3B5
:100E800001C0E7E3E60FD801EC93232B242B252B9D
:100E900049F7B801C7010E94E206A1960FB6F8947F
:100EA000DEBF0FBECDBFDF91CF911F910F91FF909D
:100EB000EF90DF90BF90AF909F908F900895211595
:100EC000310541F4DC01ED91FC910190F081E02DC0
:100ED000642F09940C9410079A01462F50E060E0AB
:100EE00070E00C945F070F931F93CF93DF93EC0197
:100EF0009A01462F50E060E070E00E945F078C018D
:100F0000CE010E94FA06800F911FDF91CF911F91B1
:100F10000F9108950895FC01818D228D90E0805CF1
:100F20009F4F821B91098F7399270895FC01918D22
:100F3000828D981731F0828DE80FF11D858D90E03C
:100F400008958FEF9FEF0895FC01918D828D981782
:100F500061F0828DDF01A80FB11D5D968C91928D9D
:100F60009F5F9F73928F90E008958FEF9FEF08959A
:100F70008DE596E0892B49F080E090E0892B29F0FF
:100F80000E945D0681110C9400000895FC01848D7F
:100F9000DF01A80FB11DA35ABF4F2C91848D90E0A3
:100FA00001968F739927848FA689B7892C93A0897E
:100FB000B1898C9180648C93938D848D981306C035
:100FC0000288F389E02D80818F7D80830895CF93FF
:100FD000DF93EC01888D8823C9F0EA89FB89808141
:100FE00085FD05C0A889B9898C9186FD0FC00FB613
:100FF00007FCF5CF808185FFF2CFA889B9898C9154
:1010000085FFEDCFCE010E94C607E7CFDF91CF91DC
:101010000895CF92DF92FF920F931F93CF93DF93A8
:101020001F92CDB7DEB76C0181E0D60158968C9344
:1010300058975B969C915B975C968C915C97981304
:1010400007C05096ED91FC915197808185FD2EC08F
:10105000F601038D10E00F5F1F4F0F731127F02E65
:10106000F601848DF81211C00FB607FCF9CFD60136
:101070005096ED91FC915197808185FFF1CFC6018B
:1010800069830E94C6076981EBCF838DE80FF11D4C
:10109000E35AFF4F6083D6015B960C935B975296A1
:1010A000ED91FC915397808180620CC0D6015696D9
:1010B000ED91FC91579760835096ED91FC9151977B
:1010C00080818064808381E090E00F90DF91CF91F8
:1010D0001F910F91FF90DF90CF900895A1E21A2EFB
:1010E000AA1BBB1BFD010DC0AA1FBB1FEE1FFF1FCC
:1010F000A217B307E407F50720F0A21BB30BE40B1C
:10110000F50B661F771F881F991F1A9469F7609562
:101110007095809590959B01AC01BD01CF0108951C
:10112000EE0FFF1F0590F491E02D0994F894FFCF86
:10113000014D63703235313520636F6E66696775B6
:101140007265206275732073756363657366756C71
:101150006C79004D63703235313520636F6E66698E
:101160006775726520696E7465727275707473202C
:1011700073756363657366756C6C79004D6370326B
:1011800035313520636F6E666967757265206D61F4
:10119000736B73202F2066696C746572732073758E
:1011A0006363657366756C6C790041626F7274205D
:1011B00077616974696E672E204D61782E207761A2
:1011C0006974696E672074696D6520726561636812
:1011D00065642E004D637032353135207377697444
:1011E000636820746F206D6F646520004D637032FA
:1011F000353135207265736574207375636365736B
:1012000066756C6C7920616E6420737769746368AD
:1012100020646F206D6F64652000526561642073E7
:10122000656E736F7220646174612E004C6F61642F
:10123000207478206275666665722E0046696E6954
:10124000736865642077616974696E672E00526502
:101250006365697665207374617274207365717556
:10126000656E63652E2053656E642068616E6473DD
:1012700068616B652E0052656365697665207374DD
:101280006F702073657175656E63652E2053656E92
:10129000642068616E647368616B652E0036373850
:1012A000393A3B3C3D0D0A006E616E00696E660086
:1012B0006F766600000000000908BA068B07A407D5
:0412C0009607E7079F
:00000001FF
